{
	"contracts/FundMe.sol": {
		"FundMe": {
			"abi": [
				{
					"inputs": [],
					"name": "endFundRaiser",
					"outputs": [],
					"stateMutability": "nonpayable",
					"type": "function"
				},
				{
					"inputs": [],
					"name": "fund",
					"outputs": [],
					"stateMutability": "nonpayable",
					"type": "function"
				},
				{
					"inputs": [],
					"name": "startFundRaiser",
					"outputs": [],
					"stateMutability": "nonpayable",
					"type": "function"
				},
				{
					"inputs": [],
					"name": "withdraw",
					"outputs": [],
					"stateMutability": "nonpayable",
					"type": "function"
				}
			],
			"devdoc": {
				"kind": "dev",
				"methods": {},
				"version": 1
			},
			"evm": {
				"assembly": "    /* \"contracts/FundMe.sol\":323:614  contract FundMe {\r... */\n  mstore(0x40, 0x80)\n  callvalue\n  dup1\n  iszero\n  tag_1\n  jumpi\n  0x00\n  dup1\n  revert\ntag_1:\n  pop\n  dataSize(sub_0)\n  dup1\n  dataOffset(sub_0)\n  0x00\n  codecopy\n  0x00\n  return\nstop\n\nsub_0: assembly {\n        /* \"contracts/FundMe.sol\":323:614  contract FundMe {\r... */\n      mstore(0x40, 0x80)\n      callvalue\n      dup1\n      iszero\n      tag_1\n      jumpi\n      0x00\n      dup1\n      revert\n    tag_1:\n      pop\n      jumpi(tag_2, lt(calldatasize, 0x04))\n      shr(0xe0, calldataload(0x00))\n      dup1\n      0x3ccfd60b\n      eq\n      tag_3\n      jumpi\n      dup1\n      0x82c9e836\n      eq\n      tag_4\n      jumpi\n      dup1\n      0xb60d4288\n      eq\n      tag_5\n      jumpi\n      dup1\n      0xc89d0deb\n      eq\n      tag_6\n      jumpi\n    tag_2:\n      0x00\n      dup1\n      revert\n        /* \"contracts/FundMe.sol\":431:460  function withdraw() public {} */\n    tag_3:\n      tag_7\n      tag_8\n      jump\t// in\n    tag_7:\n      stop\n        /* \"contracts/FundMe.sol\":566:600  function endFundRaiser() public {} */\n    tag_4:\n      tag_9\n      tag_10\n      jump\t// in\n    tag_9:\n      stop\n        /* \"contracts/FundMe.sol\":370:395  function fund() public {} */\n    tag_5:\n      tag_11\n      tag_12\n      jump\t// in\n    tag_11:\n      stop\n        /* \"contracts/FundMe.sol\":498:534  function startFundRaiser() public {} */\n    tag_6:\n      tag_13\n      tag_14\n      jump\t// in\n    tag_13:\n      stop\n        /* \"contracts/FundMe.sol\":431:460  function withdraw() public {} */\n    tag_8:\n      jump\t// out\n        /* \"contracts/FundMe.sol\":566:600  function endFundRaiser() public {} */\n    tag_10:\n      jump\t// out\n        /* \"contracts/FundMe.sol\":370:395  function fund() public {} */\n    tag_12:\n      jump\t// out\n        /* \"contracts/FundMe.sol\":498:534  function startFundRaiser() public {} */\n    tag_14:\n      jump\t// out\n\n    auxdata: 0xa264697066735822122096ec0316cd8b34d6b1f3250b7c59a789cd2a1c0b83986648fb68b3ddaae1d0c664736f6c63430008070033\n}\n",
				"bytecode": {
					"linkReferences": {},
					"object": "608060405234801561001057600080fd5b5060a98061001f6000396000f3fe6080604052348015600f57600080fd5b506004361060465760003560e01c80633ccfd60b14604b57806382c9e836146053578063b60d428814605b578063c89d0deb146063575b600080fd5b6051606b565b005b6059606d565b005b6061606f565b005b60696071565b005b565b565b565b56fea264697066735822122096ec0316cd8b34d6b1f3250b7c59a789cd2a1c0b83986648fb68b3ddaae1d0c664736f6c63430008070033",
					"opcodes": "PUSH1 0x80 PUSH1 0x40 MSTORE CALLVALUE DUP1 ISZERO PUSH2 0x10 JUMPI PUSH1 0x0 DUP1 REVERT JUMPDEST POP PUSH1 0xA9 DUP1 PUSH2 0x1F PUSH1 0x0 CODECOPY PUSH1 0x0 RETURN INVALID PUSH1 0x80 PUSH1 0x40 MSTORE CALLVALUE DUP1 ISZERO PUSH1 0xF JUMPI PUSH1 0x0 DUP1 REVERT JUMPDEST POP PUSH1 0x4 CALLDATASIZE LT PUSH1 0x46 JUMPI PUSH1 0x0 CALLDATALOAD PUSH1 0xE0 SHR DUP1 PUSH4 0x3CCFD60B EQ PUSH1 0x4B JUMPI DUP1 PUSH4 0x82C9E836 EQ PUSH1 0x53 JUMPI DUP1 PUSH4 0xB60D4288 EQ PUSH1 0x5B JUMPI DUP1 PUSH4 0xC89D0DEB EQ PUSH1 0x63 JUMPI JUMPDEST PUSH1 0x0 DUP1 REVERT JUMPDEST PUSH1 0x51 PUSH1 0x6B JUMP JUMPDEST STOP JUMPDEST PUSH1 0x59 PUSH1 0x6D JUMP JUMPDEST STOP JUMPDEST PUSH1 0x61 PUSH1 0x6F JUMP JUMPDEST STOP JUMPDEST PUSH1 0x69 PUSH1 0x71 JUMP JUMPDEST STOP JUMPDEST JUMP JUMPDEST JUMP JUMPDEST JUMP JUMPDEST JUMP INVALID LOG2 PUSH5 0x6970667358 0x22 SLT KECCAK256 SWAP7 0xEC SUB AND 0xCD DUP12 CALLVALUE 0xD6 0xB1 RETURN 0x25 SIGNEXTEND PUSH29 0x59A789CD2A1C0B83986648FB68B3DDAAE1D0C664736F6C634300080700 CALLER "
				},
				"gasEstimates": {
					"creation": {
						"codeDepositCost": "33800",
						"executionCost": "87",
						"totalCost": "33887"
					},
					"external": {
						"endFundRaiser()": "144",
						"fund()": "166",
						"startFundRaiser()": "188",
						"withdraw()": "122"
					}
				},
				"methodIdentifiers": {
					"endFundRaiser()": "82c9e836",
					"fund()": "b60d4288",
					"startFundRaiser()": "c89d0deb",
					"withdraw()": "3ccfd60b"
				}
			},
			"storageLayout": {
				"storage": [],
				"types": null
			},
			"userdoc": {
				"kind": "user",
				"methods": {},
				"version": 1
			}
		}
	}
}