{
	"contracts/FundMe.sol": {
		"FundMe": {
			"abi": [
				{
					"inputs": [],
					"name": "endFundRaiser",
					"outputs": [],
					"stateMutability": "nonpayable",
					"type": "function"
				},
				{
					"inputs": [],
					"name": "fund",
					"outputs": [],
					"stateMutability": "view",
					"type": "function"
				},
				{
					"inputs": [],
					"name": "fundRaiserStatus",
					"outputs": [
						{
							"internalType": "bool",
							"name": "active",
							"type": "bool"
						},
						{
							"internalType": "uint256",
							"name": "minAmount",
							"type": "uint256"
						}
					],
					"stateMutability": "view",
					"type": "function"
				},
				{
					"inputs": [],
					"name": "startFundRaiser",
					"outputs": [],
					"stateMutability": "nonpayable",
					"type": "function"
				},
				{
					"inputs": [],
					"name": "viewListOfFundings",
					"outputs": [],
					"stateMutability": "nonpayable",
					"type": "function"
				},
				{
					"inputs": [],
					"name": "withdraw",
					"outputs": [],
					"stateMutability": "nonpayable",
					"type": "function"
				}
			],
			"devdoc": {
				"kind": "dev",
				"methods": {},
				"version": 1
			},
			"evm": {
				"assembly": "    /* \"contracts/FundMe.sol\":323:1169  contract FundMe {... */\n  mstore(0x40, 0x80)\n    /* \"contracts/FundMe.sol\":538:601  FundRaiserStatus({... */\n  mload(0x40)\n  dup1\n  0x40\n  add\n  0x40\n  mstore\n  dup1\n    /* \"contracts/FundMe.sol\":574:579  false */\n  0x00\n    /* \"contracts/FundMe.sol\":538:601  FundRaiserStatus({... */\n  iszero\n  iszero\n  dup2\n  mstore\n  0x20\n  add\n    /* \"contracts/FundMe.sol\":592:593  0 */\n  0x00\n    /* \"contracts/FundMe.sol\":538:601  FundRaiserStatus({... */\n  dup2\n  mstore\n  pop\n    /* \"contracts/FundMe.sol\":495:601  FundRaiserStatus public fundRaiserStatus = FundRaiserStatus({... */\n  0x00\n  dup1\n  dup3\n  add\n  mload\n  dup2\n  0x00\n  add\n  exp(0x0100, 0x00)\n  dup2\n  sload\n  dup2\n  0xff\n  mul\n  not\n  and\n  swap1\n  dup4\n  iszero\n  iszero\n  mul\n  or\n  swap1\n  sstore\n  pop\n  0x20\n  dup3\n  add\n  mload\n  dup2\n  0x01\n  add\n  sstore\n  pop\n  pop\n    /* \"contracts/FundMe.sol\":323:1169  contract FundMe {... */\n  callvalue\n  dup1\n  iszero\n  tag_1\n  jumpi\n  0x00\n  dup1\n  revert\ntag_1:\n  pop\n  dataSize(sub_0)\n  dup1\n  dataOffset(sub_0)\n  0x00\n  codecopy\n  0x00\n  return\nstop\n\nsub_0: assembly {\n        /* \"contracts/FundMe.sol\":323:1169  contract FundMe {... */\n      mstore(0x40, 0x80)\n      callvalue\n      dup1\n      iszero\n      tag_1\n      jumpi\n      0x00\n      dup1\n      revert\n    tag_1:\n      pop\n      jumpi(tag_2, lt(calldatasize, 0x04))\n      shr(0xe0, calldataload(0x00))\n      dup1\n      0x1dc19190\n      eq\n      tag_3\n      jumpi\n      dup1\n      0x3ccfd60b\n      eq\n      tag_4\n      jumpi\n      dup1\n      0x74143a6c\n      eq\n      tag_5\n      jumpi\n      dup1\n      0x82c9e836\n      eq\n      tag_6\n      jumpi\n      dup1\n      0xb60d4288\n      eq\n      tag_7\n      jumpi\n      dup1\n      0xc89d0deb\n      eq\n      tag_8\n      jumpi\n    tag_2:\n      0x00\n      dup1\n      revert\n        /* \"contracts/FundMe.sol\":495:601  FundRaiserStatus public fundRaiserStatus = FundRaiserStatus({... */\n    tag_3:\n      tag_9\n      tag_10\n      jump\t// in\n    tag_9:\n      mload(0x40)\n      tag_11\n      swap3\n      swap2\n      swap1\n      tag_12\n      jump\t// in\n    tag_11:\n      mload(0x40)\n      dup1\n      swap2\n      sub\n      swap1\n      return\n        /* \"contracts/FundMe.sol\":920:949  function withdraw() public {} */\n    tag_4:\n      tag_13\n      tag_14\n      jump\t// in\n    tag_13:\n      stop\n        /* \"contracts/FundMe.sol\":1127:1166  function viewListOfFundings() public {} */\n    tag_5:\n      tag_15\n      tag_16\n      jump\t// in\n    tag_15:\n      stop\n        /* \"contracts/FundMe.sol\":1055:1089  function endFundRaiser() public {} */\n    tag_6:\n      tag_17\n      tag_18\n      jump\t// in\n    tag_17:\n      stop\n        /* \"contracts/FundMe.sol\":632:884  function fund() public view {... */\n    tag_7:\n      tag_19\n      tag_20\n      jump\t// in\n    tag_19:\n      stop\n        /* \"contracts/FundMe.sol\":987:1023  function startFundRaiser() public {} */\n    tag_8:\n      tag_21\n      tag_22\n      jump\t// in\n    tag_21:\n      stop\n        /* \"contracts/FundMe.sol\":495:601  FundRaiserStatus public fundRaiserStatus = FundRaiserStatus({... */\n    tag_10:\n      0x00\n      dup1\n      0x00\n      add\n      0x00\n      swap1\n      sload\n      swap1\n      0x0100\n      exp\n      swap1\n      div\n      0xff\n      and\n      swap1\n      dup1\n      0x01\n      add\n      sload\n      swap1\n      pop\n      dup3\n      jump\t// out\n        /* \"contracts/FundMe.sol\":920:949  function withdraw() public {} */\n    tag_14:\n      jump\t// out\n        /* \"contracts/FundMe.sol\":1127:1166  function viewListOfFundings() public {} */\n    tag_16:\n      jump\t// out\n        /* \"contracts/FundMe.sol\":1055:1089  function endFundRaiser() public {} */\n    tag_18:\n      jump\t// out\n        /* \"contracts/FundMe.sol\":632:884  function fund() public view {... */\n    tag_20:\n        /* \"contracts/FundMe.sol\":736:752  fundRaiserStatus */\n      0x00\n        /* \"contracts/FundMe.sol\":736:759  fundRaiserStatus.active */\n      dup1\n      add\n      0x00\n      swap1\n      sload\n      swap1\n      0x0100\n      exp\n      swap1\n      div\n      0xff\n      and\n        /* \"contracts/FundMe.sol\":728:799  require(fundRaiserStatus.active, \"Fund raiser is not currently active\") */\n      tag_27\n      jumpi\n      mload(0x40)\n      0x08c379a000000000000000000000000000000000000000000000000000000000\n      dup2\n      mstore\n      0x04\n      add\n      tag_28\n      swap1\n      tag_29\n      jump\t// in\n    tag_28:\n      mload(0x40)\n      dup1\n      swap2\n      sub\n      swap1\n      revert\n    tag_27:\n        /* \"contracts/FundMe.sol\":632:884  function fund() public view {... */\n      jump\t// out\n        /* \"contracts/FundMe.sol\":987:1023  function startFundRaiser() public {} */\n    tag_22:\n      jump\t// out\n        /* \"#utility.yul\":7:97   */\n    tag_31:\n        /* \"#utility.yul\":41:48   */\n      0x00\n        /* \"#utility.yul\":84:89   */\n      dup2\n        /* \"#utility.yul\":77:90   */\n      iszero\n        /* \"#utility.yul\":70:91   */\n      iszero\n        /* \"#utility.yul\":59:91   */\n      swap1\n      pop\n        /* \"#utility.yul\":7:97   */\n      swap2\n      swap1\n      pop\n      jump\t// out\n        /* \"#utility.yul\":103:212   */\n    tag_32:\n        /* \"#utility.yul\":184:205   */\n      tag_41\n        /* \"#utility.yul\":199:204   */\n      dup2\n        /* \"#utility.yul\":184:205   */\n      tag_31\n      jump\t// in\n    tag_41:\n        /* \"#utility.yul\":179:182   */\n      dup3\n        /* \"#utility.yul\":172:206   */\n      mstore\n        /* \"#utility.yul\":103:212   */\n      pop\n      pop\n      jump\t// out\n        /* \"#utility.yul\":218:295   */\n    tag_33:\n        /* \"#utility.yul\":255:262   */\n      0x00\n        /* \"#utility.yul\":284:289   */\n      dup2\n        /* \"#utility.yul\":273:289   */\n      swap1\n      pop\n        /* \"#utility.yul\":218:295   */\n      swap2\n      swap1\n      pop\n      jump\t// out\n        /* \"#utility.yul\":301:419   */\n    tag_34:\n        /* \"#utility.yul\":388:412   */\n      tag_44\n        /* \"#utility.yul\":406:411   */\n      dup2\n        /* \"#utility.yul\":388:412   */\n      tag_33\n      jump\t// in\n    tag_44:\n        /* \"#utility.yul\":383:386   */\n      dup3\n        /* \"#utility.yul\":376:413   */\n      mstore\n        /* \"#utility.yul\":301:419   */\n      pop\n      pop\n      jump\t// out\n        /* \"#utility.yul\":425:745   */\n    tag_12:\n        /* \"#utility.yul\":540:544   */\n      0x00\n        /* \"#utility.yul\":578:580   */\n      0x40\n        /* \"#utility.yul\":567:576   */\n      dup3\n        /* \"#utility.yul\":563:581   */\n      add\n        /* \"#utility.yul\":555:581   */\n      swap1\n      pop\n        /* \"#utility.yul\":591:656   */\n      tag_46\n        /* \"#utility.yul\":653:654   */\n      0x00\n        /* \"#utility.yul\":642:651   */\n      dup4\n        /* \"#utility.yul\":638:655   */\n      add\n        /* \"#utility.yul\":629:635   */\n      dup6\n        /* \"#utility.yul\":591:656   */\n      tag_32\n      jump\t// in\n    tag_46:\n        /* \"#utility.yul\":666:738   */\n      tag_47\n        /* \"#utility.yul\":734:736   */\n      0x20\n        /* \"#utility.yul\":723:732   */\n      dup4\n        /* \"#utility.yul\":719:737   */\n      add\n        /* \"#utility.yul\":710:716   */\n      dup5\n        /* \"#utility.yul\":666:738   */\n      tag_34\n      jump\t// in\n    tag_47:\n        /* \"#utility.yul\":425:745   */\n      swap4\n      swap3\n      pop\n      pop\n      pop\n      jump\t// out\n        /* \"#utility.yul\":751:920   */\n    tag_35:\n        /* \"#utility.yul\":835:846   */\n      0x00\n        /* \"#utility.yul\":869:875   */\n      dup3\n        /* \"#utility.yul\":864:867   */\n      dup3\n        /* \"#utility.yul\":857:876   */\n      mstore\n        /* \"#utility.yul\":909:913   */\n      0x20\n        /* \"#utility.yul\":904:907   */\n      dup3\n        /* \"#utility.yul\":900:914   */\n      add\n        /* \"#utility.yul\":885:914   */\n      swap1\n      pop\n        /* \"#utility.yul\":751:920   */\n      swap3\n      swap2\n      pop\n      pop\n      jump\t// out\n        /* \"#utility.yul\":926:1148   */\n    tag_36:\n        /* \"#utility.yul\":1066:1100   */\n      0x46756e6420726169736572206973206e6f742063757272656e746c7920616374\n        /* \"#utility.yul\":1062:1063   */\n      0x00\n        /* \"#utility.yul\":1054:1060   */\n      dup3\n        /* \"#utility.yul\":1050:1064   */\n      add\n        /* \"#utility.yul\":1043:1101   */\n      mstore\n        /* \"#utility.yul\":1135:1140   */\n      0x6976650000000000000000000000000000000000000000000000000000000000\n        /* \"#utility.yul\":1130:1132   */\n      0x20\n        /* \"#utility.yul\":1122:1128   */\n      dup3\n        /* \"#utility.yul\":1118:1133   */\n      add\n        /* \"#utility.yul\":1111:1141   */\n      mstore\n        /* \"#utility.yul\":926:1148   */\n      pop\n      jump\t// out\n        /* \"#utility.yul\":1154:1520   */\n    tag_37:\n        /* \"#utility.yul\":1296:1299   */\n      0x00\n        /* \"#utility.yul\":1317:1384   */\n      tag_51\n        /* \"#utility.yul\":1381:1383   */\n      0x23\n        /* \"#utility.yul\":1376:1379   */\n      dup4\n        /* \"#utility.yul\":1317:1384   */\n      tag_35\n      jump\t// in\n    tag_51:\n        /* \"#utility.yul\":1310:1384   */\n      swap2\n      pop\n        /* \"#utility.yul\":1393:1486   */\n      tag_52\n        /* \"#utility.yul\":1482:1485   */\n      dup3\n        /* \"#utility.yul\":1393:1486   */\n      tag_36\n      jump\t// in\n    tag_52:\n        /* \"#utility.yul\":1511:1513   */\n      0x40\n        /* \"#utility.yul\":1506:1509   */\n      dup3\n        /* \"#utility.yul\":1502:1514   */\n      add\n        /* \"#utility.yul\":1495:1514   */\n      swap1\n      pop\n        /* \"#utility.yul\":1154:1520   */\n      swap2\n      swap1\n      pop\n      jump\t// out\n        /* \"#utility.yul\":1526:1945   */\n    tag_29:\n        /* \"#utility.yul\":1692:1696   */\n      0x00\n        /* \"#utility.yul\":1730:1732   */\n      0x20\n        /* \"#utility.yul\":1719:1728   */\n      dup3\n        /* \"#utility.yul\":1715:1733   */\n      add\n        /* \"#utility.yul\":1707:1733   */\n      swap1\n      pop\n        /* \"#utility.yul\":1779:1788   */\n      dup2\n        /* \"#utility.yul\":1773:1777   */\n      dup2\n        /* \"#utility.yul\":1769:1789   */\n      sub\n        /* \"#utility.yul\":1765:1766   */\n      0x00\n        /* \"#utility.yul\":1754:1763   */\n      dup4\n        /* \"#utility.yul\":1750:1767   */\n      add\n        /* \"#utility.yul\":1743:1790   */\n      mstore\n        /* \"#utility.yul\":1807:1938   */\n      tag_54\n        /* \"#utility.yul\":1933:1937   */\n      dup2\n        /* \"#utility.yul\":1807:1938   */\n      tag_37\n      jump\t// in\n    tag_54:\n        /* \"#utility.yul\":1799:1938   */\n      swap1\n      pop\n        /* \"#utility.yul\":1526:1945   */\n      swap2\n      swap1\n      pop\n      jump\t// out\n\n    auxdata: 0xa26469706673582212201919412a71a11a8b7ae4440239d23985fd2ad8f350bc5af911aad9db432dee6364736f6c63430008080033\n}\n",
				"bytecode": {
					"linkReferences": {},
					"object": "6080604052604051806040016040528060001515815260200160008152506000808201518160000160006101000a81548160ff02191690831515021790555060208201518160010155505034801561005657600080fd5b50610268806100666000396000f3fe608060405234801561001057600080fd5b50600436106100625760003560e01c80631dc19190146100675780633ccfd60b1461008657806374143a6c1461009057806382c9e8361461009a578063b60d4288146100a4578063c89d0deb146100ae575b600080fd5b61006f6100b8565b60405161007d929190610166565b60405180910390f35b61008e6100d7565b005b6100986100d9565b005b6100a26100db565b005b6100ac6100dd565b005b6100b6610130565b005b60008060000160009054906101000a900460ff16908060010154905082565b565b565b565b6000800160009054906101000a900460ff1661012e576040517f08c379a000000000000000000000000000000000000000000000000000000000815260040161012590610212565b60405180910390fd5b565b565b60008115159050919050565b61014781610132565b82525050565b6000819050919050565b6101608161014d565b82525050565b600060408201905061017b600083018561013e565b6101886020830184610157565b9392505050565b600082825260208201905092915050565b7f46756e6420726169736572206973206e6f742063757272656e746c792061637460008201527f6976650000000000000000000000000000000000000000000000000000000000602082015250565b60006101fc60238361018f565b9150610207826101a0565b604082019050919050565b6000602082019050818103600083015261022b816101ef565b905091905056fea26469706673582212201919412a71a11a8b7ae4440239d23985fd2ad8f350bc5af911aad9db432dee6364736f6c63430008080033",
					"opcodes": "PUSH1 0x80 PUSH1 0x40 MSTORE PUSH1 0x40 MLOAD DUP1 PUSH1 0x40 ADD PUSH1 0x40 MSTORE DUP1 PUSH1 0x0 ISZERO ISZERO DUP2 MSTORE PUSH1 0x20 ADD PUSH1 0x0 DUP2 MSTORE POP PUSH1 0x0 DUP1 DUP3 ADD MLOAD DUP2 PUSH1 0x0 ADD PUSH1 0x0 PUSH2 0x100 EXP DUP2 SLOAD DUP2 PUSH1 0xFF MUL NOT AND SWAP1 DUP4 ISZERO ISZERO MUL OR SWAP1 SSTORE POP PUSH1 0x20 DUP3 ADD MLOAD DUP2 PUSH1 0x1 ADD SSTORE POP POP CALLVALUE DUP1 ISZERO PUSH2 0x56 JUMPI PUSH1 0x0 DUP1 REVERT JUMPDEST POP PUSH2 0x268 DUP1 PUSH2 0x66 PUSH1 0x0 CODECOPY PUSH1 0x0 RETURN INVALID PUSH1 0x80 PUSH1 0x40 MSTORE CALLVALUE DUP1 ISZERO PUSH2 0x10 JUMPI PUSH1 0x0 DUP1 REVERT JUMPDEST POP PUSH1 0x4 CALLDATASIZE LT PUSH2 0x62 JUMPI PUSH1 0x0 CALLDATALOAD PUSH1 0xE0 SHR DUP1 PUSH4 0x1DC19190 EQ PUSH2 0x67 JUMPI DUP1 PUSH4 0x3CCFD60B EQ PUSH2 0x86 JUMPI DUP1 PUSH4 0x74143A6C EQ PUSH2 0x90 JUMPI DUP1 PUSH4 0x82C9E836 EQ PUSH2 0x9A JUMPI DUP1 PUSH4 0xB60D4288 EQ PUSH2 0xA4 JUMPI DUP1 PUSH4 0xC89D0DEB EQ PUSH2 0xAE JUMPI JUMPDEST PUSH1 0x0 DUP1 REVERT JUMPDEST PUSH2 0x6F PUSH2 0xB8 JUMP JUMPDEST PUSH1 0x40 MLOAD PUSH2 0x7D SWAP3 SWAP2 SWAP1 PUSH2 0x166 JUMP JUMPDEST PUSH1 0x40 MLOAD DUP1 SWAP2 SUB SWAP1 RETURN JUMPDEST PUSH2 0x8E PUSH2 0xD7 JUMP JUMPDEST STOP JUMPDEST PUSH2 0x98 PUSH2 0xD9 JUMP JUMPDEST STOP JUMPDEST PUSH2 0xA2 PUSH2 0xDB JUMP JUMPDEST STOP JUMPDEST PUSH2 0xAC PUSH2 0xDD JUMP JUMPDEST STOP JUMPDEST PUSH2 0xB6 PUSH2 0x130 JUMP JUMPDEST STOP JUMPDEST PUSH1 0x0 DUP1 PUSH1 0x0 ADD PUSH1 0x0 SWAP1 SLOAD SWAP1 PUSH2 0x100 EXP SWAP1 DIV PUSH1 0xFF AND SWAP1 DUP1 PUSH1 0x1 ADD SLOAD SWAP1 POP DUP3 JUMP JUMPDEST JUMP JUMPDEST JUMP JUMPDEST JUMP JUMPDEST PUSH1 0x0 DUP1 ADD PUSH1 0x0 SWAP1 SLOAD SWAP1 PUSH2 0x100 EXP SWAP1 DIV PUSH1 0xFF AND PUSH2 0x12E JUMPI PUSH1 0x40 MLOAD PUSH32 0x8C379A000000000000000000000000000000000000000000000000000000000 DUP2 MSTORE PUSH1 0x4 ADD PUSH2 0x125 SWAP1 PUSH2 0x212 JUMP JUMPDEST PUSH1 0x40 MLOAD DUP1 SWAP2 SUB SWAP1 REVERT JUMPDEST JUMP JUMPDEST JUMP JUMPDEST PUSH1 0x0 DUP2 ISZERO ISZERO SWAP1 POP SWAP2 SWAP1 POP JUMP JUMPDEST PUSH2 0x147 DUP2 PUSH2 0x132 JUMP JUMPDEST DUP3 MSTORE POP POP JUMP JUMPDEST PUSH1 0x0 DUP2 SWAP1 POP SWAP2 SWAP1 POP JUMP JUMPDEST PUSH2 0x160 DUP2 PUSH2 0x14D JUMP JUMPDEST DUP3 MSTORE POP POP JUMP JUMPDEST PUSH1 0x0 PUSH1 0x40 DUP3 ADD SWAP1 POP PUSH2 0x17B PUSH1 0x0 DUP4 ADD DUP6 PUSH2 0x13E JUMP JUMPDEST PUSH2 0x188 PUSH1 0x20 DUP4 ADD DUP5 PUSH2 0x157 JUMP JUMPDEST SWAP4 SWAP3 POP POP POP JUMP JUMPDEST PUSH1 0x0 DUP3 DUP3 MSTORE PUSH1 0x20 DUP3 ADD SWAP1 POP SWAP3 SWAP2 POP POP JUMP JUMPDEST PUSH32 0x46756E6420726169736572206973206E6F742063757272656E746C7920616374 PUSH1 0x0 DUP3 ADD MSTORE PUSH32 0x6976650000000000000000000000000000000000000000000000000000000000 PUSH1 0x20 DUP3 ADD MSTORE POP JUMP JUMPDEST PUSH1 0x0 PUSH2 0x1FC PUSH1 0x23 DUP4 PUSH2 0x18F JUMP JUMPDEST SWAP2 POP PUSH2 0x207 DUP3 PUSH2 0x1A0 JUMP JUMPDEST PUSH1 0x40 DUP3 ADD SWAP1 POP SWAP2 SWAP1 POP JUMP JUMPDEST PUSH1 0x0 PUSH1 0x20 DUP3 ADD SWAP1 POP DUP2 DUP2 SUB PUSH1 0x0 DUP4 ADD MSTORE PUSH2 0x22B DUP2 PUSH2 0x1EF JUMP JUMPDEST SWAP1 POP SWAP2 SWAP1 POP JUMP INVALID LOG2 PUSH5 0x6970667358 0x22 SLT KECCAK256 NOT NOT COINBASE 0x2A PUSH18 0xA11A8B7AE4440239D23985FD2AD8F350BC5A 0xF9 GT 0xAA 0xD9 0xDB NUMBER 0x2D 0xEE PUSH4 0x64736F6C PUSH4 0x43000808 STOP CALLER "
				},
				"gasEstimates": {
					"creation": {
						"codeDepositCost": "123200",
						"executionCost": "29537",
						"totalCost": "152737"
					},
					"external": {
						"endFundRaiser()": "188",
						"fund()": "2676",
						"fundRaiserStatus()": "4675",
						"startFundRaiser()": "232",
						"viewListOfFundings()": "166",
						"withdraw()": "144"
					}
				},
				"methodIdentifiers": {
					"endFundRaiser()": "82c9e836",
					"fund()": "b60d4288",
					"fundRaiserStatus()": "1dc19190",
					"startFundRaiser()": "c89d0deb",
					"viewListOfFundings()": "74143a6c",
					"withdraw()": "3ccfd60b"
				}
			},
			"storageLayout": {
				"storage": [
					{
						"astId": 13,
						"contract": "contracts/FundMe.sol:FundMe",
						"label": "fundRaiserStatus",
						"offset": 0,
						"slot": "0",
						"type": "t_struct(FundRaiserStatus)6_storage"
					}
				],
				"types": {
					"t_bool": {
						"encoding": "inplace",
						"label": "bool",
						"numberOfBytes": "1"
					},
					"t_struct(FundRaiserStatus)6_storage": {
						"encoding": "inplace",
						"label": "struct FundMe.FundRaiserStatus",
						"members": [
							{
								"astId": 3,
								"contract": "contracts/FundMe.sol:FundMe",
								"label": "active",
								"offset": 0,
								"slot": "0",
								"type": "t_bool"
							},
							{
								"astId": 5,
								"contract": "contracts/FundMe.sol:FundMe",
								"label": "minAmount",
								"offset": 0,
								"slot": "1",
								"type": "t_uint256"
							}
						],
						"numberOfBytes": "64"
					},
					"t_uint256": {
						"encoding": "inplace",
						"label": "uint256",
						"numberOfBytes": "32"
					}
				}
			},
			"userdoc": {
				"kind": "user",
				"methods": {},
				"version": 1
			}
		}
	}
}