{
	"contracts/FundMe.sol": {
		"FundMe": {
			"abi": [
				{
					"inputs": [
						{
							"internalType": "string",
							"name": "str1",
							"type": "string"
						},
						{
							"internalType": "string",
							"name": "str2",
							"type": "string"
						}
					],
					"name": "concatenateStrings",
					"outputs": [
						{
							"internalType": "string",
							"name": "",
							"type": "string"
						}
					],
					"stateMutability": "pure",
					"type": "function"
				},
				{
					"inputs": [],
					"name": "endFundRaiser",
					"outputs": [],
					"stateMutability": "nonpayable",
					"type": "function"
				},
				{
					"inputs": [],
					"name": "fund",
					"outputs": [],
					"stateMutability": "payable",
					"type": "function"
				},
				{
					"inputs": [],
					"name": "fundRaiserStatus",
					"outputs": [
						{
							"internalType": "bool",
							"name": "active",
							"type": "bool"
						},
						{
							"internalType": "uint256",
							"name": "minAmount",
							"type": "uint256"
						}
					],
					"stateMutability": "view",
					"type": "function"
				},
				{
					"inputs": [],
					"name": "startFundRaiser",
					"outputs": [],
					"stateMutability": "nonpayable",
					"type": "function"
				},
				{
					"inputs": [],
					"name": "viewListOfFundings",
					"outputs": [],
					"stateMutability": "nonpayable",
					"type": "function"
				},
				{
					"inputs": [],
					"name": "withdraw",
					"outputs": [],
					"stateMutability": "nonpayable",
					"type": "function"
				}
			],
			"devdoc": {
				"kind": "dev",
				"methods": {},
				"version": 1
			},
			"evm": {
				"assembly": "    /* \"contracts/FundMe.sol\":323:1435  contract FundMe {... */\n  mstore(0x40, 0x80)\n    /* \"contracts/FundMe.sol\":538:601  FundRaiserStatus({... */\n  mload(0x40)\n  dup1\n  0x40\n  add\n  0x40\n  mstore\n  dup1\n    /* \"contracts/FundMe.sol\":574:579  false */\n  0x00\n    /* \"contracts/FundMe.sol\":538:601  FundRaiserStatus({... */\n  iszero\n  iszero\n  dup2\n  mstore\n  0x20\n  add\n    /* \"contracts/FundMe.sol\":592:593  0 */\n  0x00\n    /* \"contracts/FundMe.sol\":538:601  FundRaiserStatus({... */\n  dup2\n  mstore\n  pop\n    /* \"contracts/FundMe.sol\":495:601  FundRaiserStatus public fundRaiserStatus = FundRaiserStatus({... */\n  0x00\n  dup1\n  dup3\n  add\n  mload\n  dup2\n  0x00\n  add\n  exp(0x0100, 0x00)\n  dup2\n  sload\n  dup2\n  0xff\n  mul\n  not\n  and\n  swap1\n  dup4\n  iszero\n  iszero\n  mul\n  or\n  swap1\n  sstore\n  pop\n  0x20\n  dup3\n  add\n  mload\n  dup2\n  0x01\n  add\n  sstore\n  pop\n  pop\n    /* \"contracts/FundMe.sol\":323:1435  contract FundMe {... */\n  callvalue\n  dup1\n  iszero\n  tag_1\n  jumpi\n  0x00\n  dup1\n  revert\ntag_1:\n  pop\n  dataSize(sub_0)\n  dup1\n  dataOffset(sub_0)\n  0x00\n  codecopy\n  0x00\n  return\nstop\n\nsub_0: assembly {\n        /* \"contracts/FundMe.sol\":323:1435  contract FundMe {... */\n      mstore(0x40, 0x80)\n      jumpi(tag_1, lt(calldatasize, 0x04))\n      shr(0xe0, calldataload(0x00))\n      dup1\n      0x7a36b3ee\n      gt\n      tag_9\n      jumpi\n      dup1\n      0x7a36b3ee\n      eq\n      tag_5\n      jumpi\n      dup1\n      0x82c9e836\n      eq\n      tag_6\n      jumpi\n      dup1\n      0xb60d4288\n      eq\n      tag_7\n      jumpi\n      dup1\n      0xc89d0deb\n      eq\n      tag_8\n      jumpi\n      jump(tag_1)\n    tag_9:\n      dup1\n      0x1dc19190\n      eq\n      tag_2\n      jumpi\n      dup1\n      0x3ccfd60b\n      eq\n      tag_3\n      jumpi\n      dup1\n      0x74143a6c\n      eq\n      tag_4\n      jumpi\n    tag_1:\n      0x00\n      dup1\n      revert\n        /* \"contracts/FundMe.sol\":495:601  FundRaiserStatus public fundRaiserStatus = FundRaiserStatus({... */\n    tag_2:\n      callvalue\n      dup1\n      iszero\n      tag_10\n      jumpi\n      0x00\n      dup1\n      revert\n    tag_10:\n      pop\n      tag_11\n      tag_12\n      jump\t// in\n    tag_11:\n      mload(0x40)\n      tag_13\n      swap3\n      swap2\n      swap1\n      tag_14\n      jump\t// in\n    tag_13:\n      mload(0x40)\n      dup1\n      swap2\n      sub\n      swap1\n      return\n        /* \"contracts/FundMe.sol\":987:1016  function withdraw() public {} */\n    tag_3:\n      callvalue\n      dup1\n      iszero\n      tag_15\n      jumpi\n      0x00\n      dup1\n      revert\n    tag_15:\n      pop\n      tag_16\n      tag_17\n      jump\t// in\n    tag_16:\n      stop\n        /* \"contracts/FundMe.sol\":1194:1233  function viewListOfFundings() public {} */\n    tag_4:\n      callvalue\n      dup1\n      iszero\n      tag_18\n      jumpi\n      0x00\n      dup1\n      revert\n    tag_18:\n      pop\n      tag_19\n      tag_20\n      jump\t// in\n    tag_19:\n      stop\n        /* \"contracts/FundMe.sol\":1267:1432  function concatenateStrings(string memory str1, string memory str2) public pure returns(string memory) {... */\n    tag_5:\n      callvalue\n      dup1\n      iszero\n      tag_21\n      jumpi\n      0x00\n      dup1\n      revert\n    tag_21:\n      pop\n      tag_22\n      0x04\n      dup1\n      calldatasize\n      sub\n      dup2\n      add\n      swap1\n      tag_23\n      swap2\n      swap1\n      tag_24\n      jump\t// in\n    tag_23:\n      tag_25\n      jump\t// in\n    tag_22:\n      mload(0x40)\n      tag_26\n      swap2\n      swap1\n      tag_27\n      jump\t// in\n    tag_26:\n      mload(0x40)\n      dup1\n      swap2\n      sub\n      swap1\n      return\n        /* \"contracts/FundMe.sol\":1122:1156  function endFundRaiser() public {} */\n    tag_6:\n      callvalue\n      dup1\n      iszero\n      tag_28\n      jumpi\n      0x00\n      dup1\n      revert\n    tag_28:\n      pop\n      tag_29\n      tag_30\n      jump\t// in\n    tag_29:\n      stop\n        /* \"contracts/FundMe.sol\":632:951  function fund() public payable {... */\n    tag_7:\n      tag_31\n      tag_32\n      jump\t// in\n    tag_31:\n      stop\n        /* \"contracts/FundMe.sol\":1054:1090  function startFundRaiser() public {} */\n    tag_8:\n      callvalue\n      dup1\n      iszero\n      tag_33\n      jumpi\n      0x00\n      dup1\n      revert\n    tag_33:\n      pop\n      tag_34\n      tag_35\n      jump\t// in\n    tag_34:\n      stop\n        /* \"contracts/FundMe.sol\":495:601  FundRaiserStatus public fundRaiserStatus = FundRaiserStatus({... */\n    tag_12:\n      0x00\n      dup1\n      0x00\n      add\n      0x00\n      swap1\n      sload\n      swap1\n      0x0100\n      exp\n      swap1\n      div\n      0xff\n      and\n      swap1\n      dup1\n      0x01\n      add\n      sload\n      swap1\n      pop\n      dup3\n      jump\t// out\n        /* \"contracts/FundMe.sol\":987:1016  function withdraw() public {} */\n    tag_17:\n      jump\t// out\n        /* \"contracts/FundMe.sol\":1194:1233  function viewListOfFundings() public {} */\n    tag_20:\n      jump\t// out\n        /* \"contracts/FundMe.sol\":1267:1432  function concatenateStrings(string memory str1, string memory str2) public pure returns(string memory) {... */\n    tag_25:\n        /* \"contracts/FundMe.sol\":1355:1368  string memory */\n      0x60\n        /* \"contracts/FundMe.sol\":1412:1416  str1 */\n      dup3\n        /* \"contracts/FundMe.sol\":1418:1422  str2 */\n      dup3\n        /* \"contracts/FundMe.sol\":1395:1423  abi.encodePacked(str1, str2) */\n      add(0x20, mload(0x40))\n      tag_39\n      swap3\n      swap2\n      swap1\n      tag_40\n      jump\t// in\n    tag_39:\n      mload(0x40)\n      0x20\n      dup2\n      dup4\n      sub\n      sub\n      dup2\n      mstore\n      swap1\n      0x40\n      mstore\n        /* \"contracts/FundMe.sol\":1381:1424  return string(abi.encodePacked(str1, str2)) */\n      swap1\n      pop\n        /* \"contracts/FundMe.sol\":1267:1432  function concatenateStrings(string memory str1, string memory str2) public pure returns(string memory) {... */\n      swap3\n      swap2\n      pop\n      pop\n      jump\t// out\n        /* \"contracts/FundMe.sol\":1122:1156  function endFundRaiser() public {} */\n    tag_30:\n      jump\t// out\n        /* \"contracts/FundMe.sol\":632:951  function fund() public payable {... */\n    tag_32:\n        /* \"contracts/FundMe.sol\":739:755  fundRaiserStatus */\n      0x00\n        /* \"contracts/FundMe.sol\":739:762  fundRaiserStatus.active */\n      dup1\n      add\n      0x00\n      swap1\n      sload\n      swap1\n      0x0100\n      exp\n      swap1\n      div\n      0xff\n      and\n        /* \"contracts/FundMe.sol\":731:802  require(fundRaiserStatus.active, \"Fund raiser is not currently active\") */\n      tag_43\n      jumpi\n      mload(0x40)\n      0x08c379a000000000000000000000000000000000000000000000000000000000\n      dup2\n      mstore\n      0x04\n      add\n      tag_44\n      swap1\n      tag_45\n      jump\t// in\n    tag_44:\n      mload(0x40)\n      dup1\n      swap2\n      sub\n      swap1\n      revert\n    tag_43:\n        /* \"contracts/FundMe.sol\":912:916  1e18 */\n      0x0de0b6b3a7640000\n        /* \"contracts/FundMe.sol\":900:909  msg.value */\n      callvalue\n        /* \"contracts/FundMe.sol\":900:916  msg.value > 1e18 */\n      gt\n        /* \"contracts/FundMe.sol\":892:940  require(msg.value > 1e18, \"Did not send enough\") */\n      tag_46\n      jumpi\n      mload(0x40)\n      0x08c379a000000000000000000000000000000000000000000000000000000000\n      dup2\n      mstore\n      0x04\n      add\n      tag_47\n      swap1\n      tag_48\n      jump\t// in\n    tag_47:\n      mload(0x40)\n      dup1\n      swap2\n      sub\n      swap1\n      revert\n    tag_46:\n        /* \"contracts/FundMe.sol\":632:951  function fund() public payable {... */\n      jump\t// out\n        /* \"contracts/FundMe.sol\":1054:1090  function startFundRaiser() public {} */\n    tag_35:\n      jump\t// out\n        /* \"#utility.yul\":7:97   */\n    tag_50:\n        /* \"#utility.yul\":41:48   */\n      0x00\n        /* \"#utility.yul\":84:89   */\n      dup2\n        /* \"#utility.yul\":77:90   */\n      iszero\n        /* \"#utility.yul\":70:91   */\n      iszero\n        /* \"#utility.yul\":59:91   */\n      swap1\n      pop\n        /* \"#utility.yul\":7:97   */\n      swap2\n      swap1\n      pop\n      jump\t// out\n        /* \"#utility.yul\":103:212   */\n    tag_51:\n        /* \"#utility.yul\":184:205   */\n      tag_80\n        /* \"#utility.yul\":199:204   */\n      dup2\n        /* \"#utility.yul\":184:205   */\n      tag_50\n      jump\t// in\n    tag_80:\n        /* \"#utility.yul\":179:182   */\n      dup3\n        /* \"#utility.yul\":172:206   */\n      mstore\n        /* \"#utility.yul\":103:212   */\n      pop\n      pop\n      jump\t// out\n        /* \"#utility.yul\":218:295   */\n    tag_52:\n        /* \"#utility.yul\":255:262   */\n      0x00\n        /* \"#utility.yul\":284:289   */\n      dup2\n        /* \"#utility.yul\":273:289   */\n      swap1\n      pop\n        /* \"#utility.yul\":218:295   */\n      swap2\n      swap1\n      pop\n      jump\t// out\n        /* \"#utility.yul\":301:419   */\n    tag_53:\n        /* \"#utility.yul\":388:412   */\n      tag_83\n        /* \"#utility.yul\":406:411   */\n      dup2\n        /* \"#utility.yul\":388:412   */\n      tag_52\n      jump\t// in\n    tag_83:\n        /* \"#utility.yul\":383:386   */\n      dup3\n        /* \"#utility.yul\":376:413   */\n      mstore\n        /* \"#utility.yul\":301:419   */\n      pop\n      pop\n      jump\t// out\n        /* \"#utility.yul\":425:745   */\n    tag_14:\n        /* \"#utility.yul\":540:544   */\n      0x00\n        /* \"#utility.yul\":578:580   */\n      0x40\n        /* \"#utility.yul\":567:576   */\n      dup3\n        /* \"#utility.yul\":563:581   */\n      add\n        /* \"#utility.yul\":555:581   */\n      swap1\n      pop\n        /* \"#utility.yul\":591:656   */\n      tag_85\n        /* \"#utility.yul\":653:654   */\n      0x00\n        /* \"#utility.yul\":642:651   */\n      dup4\n        /* \"#utility.yul\":638:655   */\n      add\n        /* \"#utility.yul\":629:635   */\n      dup6\n        /* \"#utility.yul\":591:656   */\n      tag_51\n      jump\t// in\n    tag_85:\n        /* \"#utility.yul\":666:738   */\n      tag_86\n        /* \"#utility.yul\":734:736   */\n      0x20\n        /* \"#utility.yul\":723:732   */\n      dup4\n        /* \"#utility.yul\":719:737   */\n      add\n        /* \"#utility.yul\":710:716   */\n      dup5\n        /* \"#utility.yul\":666:738   */\n      tag_53\n      jump\t// in\n    tag_86:\n        /* \"#utility.yul\":425:745   */\n      swap4\n      swap3\n      pop\n      pop\n      pop\n      jump\t// out\n        /* \"#utility.yul\":751:826   */\n    tag_54:\n        /* \"#utility.yul\":784:790   */\n      0x00\n        /* \"#utility.yul\":817:819   */\n      0x40\n        /* \"#utility.yul\":811:820   */\n      mload\n        /* \"#utility.yul\":801:820   */\n      swap1\n      pop\n        /* \"#utility.yul\":751:826   */\n      swap1\n      jump\t// out\n        /* \"#utility.yul\":832:949   */\n    tag_55:\n        /* \"#utility.yul\":941:942   */\n      0x00\n        /* \"#utility.yul\":938:939   */\n      dup1\n        /* \"#utility.yul\":931:943   */\n      revert\n        /* \"#utility.yul\":955:1072   */\n    tag_56:\n        /* \"#utility.yul\":1064:1065   */\n      0x00\n        /* \"#utility.yul\":1061:1062   */\n      dup1\n        /* \"#utility.yul\":1054:1066   */\n      revert\n        /* \"#utility.yul\":1078:1195   */\n    tag_57:\n        /* \"#utility.yul\":1187:1188   */\n      0x00\n        /* \"#utility.yul\":1184:1185   */\n      dup1\n        /* \"#utility.yul\":1177:1189   */\n      revert\n        /* \"#utility.yul\":1201:1318   */\n    tag_58:\n        /* \"#utility.yul\":1310:1311   */\n      0x00\n        /* \"#utility.yul\":1307:1308   */\n      dup1\n        /* \"#utility.yul\":1300:1312   */\n      revert\n        /* \"#utility.yul\":1324:1426   */\n    tag_59:\n        /* \"#utility.yul\":1365:1371   */\n      0x00\n        /* \"#utility.yul\":1416:1418   */\n      0x1f\n        /* \"#utility.yul\":1412:1419   */\n      not\n        /* \"#utility.yul\":1407:1409   */\n      0x1f\n        /* \"#utility.yul\":1400:1405   */\n      dup4\n        /* \"#utility.yul\":1396:1410   */\n      add\n        /* \"#utility.yul\":1392:1420   */\n      and\n        /* \"#utility.yul\":1382:1420   */\n      swap1\n      pop\n        /* \"#utility.yul\":1324:1426   */\n      swap2\n      swap1\n      pop\n      jump\t// out\n        /* \"#utility.yul\":1432:1612   */\n    tag_60:\n        /* \"#utility.yul\":1480:1557   */\n      0x4e487b7100000000000000000000000000000000000000000000000000000000\n        /* \"#utility.yul\":1477:1478   */\n      0x00\n        /* \"#utility.yul\":1470:1558   */\n      mstore\n        /* \"#utility.yul\":1577:1581   */\n      0x41\n        /* \"#utility.yul\":1574:1575   */\n      0x04\n        /* \"#utility.yul\":1567:1582   */\n      mstore\n        /* \"#utility.yul\":1601:1605   */\n      0x24\n        /* \"#utility.yul\":1598:1599   */\n      0x00\n        /* \"#utility.yul\":1591:1606   */\n      revert\n        /* \"#utility.yul\":1618:1899   */\n    tag_61:\n        /* \"#utility.yul\":1701:1728   */\n      tag_95\n        /* \"#utility.yul\":1723:1727   */\n      dup3\n        /* \"#utility.yul\":1701:1728   */\n      tag_59\n      jump\t// in\n    tag_95:\n        /* \"#utility.yul\":1693:1699   */\n      dup2\n        /* \"#utility.yul\":1689:1729   */\n      add\n        /* \"#utility.yul\":1831:1837   */\n      dup2\n        /* \"#utility.yul\":1819:1829   */\n      dup2\n        /* \"#utility.yul\":1816:1838   */\n      lt\n        /* \"#utility.yul\":1795:1813   */\n      0xffffffffffffffff\n        /* \"#utility.yul\":1783:1793   */\n      dup3\n        /* \"#utility.yul\":1780:1814   */\n      gt\n        /* \"#utility.yul\":1777:1839   */\n      or\n        /* \"#utility.yul\":1774:1862   */\n      iszero\n      tag_96\n      jumpi\n        /* \"#utility.yul\":1842:1860   */\n      tag_97\n      tag_60\n      jump\t// in\n    tag_97:\n        /* \"#utility.yul\":1774:1862   */\n    tag_96:\n        /* \"#utility.yul\":1882:1892   */\n      dup1\n        /* \"#utility.yul\":1878:1880   */\n      0x40\n        /* \"#utility.yul\":1871:1893   */\n      mstore\n        /* \"#utility.yul\":1661:1899   */\n      pop\n        /* \"#utility.yul\":1618:1899   */\n      pop\n      pop\n      jump\t// out\n        /* \"#utility.yul\":1905:2034   */\n    tag_62:\n        /* \"#utility.yul\":1939:1945   */\n      0x00\n        /* \"#utility.yul\":1966:1986   */\n      tag_99\n      tag_54\n      jump\t// in\n    tag_99:\n        /* \"#utility.yul\":1956:1986   */\n      swap1\n      pop\n        /* \"#utility.yul\":1995:2028   */\n      tag_100\n        /* \"#utility.yul\":2023:2027   */\n      dup3\n        /* \"#utility.yul\":2015:2021   */\n      dup3\n        /* \"#utility.yul\":1995:2028   */\n      tag_61\n      jump\t// in\n    tag_100:\n        /* \"#utility.yul\":1905:2034   */\n      swap2\n      swap1\n      pop\n      jump\t// out\n        /* \"#utility.yul\":2040:2348   */\n    tag_63:\n        /* \"#utility.yul\":2102:2106   */\n      0x00\n        /* \"#utility.yul\":2192:2210   */\n      0xffffffffffffffff\n        /* \"#utility.yul\":2184:2190   */\n      dup3\n        /* \"#utility.yul\":2181:2211   */\n      gt\n        /* \"#utility.yul\":2178:2234   */\n      iszero\n      tag_102\n      jumpi\n        /* \"#utility.yul\":2214:2232   */\n      tag_103\n      tag_60\n      jump\t// in\n    tag_103:\n        /* \"#utility.yul\":2178:2234   */\n    tag_102:\n        /* \"#utility.yul\":2252:2281   */\n      tag_104\n        /* \"#utility.yul\":2274:2280   */\n      dup3\n        /* \"#utility.yul\":2252:2281   */\n      tag_59\n      jump\t// in\n    tag_104:\n        /* \"#utility.yul\":2244:2281   */\n      swap1\n      pop\n        /* \"#utility.yul\":2336:2340   */\n      0x20\n        /* \"#utility.yul\":2330:2334   */\n      dup2\n        /* \"#utility.yul\":2326:2341   */\n      add\n        /* \"#utility.yul\":2318:2341   */\n      swap1\n      pop\n        /* \"#utility.yul\":2040:2348   */\n      swap2\n      swap1\n      pop\n      jump\t// out\n        /* \"#utility.yul\":2354:2508   */\n    tag_64:\n        /* \"#utility.yul\":2438:2444   */\n      dup3\n        /* \"#utility.yul\":2433:2436   */\n      dup2\n        /* \"#utility.yul\":2428:2431   */\n      dup4\n        /* \"#utility.yul\":2415:2445   */\n      calldatacopy\n        /* \"#utility.yul\":2500:2501   */\n      0x00\n        /* \"#utility.yul\":2491:2497   */\n      dup4\n        /* \"#utility.yul\":2486:2489   */\n      dup4\n        /* \"#utility.yul\":2482:2498   */\n      add\n        /* \"#utility.yul\":2475:2502   */\n      mstore\n        /* \"#utility.yul\":2354:2508   */\n      pop\n      pop\n      pop\n      jump\t// out\n        /* \"#utility.yul\":2514:2926   */\n    tag_65:\n        /* \"#utility.yul\":2592:2597   */\n      0x00\n        /* \"#utility.yul\":2617:2683   */\n      tag_107\n        /* \"#utility.yul\":2633:2682   */\n      tag_108\n        /* \"#utility.yul\":2675:2681   */\n      dup5\n        /* \"#utility.yul\":2633:2682   */\n      tag_63\n      jump\t// in\n    tag_108:\n        /* \"#utility.yul\":2617:2683   */\n      tag_62\n      jump\t// in\n    tag_107:\n        /* \"#utility.yul\":2608:2683   */\n      swap1\n      pop\n        /* \"#utility.yul\":2706:2712   */\n      dup3\n        /* \"#utility.yul\":2699:2704   */\n      dup2\n        /* \"#utility.yul\":2692:2713   */\n      mstore\n        /* \"#utility.yul\":2744:2748   */\n      0x20\n        /* \"#utility.yul\":2737:2742   */\n      dup2\n        /* \"#utility.yul\":2733:2749   */\n      add\n        /* \"#utility.yul\":2782:2785   */\n      dup5\n        /* \"#utility.yul\":2773:2779   */\n      dup5\n        /* \"#utility.yul\":2768:2771   */\n      dup5\n        /* \"#utility.yul\":2764:2780   */\n      add\n        /* \"#utility.yul\":2761:2786   */\n      gt\n        /* \"#utility.yul\":2758:2870   */\n      iszero\n      tag_109\n      jumpi\n        /* \"#utility.yul\":2789:2868   */\n      tag_110\n      tag_58\n      jump\t// in\n    tag_110:\n        /* \"#utility.yul\":2758:2870   */\n    tag_109:\n        /* \"#utility.yul\":2879:2920   */\n      tag_111\n        /* \"#utility.yul\":2913:2919   */\n      dup5\n        /* \"#utility.yul\":2908:2911   */\n      dup3\n        /* \"#utility.yul\":2903:2906   */\n      dup6\n        /* \"#utility.yul\":2879:2920   */\n      tag_64\n      jump\t// in\n    tag_111:\n        /* \"#utility.yul\":2598:2926   */\n      pop\n        /* \"#utility.yul\":2514:2926   */\n      swap4\n      swap3\n      pop\n      pop\n      pop\n      jump\t// out\n        /* \"#utility.yul\":2946:3286   */\n    tag_66:\n        /* \"#utility.yul\":3002:3007   */\n      0x00\n        /* \"#utility.yul\":3051:3054   */\n      dup3\n        /* \"#utility.yul\":3044:3048   */\n      0x1f\n        /* \"#utility.yul\":3036:3042   */\n      dup4\n        /* \"#utility.yul\":3032:3049   */\n      add\n        /* \"#utility.yul\":3028:3055   */\n      slt\n        /* \"#utility.yul\":3018:3140   */\n      tag_113\n      jumpi\n        /* \"#utility.yul\":3059:3138   */\n      tag_114\n      tag_57\n      jump\t// in\n    tag_114:\n        /* \"#utility.yul\":3018:3140   */\n    tag_113:\n        /* \"#utility.yul\":3176:3182   */\n      dup2\n        /* \"#utility.yul\":3163:3183   */\n      calldataload\n        /* \"#utility.yul\":3201:3280   */\n      tag_115\n        /* \"#utility.yul\":3276:3279   */\n      dup5\n        /* \"#utility.yul\":3268:3274   */\n      dup3\n        /* \"#utility.yul\":3261:3265   */\n      0x20\n        /* \"#utility.yul\":3253:3259   */\n      dup7\n        /* \"#utility.yul\":3249:3266   */\n      add\n        /* \"#utility.yul\":3201:3280   */\n      tag_65\n      jump\t// in\n    tag_115:\n        /* \"#utility.yul\":3192:3280   */\n      swap2\n      pop\n        /* \"#utility.yul\":3008:3286   */\n      pop\n        /* \"#utility.yul\":2946:3286   */\n      swap3\n      swap2\n      pop\n      pop\n      jump\t// out\n        /* \"#utility.yul\":3292:4126   */\n    tag_24:\n        /* \"#utility.yul\":3380:3386   */\n      0x00\n        /* \"#utility.yul\":3388:3394   */\n      dup1\n        /* \"#utility.yul\":3437:3439   */\n      0x40\n        /* \"#utility.yul\":3425:3434   */\n      dup4\n        /* \"#utility.yul\":3416:3423   */\n      dup6\n        /* \"#utility.yul\":3412:3435   */\n      sub\n        /* \"#utility.yul\":3408:3440   */\n      slt\n        /* \"#utility.yul\":3405:3524   */\n      iszero\n      tag_117\n      jumpi\n        /* \"#utility.yul\":3443:3522   */\n      tag_118\n      tag_55\n      jump\t// in\n    tag_118:\n        /* \"#utility.yul\":3405:3524   */\n    tag_117:\n        /* \"#utility.yul\":3591:3592   */\n      0x00\n        /* \"#utility.yul\":3580:3589   */\n      dup4\n        /* \"#utility.yul\":3576:3593   */\n      add\n        /* \"#utility.yul\":3563:3594   */\n      calldataload\n        /* \"#utility.yul\":3621:3639   */\n      0xffffffffffffffff\n        /* \"#utility.yul\":3613:3619   */\n      dup2\n        /* \"#utility.yul\":3610:3640   */\n      gt\n        /* \"#utility.yul\":3607:3724   */\n      iszero\n      tag_119\n      jumpi\n        /* \"#utility.yul\":3643:3722   */\n      tag_120\n      tag_56\n      jump\t// in\n    tag_120:\n        /* \"#utility.yul\":3607:3724   */\n    tag_119:\n        /* \"#utility.yul\":3748:3811   */\n      tag_121\n        /* \"#utility.yul\":3803:3810   */\n      dup6\n        /* \"#utility.yul\":3794:3800   */\n      dup3\n        /* \"#utility.yul\":3783:3792   */\n      dup7\n        /* \"#utility.yul\":3779:3801   */\n      add\n        /* \"#utility.yul\":3748:3811   */\n      tag_66\n      jump\t// in\n    tag_121:\n        /* \"#utility.yul\":3738:3811   */\n      swap3\n      pop\n        /* \"#utility.yul\":3534:3821   */\n      pop\n        /* \"#utility.yul\":3888:3890   */\n      0x20\n        /* \"#utility.yul\":3877:3886   */\n      dup4\n        /* \"#utility.yul\":3873:3891   */\n      add\n        /* \"#utility.yul\":3860:3892   */\n      calldataload\n        /* \"#utility.yul\":3919:3937   */\n      0xffffffffffffffff\n        /* \"#utility.yul\":3911:3917   */\n      dup2\n        /* \"#utility.yul\":3908:3938   */\n      gt\n        /* \"#utility.yul\":3905:4022   */\n      iszero\n      tag_122\n      jumpi\n        /* \"#utility.yul\":3941:4020   */\n      tag_123\n      tag_56\n      jump\t// in\n    tag_123:\n        /* \"#utility.yul\":3905:4022   */\n    tag_122:\n        /* \"#utility.yul\":4046:4109   */\n      tag_124\n        /* \"#utility.yul\":4101:4108   */\n      dup6\n        /* \"#utility.yul\":4092:4098   */\n      dup3\n        /* \"#utility.yul\":4081:4090   */\n      dup7\n        /* \"#utility.yul\":4077:4099   */\n      add\n        /* \"#utility.yul\":4046:4109   */\n      tag_66\n      jump\t// in\n    tag_124:\n        /* \"#utility.yul\":4036:4109   */\n      swap2\n      pop\n        /* \"#utility.yul\":3831:4119   */\n      pop\n        /* \"#utility.yul\":3292:4126   */\n      swap3\n      pop\n      swap3\n      swap1\n      pop\n      jump\t// out\n        /* \"#utility.yul\":4132:4231   */\n    tag_67:\n        /* \"#utility.yul\":4184:4190   */\n      0x00\n        /* \"#utility.yul\":4218:4223   */\n      dup2\n        /* \"#utility.yul\":4212:4224   */\n      mload\n        /* \"#utility.yul\":4202:4224   */\n      swap1\n      pop\n        /* \"#utility.yul\":4132:4231   */\n      swap2\n      swap1\n      pop\n      jump\t// out\n        /* \"#utility.yul\":4237:4406   */\n    tag_68:\n        /* \"#utility.yul\":4321:4332   */\n      0x00\n        /* \"#utility.yul\":4355:4361   */\n      dup3\n        /* \"#utility.yul\":4350:4353   */\n      dup3\n        /* \"#utility.yul\":4343:4362   */\n      mstore\n        /* \"#utility.yul\":4395:4399   */\n      0x20\n        /* \"#utility.yul\":4390:4393   */\n      dup3\n        /* \"#utility.yul\":4386:4400   */\n      add\n        /* \"#utility.yul\":4371:4400   */\n      swap1\n      pop\n        /* \"#utility.yul\":4237:4406   */\n      swap3\n      swap2\n      pop\n      pop\n      jump\t// out\n        /* \"#utility.yul\":4412:4719   */\n    tag_69:\n        /* \"#utility.yul\":4480:4481   */\n      0x00\n        /* \"#utility.yul\":4490:4603   */\n    tag_128:\n        /* \"#utility.yul\":4504:4510   */\n      dup4\n        /* \"#utility.yul\":4501:4502   */\n      dup2\n        /* \"#utility.yul\":4498:4511   */\n      lt\n        /* \"#utility.yul\":4490:4603   */\n      iszero\n      tag_130\n      jumpi\n        /* \"#utility.yul\":4589:4590   */\n      dup1\n        /* \"#utility.yul\":4584:4587   */\n      dup3\n        /* \"#utility.yul\":4580:4591   */\n      add\n        /* \"#utility.yul\":4574:4592   */\n      mload\n        /* \"#utility.yul\":4570:4571   */\n      dup2\n        /* \"#utility.yul\":4565:4568   */\n      dup5\n        /* \"#utility.yul\":4561:4572   */\n      add\n        /* \"#utility.yul\":4554:4593   */\n      mstore\n        /* \"#utility.yul\":4526:4528   */\n      0x20\n        /* \"#utility.yul\":4523:4524   */\n      dup2\n        /* \"#utility.yul\":4519:4529   */\n      add\n        /* \"#utility.yul\":4514:4529   */\n      swap1\n      pop\n        /* \"#utility.yul\":4490:4603   */\n      jump(tag_128)\n    tag_130:\n        /* \"#utility.yul\":4621:4627   */\n      dup4\n        /* \"#utility.yul\":4618:4619   */\n      dup2\n        /* \"#utility.yul\":4615:4628   */\n      gt\n        /* \"#utility.yul\":4612:4713   */\n      iszero\n      tag_131\n      jumpi\n        /* \"#utility.yul\":4701:4702   */\n      0x00\n        /* \"#utility.yul\":4692:4698   */\n      dup5\n        /* \"#utility.yul\":4687:4690   */\n      dup5\n        /* \"#utility.yul\":4683:4699   */\n      add\n        /* \"#utility.yul\":4676:4703   */\n      mstore\n        /* \"#utility.yul\":4612:4713   */\n    tag_131:\n        /* \"#utility.yul\":4461:4719   */\n      pop\n        /* \"#utility.yul\":4412:4719   */\n      pop\n      pop\n      pop\n      jump\t// out\n        /* \"#utility.yul\":4725:5089   */\n    tag_70:\n        /* \"#utility.yul\":4813:4816   */\n      0x00\n        /* \"#utility.yul\":4841:4880   */\n      tag_133\n        /* \"#utility.yul\":4874:4879   */\n      dup3\n        /* \"#utility.yul\":4841:4880   */\n      tag_67\n      jump\t// in\n    tag_133:\n        /* \"#utility.yul\":4896:4967   */\n      tag_134\n        /* \"#utility.yul\":4960:4966   */\n      dup2\n        /* \"#utility.yul\":4955:4958   */\n      dup6\n        /* \"#utility.yul\":4896:4967   */\n      tag_68\n      jump\t// in\n    tag_134:\n        /* \"#utility.yul\":4889:4967   */\n      swap4\n      pop\n        /* \"#utility.yul\":4976:5028   */\n      tag_135\n        /* \"#utility.yul\":5021:5027   */\n      dup2\n        /* \"#utility.yul\":5016:5019   */\n      dup6\n        /* \"#utility.yul\":5009:5013   */\n      0x20\n        /* \"#utility.yul\":5002:5007   */\n      dup7\n        /* \"#utility.yul\":4998:5014   */\n      add\n        /* \"#utility.yul\":4976:5028   */\n      tag_69\n      jump\t// in\n    tag_135:\n        /* \"#utility.yul\":5053:5082   */\n      tag_136\n        /* \"#utility.yul\":5075:5081   */\n      dup2\n        /* \"#utility.yul\":5053:5082   */\n      tag_59\n      jump\t// in\n    tag_136:\n        /* \"#utility.yul\":5048:5051   */\n      dup5\n        /* \"#utility.yul\":5044:5083   */\n      add\n        /* \"#utility.yul\":5037:5083   */\n      swap2\n      pop\n        /* \"#utility.yul\":4817:5089   */\n      pop\n        /* \"#utility.yul\":4725:5089   */\n      swap3\n      swap2\n      pop\n      pop\n      jump\t// out\n        /* \"#utility.yul\":5095:5408   */\n    tag_27:\n        /* \"#utility.yul\":5208:5212   */\n      0x00\n        /* \"#utility.yul\":5246:5248   */\n      0x20\n        /* \"#utility.yul\":5235:5244   */\n      dup3\n        /* \"#utility.yul\":5231:5249   */\n      add\n        /* \"#utility.yul\":5223:5249   */\n      swap1\n      pop\n        /* \"#utility.yul\":5295:5304   */\n      dup2\n        /* \"#utility.yul\":5289:5293   */\n      dup2\n        /* \"#utility.yul\":5285:5305   */\n      sub\n        /* \"#utility.yul\":5281:5282   */\n      0x00\n        /* \"#utility.yul\":5270:5279   */\n      dup4\n        /* \"#utility.yul\":5266:5283   */\n      add\n        /* \"#utility.yul\":5259:5306   */\n      mstore\n        /* \"#utility.yul\":5323:5401   */\n      tag_138\n        /* \"#utility.yul\":5396:5400   */\n      dup2\n        /* \"#utility.yul\":5387:5393   */\n      dup5\n        /* \"#utility.yul\":5323:5401   */\n      tag_70\n      jump\t// in\n    tag_138:\n        /* \"#utility.yul\":5315:5401   */\n      swap1\n      pop\n        /* \"#utility.yul\":5095:5408   */\n      swap3\n      swap2\n      pop\n      pop\n      jump\t// out\n        /* \"#utility.yul\":5414:5562   */\n    tag_71:\n        /* \"#utility.yul\":5516:5527   */\n      0x00\n        /* \"#utility.yul\":5553:5556   */\n      dup2\n        /* \"#utility.yul\":5538:5556   */\n      swap1\n      pop\n        /* \"#utility.yul\":5414:5562   */\n      swap3\n      swap2\n      pop\n      pop\n      jump\t// out\n        /* \"#utility.yul\":5568:5945   */\n    tag_72:\n        /* \"#utility.yul\":5674:5677   */\n      0x00\n        /* \"#utility.yul\":5702:5741   */\n      tag_141\n        /* \"#utility.yul\":5735:5740   */\n      dup3\n        /* \"#utility.yul\":5702:5741   */\n      tag_67\n      jump\t// in\n    tag_141:\n        /* \"#utility.yul\":5757:5846   */\n      tag_142\n        /* \"#utility.yul\":5839:5845   */\n      dup2\n        /* \"#utility.yul\":5834:5837   */\n      dup6\n        /* \"#utility.yul\":5757:5846   */\n      tag_71\n      jump\t// in\n    tag_142:\n        /* \"#utility.yul\":5750:5846   */\n      swap4\n      pop\n        /* \"#utility.yul\":5855:5907   */\n      tag_143\n        /* \"#utility.yul\":5900:5906   */\n      dup2\n        /* \"#utility.yul\":5895:5898   */\n      dup6\n        /* \"#utility.yul\":5888:5892   */\n      0x20\n        /* \"#utility.yul\":5881:5886   */\n      dup7\n        /* \"#utility.yul\":5877:5893   */\n      add\n        /* \"#utility.yul\":5855:5907   */\n      tag_69\n      jump\t// in\n    tag_143:\n        /* \"#utility.yul\":5932:5938   */\n      dup1\n        /* \"#utility.yul\":5927:5930   */\n      dup5\n        /* \"#utility.yul\":5923:5939   */\n      add\n        /* \"#utility.yul\":5916:5939   */\n      swap2\n      pop\n        /* \"#utility.yul\":5678:5945   */\n      pop\n        /* \"#utility.yul\":5568:5945   */\n      swap3\n      swap2\n      pop\n      pop\n      jump\t// out\n        /* \"#utility.yul\":5951:6386   */\n    tag_40:\n        /* \"#utility.yul\":6131:6134   */\n      0x00\n        /* \"#utility.yul\":6153:6248   */\n      tag_145\n        /* \"#utility.yul\":6244:6247   */\n      dup3\n        /* \"#utility.yul\":6235:6241   */\n      dup6\n        /* \"#utility.yul\":6153:6248   */\n      tag_72\n      jump\t// in\n    tag_145:\n        /* \"#utility.yul\":6146:6248   */\n      swap2\n      pop\n        /* \"#utility.yul\":6265:6360   */\n      tag_146\n        /* \"#utility.yul\":6356:6359   */\n      dup3\n        /* \"#utility.yul\":6347:6353   */\n      dup5\n        /* \"#utility.yul\":6265:6360   */\n      tag_72\n      jump\t// in\n    tag_146:\n        /* \"#utility.yul\":6258:6360   */\n      swap2\n      pop\n        /* \"#utility.yul\":6377:6380   */\n      dup2\n        /* \"#utility.yul\":6370:6380   */\n      swap1\n      pop\n        /* \"#utility.yul\":5951:6386   */\n      swap4\n      swap3\n      pop\n      pop\n      pop\n      jump\t// out\n        /* \"#utility.yul\":6392:6614   */\n    tag_73:\n        /* \"#utility.yul\":6532:6566   */\n      0x46756e6420726169736572206973206e6f742063757272656e746c7920616374\n        /* \"#utility.yul\":6528:6529   */\n      0x00\n        /* \"#utility.yul\":6520:6526   */\n      dup3\n        /* \"#utility.yul\":6516:6530   */\n      add\n        /* \"#utility.yul\":6509:6567   */\n      mstore\n        /* \"#utility.yul\":6601:6606   */\n      0x6976650000000000000000000000000000000000000000000000000000000000\n        /* \"#utility.yul\":6596:6598   */\n      0x20\n        /* \"#utility.yul\":6588:6594   */\n      dup3\n        /* \"#utility.yul\":6584:6599   */\n      add\n        /* \"#utility.yul\":6577:6607   */\n      mstore\n        /* \"#utility.yul\":6392:6614   */\n      pop\n      jump\t// out\n        /* \"#utility.yul\":6620:6986   */\n    tag_74:\n        /* \"#utility.yul\":6762:6765   */\n      0x00\n        /* \"#utility.yul\":6783:6850   */\n      tag_149\n        /* \"#utility.yul\":6847:6849   */\n      0x23\n        /* \"#utility.yul\":6842:6845   */\n      dup4\n        /* \"#utility.yul\":6783:6850   */\n      tag_68\n      jump\t// in\n    tag_149:\n        /* \"#utility.yul\":6776:6850   */\n      swap2\n      pop\n        /* \"#utility.yul\":6859:6952   */\n      tag_150\n        /* \"#utility.yul\":6948:6951   */\n      dup3\n        /* \"#utility.yul\":6859:6952   */\n      tag_73\n      jump\t// in\n    tag_150:\n        /* \"#utility.yul\":6977:6979   */\n      0x40\n        /* \"#utility.yul\":6972:6975   */\n      dup3\n        /* \"#utility.yul\":6968:6980   */\n      add\n        /* \"#utility.yul\":6961:6980   */\n      swap1\n      pop\n        /* \"#utility.yul\":6620:6986   */\n      swap2\n      swap1\n      pop\n      jump\t// out\n        /* \"#utility.yul\":6992:7411   */\n    tag_45:\n        /* \"#utility.yul\":7158:7162   */\n      0x00\n        /* \"#utility.yul\":7196:7198   */\n      0x20\n        /* \"#utility.yul\":7185:7194   */\n      dup3\n        /* \"#utility.yul\":7181:7199   */\n      add\n        /* \"#utility.yul\":7173:7199   */\n      swap1\n      pop\n        /* \"#utility.yul\":7245:7254   */\n      dup2\n        /* \"#utility.yul\":7239:7243   */\n      dup2\n        /* \"#utility.yul\":7235:7255   */\n      sub\n        /* \"#utility.yul\":7231:7232   */\n      0x00\n        /* \"#utility.yul\":7220:7229   */\n      dup4\n        /* \"#utility.yul\":7216:7233   */\n      add\n        /* \"#utility.yul\":7209:7256   */\n      mstore\n        /* \"#utility.yul\":7273:7404   */\n      tag_152\n        /* \"#utility.yul\":7399:7403   */\n      dup2\n        /* \"#utility.yul\":7273:7404   */\n      tag_74\n      jump\t// in\n    tag_152:\n        /* \"#utility.yul\":7265:7404   */\n      swap1\n      pop\n        /* \"#utility.yul\":6992:7411   */\n      swap2\n      swap1\n      pop\n      jump\t// out\n        /* \"#utility.yul\":7417:7586   */\n    tag_75:\n        /* \"#utility.yul\":7557:7578   */\n      0x446964206e6f742073656e6420656e6f75676800000000000000000000000000\n        /* \"#utility.yul\":7553:7554   */\n      0x00\n        /* \"#utility.yul\":7545:7551   */\n      dup3\n        /* \"#utility.yul\":7541:7555   */\n      add\n        /* \"#utility.yul\":7534:7579   */\n      mstore\n        /* \"#utility.yul\":7417:7586   */\n      pop\n      jump\t// out\n        /* \"#utility.yul\":7592:7958   */\n    tag_76:\n        /* \"#utility.yul\":7734:7737   */\n      0x00\n        /* \"#utility.yul\":7755:7822   */\n      tag_155\n        /* \"#utility.yul\":7819:7821   */\n      0x13\n        /* \"#utility.yul\":7814:7817   */\n      dup4\n        /* \"#utility.yul\":7755:7822   */\n      tag_68\n      jump\t// in\n    tag_155:\n        /* \"#utility.yul\":7748:7822   */\n      swap2\n      pop\n        /* \"#utility.yul\":7831:7924   */\n      tag_156\n        /* \"#utility.yul\":7920:7923   */\n      dup3\n        /* \"#utility.yul\":7831:7924   */\n      tag_75\n      jump\t// in\n    tag_156:\n        /* \"#utility.yul\":7949:7951   */\n      0x20\n        /* \"#utility.yul\":7944:7947   */\n      dup3\n        /* \"#utility.yul\":7940:7952   */\n      add\n        /* \"#utility.yul\":7933:7952   */\n      swap1\n      pop\n        /* \"#utility.yul\":7592:7958   */\n      swap2\n      swap1\n      pop\n      jump\t// out\n        /* \"#utility.yul\":7964:8383   */\n    tag_48:\n        /* \"#utility.yul\":8130:8134   */\n      0x00\n        /* \"#utility.yul\":8168:8170   */\n      0x20\n        /* \"#utility.yul\":8157:8166   */\n      dup3\n        /* \"#utility.yul\":8153:8171   */\n      add\n        /* \"#utility.yul\":8145:8171   */\n      swap1\n      pop\n        /* \"#utility.yul\":8217:8226   */\n      dup2\n        /* \"#utility.yul\":8211:8215   */\n      dup2\n        /* \"#utility.yul\":8207:8227   */\n      sub\n        /* \"#utility.yul\":8203:8204   */\n      0x00\n        /* \"#utility.yul\":8192:8201   */\n      dup4\n        /* \"#utility.yul\":8188:8205   */\n      add\n        /* \"#utility.yul\":8181:8228   */\n      mstore\n        /* \"#utility.yul\":8245:8376   */\n      tag_158\n        /* \"#utility.yul\":8371:8375   */\n      dup2\n        /* \"#utility.yul\":8245:8376   */\n      tag_76\n      jump\t// in\n    tag_158:\n        /* \"#utility.yul\":8237:8376   */\n      swap1\n      pop\n        /* \"#utility.yul\":7964:8383   */\n      swap2\n      swap1\n      pop\n      jump\t// out\n\n    auxdata: 0xa2646970667358221220802caa4ce9333308496564951827a3cb01e2973c7bd18cc54fa19bcfc180f48c64736f6c63430008080033\n}\n",
				"bytecode": {
					"linkReferences": {},
					"object": "6080604052604051806040016040528060001515815260200160008152506000808201518160000160006101000a81548160ff02191690831515021790555060208201518160010155505034801561005657600080fd5b506106a1806100666000396000f3fe6080604052600436106100705760003560e01c80637a36b3ee1161004e5780637a36b3ee146100cf57806382c9e8361461010c578063b60d428814610123578063c89d0deb1461012d57610070565b80631dc19190146100755780633ccfd60b146100a157806374143a6c146100b8575b600080fd5b34801561008157600080fd5b5061008a610144565b604051610098929190610268565b60405180910390f35b3480156100ad57600080fd5b506100b6610163565b005b3480156100c457600080fd5b506100cd610165565b005b3480156100db57600080fd5b506100f660048036038101906100f191906103eb565b610167565b60405161010391906104eb565b60405180910390f35b34801561011857600080fd5b50610121610193565b005b61012b610195565b005b34801561013957600080fd5b50610142610232565b005b60008060000160009054906101000a900460ff16908060010154905082565b565b565b6060828260405160200161017c929190610549565b604051602081830303815290604052905092915050565b565b6000800160009054906101000a900460ff166101e6576040517f08c379a00000000000000000000000000000000000000000000000000000000081526004016101dd906105df565b60405180910390fd5b670de0b6b3a76400003411610230576040517f08c379a00000000000000000000000000000000000000000000000000000000081526004016102279061064b565b60405180910390fd5b565b565b60008115159050919050565b61024981610234565b82525050565b6000819050919050565b6102628161024f565b82525050565b600060408201905061027d6000830185610240565b61028a6020830184610259565b9392505050565b6000604051905090565b600080fd5b600080fd5b600080fd5b600080fd5b6000601f19601f8301169050919050565b7f4e487b7100000000000000000000000000000000000000000000000000000000600052604160045260246000fd5b6102f8826102af565b810181811067ffffffffffffffff82111715610317576103166102c0565b5b80604052505050565b600061032a610291565b905061033682826102ef565b919050565b600067ffffffffffffffff821115610356576103556102c0565b5b61035f826102af565b9050602081019050919050565b82818337600083830152505050565b600061038e6103898461033b565b610320565b9050828152602081018484840111156103aa576103a96102aa565b5b6103b584828561036c565b509392505050565b600082601f8301126103d2576103d16102a5565b5b81356103e284826020860161037b565b91505092915050565b600080604083850312156104025761040161029b565b5b600083013567ffffffffffffffff8111156104205761041f6102a0565b5b61042c858286016103bd565b925050602083013567ffffffffffffffff81111561044d5761044c6102a0565b5b610459858286016103bd565b9150509250929050565b600081519050919050565b600082825260208201905092915050565b60005b8381101561049d578082015181840152602081019050610482565b838111156104ac576000848401525b50505050565b60006104bd82610463565b6104c7818561046e565b93506104d781856020860161047f565b6104e0816102af565b840191505092915050565b6000602082019050818103600083015261050581846104b2565b905092915050565b600081905092915050565b600061052382610463565b61052d818561050d565b935061053d81856020860161047f565b80840191505092915050565b60006105558285610518565b91506105618284610518565b91508190509392505050565b7f46756e6420726169736572206973206e6f742063757272656e746c792061637460008201527f6976650000000000000000000000000000000000000000000000000000000000602082015250565b60006105c960238361046e565b91506105d48261056d565b604082019050919050565b600060208201905081810360008301526105f8816105bc565b9050919050565b7f446964206e6f742073656e6420656e6f75676800000000000000000000000000600082015250565b600061063560138361046e565b9150610640826105ff565b602082019050919050565b6000602082019050818103600083015261066481610628565b905091905056fea2646970667358221220802caa4ce9333308496564951827a3cb01e2973c7bd18cc54fa19bcfc180f48c64736f6c63430008080033",
					"opcodes": "PUSH1 0x80 PUSH1 0x40 MSTORE PUSH1 0x40 MLOAD DUP1 PUSH1 0x40 ADD PUSH1 0x40 MSTORE DUP1 PUSH1 0x0 ISZERO ISZERO DUP2 MSTORE PUSH1 0x20 ADD PUSH1 0x0 DUP2 MSTORE POP PUSH1 0x0 DUP1 DUP3 ADD MLOAD DUP2 PUSH1 0x0 ADD PUSH1 0x0 PUSH2 0x100 EXP DUP2 SLOAD DUP2 PUSH1 0xFF MUL NOT AND SWAP1 DUP4 ISZERO ISZERO MUL OR SWAP1 SSTORE POP PUSH1 0x20 DUP3 ADD MLOAD DUP2 PUSH1 0x1 ADD SSTORE POP POP CALLVALUE DUP1 ISZERO PUSH2 0x56 JUMPI PUSH1 0x0 DUP1 REVERT JUMPDEST POP PUSH2 0x6A1 DUP1 PUSH2 0x66 PUSH1 0x0 CODECOPY PUSH1 0x0 RETURN INVALID PUSH1 0x80 PUSH1 0x40 MSTORE PUSH1 0x4 CALLDATASIZE LT PUSH2 0x70 JUMPI PUSH1 0x0 CALLDATALOAD PUSH1 0xE0 SHR DUP1 PUSH4 0x7A36B3EE GT PUSH2 0x4E JUMPI DUP1 PUSH4 0x7A36B3EE EQ PUSH2 0xCF JUMPI DUP1 PUSH4 0x82C9E836 EQ PUSH2 0x10C JUMPI DUP1 PUSH4 0xB60D4288 EQ PUSH2 0x123 JUMPI DUP1 PUSH4 0xC89D0DEB EQ PUSH2 0x12D JUMPI PUSH2 0x70 JUMP JUMPDEST DUP1 PUSH4 0x1DC19190 EQ PUSH2 0x75 JUMPI DUP1 PUSH4 0x3CCFD60B EQ PUSH2 0xA1 JUMPI DUP1 PUSH4 0x74143A6C EQ PUSH2 0xB8 JUMPI JUMPDEST PUSH1 0x0 DUP1 REVERT JUMPDEST CALLVALUE DUP1 ISZERO PUSH2 0x81 JUMPI PUSH1 0x0 DUP1 REVERT JUMPDEST POP PUSH2 0x8A PUSH2 0x144 JUMP JUMPDEST PUSH1 0x40 MLOAD PUSH2 0x98 SWAP3 SWAP2 SWAP1 PUSH2 0x268 JUMP JUMPDEST PUSH1 0x40 MLOAD DUP1 SWAP2 SUB SWAP1 RETURN JUMPDEST CALLVALUE DUP1 ISZERO PUSH2 0xAD JUMPI PUSH1 0x0 DUP1 REVERT JUMPDEST POP PUSH2 0xB6 PUSH2 0x163 JUMP JUMPDEST STOP JUMPDEST CALLVALUE DUP1 ISZERO PUSH2 0xC4 JUMPI PUSH1 0x0 DUP1 REVERT JUMPDEST POP PUSH2 0xCD PUSH2 0x165 JUMP JUMPDEST STOP JUMPDEST CALLVALUE DUP1 ISZERO PUSH2 0xDB JUMPI PUSH1 0x0 DUP1 REVERT JUMPDEST POP PUSH2 0xF6 PUSH1 0x4 DUP1 CALLDATASIZE SUB DUP2 ADD SWAP1 PUSH2 0xF1 SWAP2 SWAP1 PUSH2 0x3EB JUMP JUMPDEST PUSH2 0x167 JUMP JUMPDEST PUSH1 0x40 MLOAD PUSH2 0x103 SWAP2 SWAP1 PUSH2 0x4EB JUMP JUMPDEST PUSH1 0x40 MLOAD DUP1 SWAP2 SUB SWAP1 RETURN JUMPDEST CALLVALUE DUP1 ISZERO PUSH2 0x118 JUMPI PUSH1 0x0 DUP1 REVERT JUMPDEST POP PUSH2 0x121 PUSH2 0x193 JUMP JUMPDEST STOP JUMPDEST PUSH2 0x12B PUSH2 0x195 JUMP JUMPDEST STOP JUMPDEST CALLVALUE DUP1 ISZERO PUSH2 0x139 JUMPI PUSH1 0x0 DUP1 REVERT JUMPDEST POP PUSH2 0x142 PUSH2 0x232 JUMP JUMPDEST STOP JUMPDEST PUSH1 0x0 DUP1 PUSH1 0x0 ADD PUSH1 0x0 SWAP1 SLOAD SWAP1 PUSH2 0x100 EXP SWAP1 DIV PUSH1 0xFF AND SWAP1 DUP1 PUSH1 0x1 ADD SLOAD SWAP1 POP DUP3 JUMP JUMPDEST JUMP JUMPDEST JUMP JUMPDEST PUSH1 0x60 DUP3 DUP3 PUSH1 0x40 MLOAD PUSH1 0x20 ADD PUSH2 0x17C SWAP3 SWAP2 SWAP1 PUSH2 0x549 JUMP JUMPDEST PUSH1 0x40 MLOAD PUSH1 0x20 DUP2 DUP4 SUB SUB DUP2 MSTORE SWAP1 PUSH1 0x40 MSTORE SWAP1 POP SWAP3 SWAP2 POP POP JUMP JUMPDEST JUMP JUMPDEST PUSH1 0x0 DUP1 ADD PUSH1 0x0 SWAP1 SLOAD SWAP1 PUSH2 0x100 EXP SWAP1 DIV PUSH1 0xFF AND PUSH2 0x1E6 JUMPI PUSH1 0x40 MLOAD PUSH32 0x8C379A000000000000000000000000000000000000000000000000000000000 DUP2 MSTORE PUSH1 0x4 ADD PUSH2 0x1DD SWAP1 PUSH2 0x5DF JUMP JUMPDEST PUSH1 0x40 MLOAD DUP1 SWAP2 SUB SWAP1 REVERT JUMPDEST PUSH8 0xDE0B6B3A7640000 CALLVALUE GT PUSH2 0x230 JUMPI PUSH1 0x40 MLOAD PUSH32 0x8C379A000000000000000000000000000000000000000000000000000000000 DUP2 MSTORE PUSH1 0x4 ADD PUSH2 0x227 SWAP1 PUSH2 0x64B JUMP JUMPDEST PUSH1 0x40 MLOAD DUP1 SWAP2 SUB SWAP1 REVERT JUMPDEST JUMP JUMPDEST JUMP JUMPDEST PUSH1 0x0 DUP2 ISZERO ISZERO SWAP1 POP SWAP2 SWAP1 POP JUMP JUMPDEST PUSH2 0x249 DUP2 PUSH2 0x234 JUMP JUMPDEST DUP3 MSTORE POP POP JUMP JUMPDEST PUSH1 0x0 DUP2 SWAP1 POP SWAP2 SWAP1 POP JUMP JUMPDEST PUSH2 0x262 DUP2 PUSH2 0x24F JUMP JUMPDEST DUP3 MSTORE POP POP JUMP JUMPDEST PUSH1 0x0 PUSH1 0x40 DUP3 ADD SWAP1 POP PUSH2 0x27D PUSH1 0x0 DUP4 ADD DUP6 PUSH2 0x240 JUMP JUMPDEST PUSH2 0x28A PUSH1 0x20 DUP4 ADD DUP5 PUSH2 0x259 JUMP JUMPDEST SWAP4 SWAP3 POP POP POP JUMP JUMPDEST PUSH1 0x0 PUSH1 0x40 MLOAD SWAP1 POP SWAP1 JUMP JUMPDEST PUSH1 0x0 DUP1 REVERT JUMPDEST PUSH1 0x0 DUP1 REVERT JUMPDEST PUSH1 0x0 DUP1 REVERT JUMPDEST PUSH1 0x0 DUP1 REVERT JUMPDEST PUSH1 0x0 PUSH1 0x1F NOT PUSH1 0x1F DUP4 ADD AND SWAP1 POP SWAP2 SWAP1 POP JUMP JUMPDEST PUSH32 0x4E487B7100000000000000000000000000000000000000000000000000000000 PUSH1 0x0 MSTORE PUSH1 0x41 PUSH1 0x4 MSTORE PUSH1 0x24 PUSH1 0x0 REVERT JUMPDEST PUSH2 0x2F8 DUP3 PUSH2 0x2AF JUMP JUMPDEST DUP2 ADD DUP2 DUP2 LT PUSH8 0xFFFFFFFFFFFFFFFF DUP3 GT OR ISZERO PUSH2 0x317 JUMPI PUSH2 0x316 PUSH2 0x2C0 JUMP JUMPDEST JUMPDEST DUP1 PUSH1 0x40 MSTORE POP POP POP JUMP JUMPDEST PUSH1 0x0 PUSH2 0x32A PUSH2 0x291 JUMP JUMPDEST SWAP1 POP PUSH2 0x336 DUP3 DUP3 PUSH2 0x2EF JUMP JUMPDEST SWAP2 SWAP1 POP JUMP JUMPDEST PUSH1 0x0 PUSH8 0xFFFFFFFFFFFFFFFF DUP3 GT ISZERO PUSH2 0x356 JUMPI PUSH2 0x355 PUSH2 0x2C0 JUMP JUMPDEST JUMPDEST PUSH2 0x35F DUP3 PUSH2 0x2AF JUMP JUMPDEST SWAP1 POP PUSH1 0x20 DUP2 ADD SWAP1 POP SWAP2 SWAP1 POP JUMP JUMPDEST DUP3 DUP2 DUP4 CALLDATACOPY PUSH1 0x0 DUP4 DUP4 ADD MSTORE POP POP POP JUMP JUMPDEST PUSH1 0x0 PUSH2 0x38E PUSH2 0x389 DUP5 PUSH2 0x33B JUMP JUMPDEST PUSH2 0x320 JUMP JUMPDEST SWAP1 POP DUP3 DUP2 MSTORE PUSH1 0x20 DUP2 ADD DUP5 DUP5 DUP5 ADD GT ISZERO PUSH2 0x3AA JUMPI PUSH2 0x3A9 PUSH2 0x2AA JUMP JUMPDEST JUMPDEST PUSH2 0x3B5 DUP5 DUP3 DUP6 PUSH2 0x36C JUMP JUMPDEST POP SWAP4 SWAP3 POP POP POP JUMP JUMPDEST PUSH1 0x0 DUP3 PUSH1 0x1F DUP4 ADD SLT PUSH2 0x3D2 JUMPI PUSH2 0x3D1 PUSH2 0x2A5 JUMP JUMPDEST JUMPDEST DUP2 CALLDATALOAD PUSH2 0x3E2 DUP5 DUP3 PUSH1 0x20 DUP7 ADD PUSH2 0x37B JUMP JUMPDEST SWAP2 POP POP SWAP3 SWAP2 POP POP JUMP JUMPDEST PUSH1 0x0 DUP1 PUSH1 0x40 DUP4 DUP6 SUB SLT ISZERO PUSH2 0x402 JUMPI PUSH2 0x401 PUSH2 0x29B JUMP JUMPDEST JUMPDEST PUSH1 0x0 DUP4 ADD CALLDATALOAD PUSH8 0xFFFFFFFFFFFFFFFF DUP2 GT ISZERO PUSH2 0x420 JUMPI PUSH2 0x41F PUSH2 0x2A0 JUMP JUMPDEST JUMPDEST PUSH2 0x42C DUP6 DUP3 DUP7 ADD PUSH2 0x3BD JUMP JUMPDEST SWAP3 POP POP PUSH1 0x20 DUP4 ADD CALLDATALOAD PUSH8 0xFFFFFFFFFFFFFFFF DUP2 GT ISZERO PUSH2 0x44D JUMPI PUSH2 0x44C PUSH2 0x2A0 JUMP JUMPDEST JUMPDEST PUSH2 0x459 DUP6 DUP3 DUP7 ADD PUSH2 0x3BD JUMP JUMPDEST SWAP2 POP POP SWAP3 POP SWAP3 SWAP1 POP JUMP JUMPDEST PUSH1 0x0 DUP2 MLOAD SWAP1 POP SWAP2 SWAP1 POP JUMP JUMPDEST PUSH1 0x0 DUP3 DUP3 MSTORE PUSH1 0x20 DUP3 ADD SWAP1 POP SWAP3 SWAP2 POP POP JUMP JUMPDEST PUSH1 0x0 JUMPDEST DUP4 DUP2 LT ISZERO PUSH2 0x49D JUMPI DUP1 DUP3 ADD MLOAD DUP2 DUP5 ADD MSTORE PUSH1 0x20 DUP2 ADD SWAP1 POP PUSH2 0x482 JUMP JUMPDEST DUP4 DUP2 GT ISZERO PUSH2 0x4AC JUMPI PUSH1 0x0 DUP5 DUP5 ADD MSTORE JUMPDEST POP POP POP POP JUMP JUMPDEST PUSH1 0x0 PUSH2 0x4BD DUP3 PUSH2 0x463 JUMP JUMPDEST PUSH2 0x4C7 DUP2 DUP6 PUSH2 0x46E JUMP JUMPDEST SWAP4 POP PUSH2 0x4D7 DUP2 DUP6 PUSH1 0x20 DUP7 ADD PUSH2 0x47F JUMP JUMPDEST PUSH2 0x4E0 DUP2 PUSH2 0x2AF JUMP JUMPDEST DUP5 ADD SWAP2 POP POP SWAP3 SWAP2 POP POP JUMP JUMPDEST PUSH1 0x0 PUSH1 0x20 DUP3 ADD SWAP1 POP DUP2 DUP2 SUB PUSH1 0x0 DUP4 ADD MSTORE PUSH2 0x505 DUP2 DUP5 PUSH2 0x4B2 JUMP JUMPDEST SWAP1 POP SWAP3 SWAP2 POP POP JUMP JUMPDEST PUSH1 0x0 DUP2 SWAP1 POP SWAP3 SWAP2 POP POP JUMP JUMPDEST PUSH1 0x0 PUSH2 0x523 DUP3 PUSH2 0x463 JUMP JUMPDEST PUSH2 0x52D DUP2 DUP6 PUSH2 0x50D JUMP JUMPDEST SWAP4 POP PUSH2 0x53D DUP2 DUP6 PUSH1 0x20 DUP7 ADD PUSH2 0x47F JUMP JUMPDEST DUP1 DUP5 ADD SWAP2 POP POP SWAP3 SWAP2 POP POP JUMP JUMPDEST PUSH1 0x0 PUSH2 0x555 DUP3 DUP6 PUSH2 0x518 JUMP JUMPDEST SWAP2 POP PUSH2 0x561 DUP3 DUP5 PUSH2 0x518 JUMP JUMPDEST SWAP2 POP DUP2 SWAP1 POP SWAP4 SWAP3 POP POP POP JUMP JUMPDEST PUSH32 0x46756E6420726169736572206973206E6F742063757272656E746C7920616374 PUSH1 0x0 DUP3 ADD MSTORE PUSH32 0x6976650000000000000000000000000000000000000000000000000000000000 PUSH1 0x20 DUP3 ADD MSTORE POP JUMP JUMPDEST PUSH1 0x0 PUSH2 0x5C9 PUSH1 0x23 DUP4 PUSH2 0x46E JUMP JUMPDEST SWAP2 POP PUSH2 0x5D4 DUP3 PUSH2 0x56D JUMP JUMPDEST PUSH1 0x40 DUP3 ADD SWAP1 POP SWAP2 SWAP1 POP JUMP JUMPDEST PUSH1 0x0 PUSH1 0x20 DUP3 ADD SWAP1 POP DUP2 DUP2 SUB PUSH1 0x0 DUP4 ADD MSTORE PUSH2 0x5F8 DUP2 PUSH2 0x5BC JUMP JUMPDEST SWAP1 POP SWAP2 SWAP1 POP JUMP JUMPDEST PUSH32 0x446964206E6F742073656E6420656E6F75676800000000000000000000000000 PUSH1 0x0 DUP3 ADD MSTORE POP JUMP JUMPDEST PUSH1 0x0 PUSH2 0x635 PUSH1 0x13 DUP4 PUSH2 0x46E JUMP JUMPDEST SWAP2 POP PUSH2 0x640 DUP3 PUSH2 0x5FF JUMP JUMPDEST PUSH1 0x20 DUP3 ADD SWAP1 POP SWAP2 SWAP1 POP JUMP JUMPDEST PUSH1 0x0 PUSH1 0x20 DUP3 ADD SWAP1 POP DUP2 DUP2 SUB PUSH1 0x0 DUP4 ADD MSTORE PUSH2 0x664 DUP2 PUSH2 0x628 JUMP JUMPDEST SWAP1 POP SWAP2 SWAP1 POP JUMP INVALID LOG2 PUSH5 0x6970667358 0x22 SLT KECCAK256 DUP1 0x2C 0xAA 0x4C 0xE9 CALLER CALLER ADDMOD 0x49 PUSH6 0x64951827A3CB ADD 0xE2 SWAP8 EXTCODECOPY PUSH28 0xD18CC54FA19BCFC180F48C64736F6C63430008080033000000000000 "
				},
				"gasEstimates": {
					"creation": {
						"codeDepositCost": "339400",
						"executionCost": "29746",
						"totalCost": "369146"
					},
					"external": {
						"concatenateStrings(string,string)": "infinite",
						"endFundRaiser()": "166",
						"fund()": "2634",
						"fundRaiserStatus()": "4698",
						"startFundRaiser()": "210",
						"viewListOfFundings()": "189",
						"withdraw()": "167"
					}
				},
				"methodIdentifiers": {
					"concatenateStrings(string,string)": "7a36b3ee",
					"endFundRaiser()": "82c9e836",
					"fund()": "b60d4288",
					"fundRaiserStatus()": "1dc19190",
					"startFundRaiser()": "c89d0deb",
					"viewListOfFundings()": "74143a6c",
					"withdraw()": "3ccfd60b"
				}
			},
			"storageLayout": {
				"storage": [
					{
						"astId": 13,
						"contract": "contracts/FundMe.sol:FundMe",
						"label": "fundRaiserStatus",
						"offset": 0,
						"slot": "0",
						"type": "t_struct(FundRaiserStatus)6_storage"
					}
				],
				"types": {
					"t_bool": {
						"encoding": "inplace",
						"label": "bool",
						"numberOfBytes": "1"
					},
					"t_struct(FundRaiserStatus)6_storage": {
						"encoding": "inplace",
						"label": "struct FundMe.FundRaiserStatus",
						"members": [
							{
								"astId": 3,
								"contract": "contracts/FundMe.sol:FundMe",
								"label": "active",
								"offset": 0,
								"slot": "0",
								"type": "t_bool"
							},
							{
								"astId": 5,
								"contract": "contracts/FundMe.sol:FundMe",
								"label": "minAmount",
								"offset": 0,
								"slot": "1",
								"type": "t_uint256"
							}
						],
						"numberOfBytes": "64"
					},
					"t_uint256": {
						"encoding": "inplace",
						"label": "uint256",
						"numberOfBytes": "32"
					}
				}
			},
			"userdoc": {
				"kind": "user",
				"methods": {},
				"version": 1
			}
		}
	}
}