{
	"contracts/FundMe.sol": {
		"FundMe": {
			"abi": [
				{
					"inputs": [
						{
							"internalType": "string",
							"name": "str1",
							"type": "string"
						},
						{
							"internalType": "string",
							"name": "str2",
							"type": "string"
						}
					],
					"name": "concatenateStrings",
					"outputs": [
						{
							"internalType": "string",
							"name": "",
							"type": "string"
						}
					],
					"stateMutability": "pure",
					"type": "function"
				},
				{
					"inputs": [],
					"name": "endFundRaiser",
					"outputs": [],
					"stateMutability": "nonpayable",
					"type": "function"
				},
				{
					"inputs": [],
					"name": "fund",
					"outputs": [],
					"stateMutability": "payable",
					"type": "function"
				},
				{
					"inputs": [],
					"name": "fundRaiserStatus",
					"outputs": [
						{
							"internalType": "bool",
							"name": "active",
							"type": "bool"
						},
						{
							"internalType": "uint256",
							"name": "minAmount",
							"type": "uint256"
						}
					],
					"stateMutability": "view",
					"type": "function"
				},
				{
					"inputs": [
						{
							"internalType": "uint256",
							"name": "_minAmount",
							"type": "uint256"
						}
					],
					"name": "startFundRaiser",
					"outputs": [],
					"stateMutability": "nonpayable",
					"type": "function"
				},
				{
					"inputs": [],
					"name": "viewListOfFundings",
					"outputs": [],
					"stateMutability": "nonpayable",
					"type": "function"
				},
				{
					"inputs": [],
					"name": "withdraw",
					"outputs": [],
					"stateMutability": "nonpayable",
					"type": "function"
				}
			],
			"devdoc": {
				"kind": "dev",
				"methods": {},
				"version": 1
			},
			"evm": {
				"assembly": "    /* \"contracts/FundMe.sol\":323:1495  contract FundMe {... */\n  mstore(0x40, 0x80)\n    /* \"contracts/FundMe.sol\":538:601  FundRaiserStatus({... */\n  mload(0x40)\n  dup1\n  0x40\n  add\n  0x40\n  mstore\n  dup1\n    /* \"contracts/FundMe.sol\":574:579  false */\n  0x00\n    /* \"contracts/FundMe.sol\":538:601  FundRaiserStatus({... */\n  iszero\n  iszero\n  dup2\n  mstore\n  0x20\n  add\n    /* \"contracts/FundMe.sol\":592:593  0 */\n  0x00\n    /* \"contracts/FundMe.sol\":538:601  FundRaiserStatus({... */\n  dup2\n  mstore\n  pop\n    /* \"contracts/FundMe.sol\":495:601  FundRaiserStatus public fundRaiserStatus = FundRaiserStatus({... */\n  0x00\n  dup1\n  dup3\n  add\n  mload\n  dup2\n  0x00\n  add\n  exp(0x0100, 0x00)\n  dup2\n  sload\n  dup2\n  0xff\n  mul\n  not\n  and\n  swap1\n  dup4\n  iszero\n  iszero\n  mul\n  or\n  swap1\n  sstore\n  pop\n  0x20\n  dup3\n  add\n  mload\n  dup2\n  0x01\n  add\n  sstore\n  pop\n  pop\n    /* \"contracts/FundMe.sol\":323:1495  contract FundMe {... */\n  callvalue\n  dup1\n  iszero\n  tag_1\n  jumpi\n  0x00\n  dup1\n  revert\ntag_1:\n  pop\n  dataSize(sub_0)\n  dup1\n  dataOffset(sub_0)\n  0x00\n  codecopy\n  0x00\n  return\nstop\n\nsub_0: assembly {\n        /* \"contracts/FundMe.sol\":323:1495  contract FundMe {... */\n      mstore(0x40, 0x80)\n      jumpi(tag_1, lt(calldatasize, 0x04))\n      shr(0xe0, calldataload(0x00))\n      dup1\n      0x7a36b3ee\n      gt\n      tag_9\n      jumpi\n      dup1\n      0x7a36b3ee\n      eq\n      tag_5\n      jumpi\n      dup1\n      0x82c9e836\n      eq\n      tag_6\n      jumpi\n      dup1\n      0xb60d4288\n      eq\n      tag_7\n      jumpi\n      dup1\n      0xe7bbc316\n      eq\n      tag_8\n      jumpi\n      jump(tag_1)\n    tag_9:\n      dup1\n      0x1dc19190\n      eq\n      tag_2\n      jumpi\n      dup1\n      0x3ccfd60b\n      eq\n      tag_3\n      jumpi\n      dup1\n      0x74143a6c\n      eq\n      tag_4\n      jumpi\n    tag_1:\n      0x00\n      dup1\n      revert\n        /* \"contracts/FundMe.sol\":495:601  FundRaiserStatus public fundRaiserStatus = FundRaiserStatus({... */\n    tag_2:\n      callvalue\n      dup1\n      iszero\n      tag_10\n      jumpi\n      0x00\n      dup1\n      revert\n    tag_10:\n      pop\n      tag_11\n      tag_12\n      jump\t// in\n    tag_11:\n      mload(0x40)\n      tag_13\n      swap3\n      swap2\n      swap1\n      tag_14\n      jump\t// in\n    tag_13:\n      mload(0x40)\n      dup1\n      swap2\n      sub\n      swap1\n      return\n        /* \"contracts/FundMe.sol\":1029:1058  function withdraw() public {} */\n    tag_3:\n      callvalue\n      dup1\n      iszero\n      tag_15\n      jumpi\n      0x00\n      dup1\n      revert\n    tag_15:\n      pop\n      tag_16\n      tag_17\n      jump\t// in\n    tag_16:\n      stop\n        /* \"contracts/FundMe.sol\":1254:1293  function viewListOfFundings() public {} */\n    tag_4:\n      callvalue\n      dup1\n      iszero\n      tag_18\n      jumpi\n      0x00\n      dup1\n      revert\n    tag_18:\n      pop\n      tag_19\n      tag_20\n      jump\t// in\n    tag_19:\n      stop\n        /* \"contracts/FundMe.sol\":1327:1492  function concatenateStrings(string memory str1, string memory str2) public pure returns(string memory) {... */\n    tag_5:\n      callvalue\n      dup1\n      iszero\n      tag_21\n      jumpi\n      0x00\n      dup1\n      revert\n    tag_21:\n      pop\n      tag_22\n      0x04\n      dup1\n      calldatasize\n      sub\n      dup2\n      add\n      swap1\n      tag_23\n      swap2\n      swap1\n      tag_24\n      jump\t// in\n    tag_23:\n      tag_25\n      jump\t// in\n    tag_22:\n      mload(0x40)\n      tag_26\n      swap2\n      swap1\n      tag_27\n      jump\t// in\n    tag_26:\n      mload(0x40)\n      dup1\n      swap2\n      sub\n      swap1\n      return\n        /* \"contracts/FundMe.sol\":1182:1216  function endFundRaiser() public {} */\n    tag_6:\n      callvalue\n      dup1\n      iszero\n      tag_28\n      jumpi\n      0x00\n      dup1\n      revert\n    tag_28:\n      pop\n      tag_29\n      tag_30\n      jump\t// in\n    tag_29:\n      stop\n        /* \"contracts/FundMe.sol\":632:993  function fund() public payable {... */\n    tag_7:\n      tag_31\n      tag_32\n      jump\t// in\n    tag_31:\n      stop\n        /* \"contracts/FundMe.sol\":1096:1150  function startFundRaiser(uint256 _minAmount) public {} */\n    tag_8:\n      callvalue\n      dup1\n      iszero\n      tag_33\n      jumpi\n      0x00\n      dup1\n      revert\n    tag_33:\n      pop\n      tag_34\n      0x04\n      dup1\n      calldatasize\n      sub\n      dup2\n      add\n      swap1\n      tag_35\n      swap2\n      swap1\n      tag_36\n      jump\t// in\n    tag_35:\n      tag_37\n      jump\t// in\n    tag_34:\n      stop\n        /* \"contracts/FundMe.sol\":495:601  FundRaiserStatus public fundRaiserStatus = FundRaiserStatus({... */\n    tag_12:\n      0x00\n      dup1\n      0x00\n      add\n      0x00\n      swap1\n      sload\n      swap1\n      0x0100\n      exp\n      swap1\n      div\n      0xff\n      and\n      swap1\n      dup1\n      0x01\n      add\n      sload\n      swap1\n      pop\n      dup3\n      jump\t// out\n        /* \"contracts/FundMe.sol\":1029:1058  function withdraw() public {} */\n    tag_17:\n      jump\t// out\n        /* \"contracts/FundMe.sol\":1254:1293  function viewListOfFundings() public {} */\n    tag_20:\n      jump\t// out\n        /* \"contracts/FundMe.sol\":1327:1492  function concatenateStrings(string memory str1, string memory str2) public pure returns(string memory) {... */\n    tag_25:\n        /* \"contracts/FundMe.sol\":1415:1428  string memory */\n      0x60\n        /* \"contracts/FundMe.sol\":1472:1476  str1 */\n      dup3\n        /* \"contracts/FundMe.sol\":1478:1482  str2 */\n      dup3\n        /* \"contracts/FundMe.sol\":1455:1483  abi.encodePacked(str1, str2) */\n      add(0x20, mload(0x40))\n      tag_41\n      swap3\n      swap2\n      swap1\n      tag_42\n      jump\t// in\n    tag_41:\n      mload(0x40)\n      0x20\n      dup2\n      dup4\n      sub\n      sub\n      dup2\n      mstore\n      swap1\n      0x40\n      mstore\n        /* \"contracts/FundMe.sol\":1441:1484  return string(abi.encodePacked(str1, str2)) */\n      swap1\n      pop\n        /* \"contracts/FundMe.sol\":1327:1492  function concatenateStrings(string memory str1, string memory str2) public pure returns(string memory) {... */\n      swap3\n      swap2\n      pop\n      pop\n      jump\t// out\n        /* \"contracts/FundMe.sol\":1182:1216  function endFundRaiser() public {} */\n    tag_30:\n      jump\t// out\n        /* \"contracts/FundMe.sol\":632:993  function fund() public payable {... */\n    tag_32:\n        /* \"contracts/FundMe.sol\":739:755  fundRaiserStatus */\n      0x00\n        /* \"contracts/FundMe.sol\":739:762  fundRaiserStatus.active */\n      dup1\n      add\n      0x00\n      swap1\n      sload\n      swap1\n      0x0100\n      exp\n      swap1\n      div\n      0xff\n      and\n        /* \"contracts/FundMe.sol\":731:802  require(fundRaiserStatus.active, \"Fund raiser is not currently active\") */\n      tag_45\n      jumpi\n      mload(0x40)\n      0x08c379a000000000000000000000000000000000000000000000000000000000\n      dup2\n      mstore\n      0x04\n      add\n      tag_46\n      swap1\n      tag_47\n      jump\t// in\n    tag_46:\n      mload(0x40)\n      dup1\n      swap2\n      sub\n      swap1\n      revert\n    tag_45:\n        /* \"contracts/FundMe.sol\":912:916  1e18 */\n      0x0de0b6b3a7640000\n        /* \"contracts/FundMe.sol\":900:909  msg.value */\n      callvalue\n        /* \"contracts/FundMe.sol\":900:916  msg.value > 1e18 */\n      gt\n        /* \"contracts/FundMe.sol\":892:940  require(msg.value > 1e18, \"Did not send enough\") */\n      tag_48\n      jumpi\n      mload(0x40)\n      0x08c379a000000000000000000000000000000000000000000000000000000000\n      dup2\n      mstore\n      0x04\n      add\n      tag_49\n      swap1\n      tag_50\n      jump\t// in\n    tag_49:\n      mload(0x40)\n      dup1\n      swap2\n      sub\n      swap1\n      revert\n    tag_48:\n        /* \"contracts/FundMe.sol\":632:993  function fund() public payable {... */\n      jump\t// out\n        /* \"contracts/FundMe.sol\":1096:1150  function startFundRaiser(uint256 _minAmount) public {} */\n    tag_37:\n      pop\n      jump\t// out\n        /* \"#utility.yul\":7:97   */\n    tag_52:\n        /* \"#utility.yul\":41:48   */\n      0x00\n        /* \"#utility.yul\":84:89   */\n      dup2\n        /* \"#utility.yul\":77:90   */\n      iszero\n        /* \"#utility.yul\":70:91   */\n      iszero\n        /* \"#utility.yul\":59:91   */\n      swap1\n      pop\n        /* \"#utility.yul\":7:97   */\n      swap2\n      swap1\n      pop\n      jump\t// out\n        /* \"#utility.yul\":103:212   */\n    tag_53:\n        /* \"#utility.yul\":184:205   */\n      tag_84\n        /* \"#utility.yul\":199:204   */\n      dup2\n        /* \"#utility.yul\":184:205   */\n      tag_52\n      jump\t// in\n    tag_84:\n        /* \"#utility.yul\":179:182   */\n      dup3\n        /* \"#utility.yul\":172:206   */\n      mstore\n        /* \"#utility.yul\":103:212   */\n      pop\n      pop\n      jump\t// out\n        /* \"#utility.yul\":218:295   */\n    tag_54:\n        /* \"#utility.yul\":255:262   */\n      0x00\n        /* \"#utility.yul\":284:289   */\n      dup2\n        /* \"#utility.yul\":273:289   */\n      swap1\n      pop\n        /* \"#utility.yul\":218:295   */\n      swap2\n      swap1\n      pop\n      jump\t// out\n        /* \"#utility.yul\":301:419   */\n    tag_55:\n        /* \"#utility.yul\":388:412   */\n      tag_87\n        /* \"#utility.yul\":406:411   */\n      dup2\n        /* \"#utility.yul\":388:412   */\n      tag_54\n      jump\t// in\n    tag_87:\n        /* \"#utility.yul\":383:386   */\n      dup3\n        /* \"#utility.yul\":376:413   */\n      mstore\n        /* \"#utility.yul\":301:419   */\n      pop\n      pop\n      jump\t// out\n        /* \"#utility.yul\":425:745   */\n    tag_14:\n        /* \"#utility.yul\":540:544   */\n      0x00\n        /* \"#utility.yul\":578:580   */\n      0x40\n        /* \"#utility.yul\":567:576   */\n      dup3\n        /* \"#utility.yul\":563:581   */\n      add\n        /* \"#utility.yul\":555:581   */\n      swap1\n      pop\n        /* \"#utility.yul\":591:656   */\n      tag_89\n        /* \"#utility.yul\":653:654   */\n      0x00\n        /* \"#utility.yul\":642:651   */\n      dup4\n        /* \"#utility.yul\":638:655   */\n      add\n        /* \"#utility.yul\":629:635   */\n      dup6\n        /* \"#utility.yul\":591:656   */\n      tag_53\n      jump\t// in\n    tag_89:\n        /* \"#utility.yul\":666:738   */\n      tag_90\n        /* \"#utility.yul\":734:736   */\n      0x20\n        /* \"#utility.yul\":723:732   */\n      dup4\n        /* \"#utility.yul\":719:737   */\n      add\n        /* \"#utility.yul\":710:716   */\n      dup5\n        /* \"#utility.yul\":666:738   */\n      tag_55\n      jump\t// in\n    tag_90:\n        /* \"#utility.yul\":425:745   */\n      swap4\n      swap3\n      pop\n      pop\n      pop\n      jump\t// out\n        /* \"#utility.yul\":751:826   */\n    tag_56:\n        /* \"#utility.yul\":784:790   */\n      0x00\n        /* \"#utility.yul\":817:819   */\n      0x40\n        /* \"#utility.yul\":811:820   */\n      mload\n        /* \"#utility.yul\":801:820   */\n      swap1\n      pop\n        /* \"#utility.yul\":751:826   */\n      swap1\n      jump\t// out\n        /* \"#utility.yul\":832:949   */\n    tag_57:\n        /* \"#utility.yul\":941:942   */\n      0x00\n        /* \"#utility.yul\":938:939   */\n      dup1\n        /* \"#utility.yul\":931:943   */\n      revert\n        /* \"#utility.yul\":955:1072   */\n    tag_58:\n        /* \"#utility.yul\":1064:1065   */\n      0x00\n        /* \"#utility.yul\":1061:1062   */\n      dup1\n        /* \"#utility.yul\":1054:1066   */\n      revert\n        /* \"#utility.yul\":1078:1195   */\n    tag_59:\n        /* \"#utility.yul\":1187:1188   */\n      0x00\n        /* \"#utility.yul\":1184:1185   */\n      dup1\n        /* \"#utility.yul\":1177:1189   */\n      revert\n        /* \"#utility.yul\":1201:1318   */\n    tag_60:\n        /* \"#utility.yul\":1310:1311   */\n      0x00\n        /* \"#utility.yul\":1307:1308   */\n      dup1\n        /* \"#utility.yul\":1300:1312   */\n      revert\n        /* \"#utility.yul\":1324:1426   */\n    tag_61:\n        /* \"#utility.yul\":1365:1371   */\n      0x00\n        /* \"#utility.yul\":1416:1418   */\n      0x1f\n        /* \"#utility.yul\":1412:1419   */\n      not\n        /* \"#utility.yul\":1407:1409   */\n      0x1f\n        /* \"#utility.yul\":1400:1405   */\n      dup4\n        /* \"#utility.yul\":1396:1410   */\n      add\n        /* \"#utility.yul\":1392:1420   */\n      and\n        /* \"#utility.yul\":1382:1420   */\n      swap1\n      pop\n        /* \"#utility.yul\":1324:1426   */\n      swap2\n      swap1\n      pop\n      jump\t// out\n        /* \"#utility.yul\":1432:1612   */\n    tag_62:\n        /* \"#utility.yul\":1480:1557   */\n      0x4e487b7100000000000000000000000000000000000000000000000000000000\n        /* \"#utility.yul\":1477:1478   */\n      0x00\n        /* \"#utility.yul\":1470:1558   */\n      mstore\n        /* \"#utility.yul\":1577:1581   */\n      0x41\n        /* \"#utility.yul\":1574:1575   */\n      0x04\n        /* \"#utility.yul\":1567:1582   */\n      mstore\n        /* \"#utility.yul\":1601:1605   */\n      0x24\n        /* \"#utility.yul\":1598:1599   */\n      0x00\n        /* \"#utility.yul\":1591:1606   */\n      revert\n        /* \"#utility.yul\":1618:1899   */\n    tag_63:\n        /* \"#utility.yul\":1701:1728   */\n      tag_99\n        /* \"#utility.yul\":1723:1727   */\n      dup3\n        /* \"#utility.yul\":1701:1728   */\n      tag_61\n      jump\t// in\n    tag_99:\n        /* \"#utility.yul\":1693:1699   */\n      dup2\n        /* \"#utility.yul\":1689:1729   */\n      add\n        /* \"#utility.yul\":1831:1837   */\n      dup2\n        /* \"#utility.yul\":1819:1829   */\n      dup2\n        /* \"#utility.yul\":1816:1838   */\n      lt\n        /* \"#utility.yul\":1795:1813   */\n      0xffffffffffffffff\n        /* \"#utility.yul\":1783:1793   */\n      dup3\n        /* \"#utility.yul\":1780:1814   */\n      gt\n        /* \"#utility.yul\":1777:1839   */\n      or\n        /* \"#utility.yul\":1774:1862   */\n      iszero\n      tag_100\n      jumpi\n        /* \"#utility.yul\":1842:1860   */\n      tag_101\n      tag_62\n      jump\t// in\n    tag_101:\n        /* \"#utility.yul\":1774:1862   */\n    tag_100:\n        /* \"#utility.yul\":1882:1892   */\n      dup1\n        /* \"#utility.yul\":1878:1880   */\n      0x40\n        /* \"#utility.yul\":1871:1893   */\n      mstore\n        /* \"#utility.yul\":1661:1899   */\n      pop\n        /* \"#utility.yul\":1618:1899   */\n      pop\n      pop\n      jump\t// out\n        /* \"#utility.yul\":1905:2034   */\n    tag_64:\n        /* \"#utility.yul\":1939:1945   */\n      0x00\n        /* \"#utility.yul\":1966:1986   */\n      tag_103\n      tag_56\n      jump\t// in\n    tag_103:\n        /* \"#utility.yul\":1956:1986   */\n      swap1\n      pop\n        /* \"#utility.yul\":1995:2028   */\n      tag_104\n        /* \"#utility.yul\":2023:2027   */\n      dup3\n        /* \"#utility.yul\":2015:2021   */\n      dup3\n        /* \"#utility.yul\":1995:2028   */\n      tag_63\n      jump\t// in\n    tag_104:\n        /* \"#utility.yul\":1905:2034   */\n      swap2\n      swap1\n      pop\n      jump\t// out\n        /* \"#utility.yul\":2040:2348   */\n    tag_65:\n        /* \"#utility.yul\":2102:2106   */\n      0x00\n        /* \"#utility.yul\":2192:2210   */\n      0xffffffffffffffff\n        /* \"#utility.yul\":2184:2190   */\n      dup3\n        /* \"#utility.yul\":2181:2211   */\n      gt\n        /* \"#utility.yul\":2178:2234   */\n      iszero\n      tag_106\n      jumpi\n        /* \"#utility.yul\":2214:2232   */\n      tag_107\n      tag_62\n      jump\t// in\n    tag_107:\n        /* \"#utility.yul\":2178:2234   */\n    tag_106:\n        /* \"#utility.yul\":2252:2281   */\n      tag_108\n        /* \"#utility.yul\":2274:2280   */\n      dup3\n        /* \"#utility.yul\":2252:2281   */\n      tag_61\n      jump\t// in\n    tag_108:\n        /* \"#utility.yul\":2244:2281   */\n      swap1\n      pop\n        /* \"#utility.yul\":2336:2340   */\n      0x20\n        /* \"#utility.yul\":2330:2334   */\n      dup2\n        /* \"#utility.yul\":2326:2341   */\n      add\n        /* \"#utility.yul\":2318:2341   */\n      swap1\n      pop\n        /* \"#utility.yul\":2040:2348   */\n      swap2\n      swap1\n      pop\n      jump\t// out\n        /* \"#utility.yul\":2354:2508   */\n    tag_66:\n        /* \"#utility.yul\":2438:2444   */\n      dup3\n        /* \"#utility.yul\":2433:2436   */\n      dup2\n        /* \"#utility.yul\":2428:2431   */\n      dup4\n        /* \"#utility.yul\":2415:2445   */\n      calldatacopy\n        /* \"#utility.yul\":2500:2501   */\n      0x00\n        /* \"#utility.yul\":2491:2497   */\n      dup4\n        /* \"#utility.yul\":2486:2489   */\n      dup4\n        /* \"#utility.yul\":2482:2498   */\n      add\n        /* \"#utility.yul\":2475:2502   */\n      mstore\n        /* \"#utility.yul\":2354:2508   */\n      pop\n      pop\n      pop\n      jump\t// out\n        /* \"#utility.yul\":2514:2926   */\n    tag_67:\n        /* \"#utility.yul\":2592:2597   */\n      0x00\n        /* \"#utility.yul\":2617:2683   */\n      tag_111\n        /* \"#utility.yul\":2633:2682   */\n      tag_112\n        /* \"#utility.yul\":2675:2681   */\n      dup5\n        /* \"#utility.yul\":2633:2682   */\n      tag_65\n      jump\t// in\n    tag_112:\n        /* \"#utility.yul\":2617:2683   */\n      tag_64\n      jump\t// in\n    tag_111:\n        /* \"#utility.yul\":2608:2683   */\n      swap1\n      pop\n        /* \"#utility.yul\":2706:2712   */\n      dup3\n        /* \"#utility.yul\":2699:2704   */\n      dup2\n        /* \"#utility.yul\":2692:2713   */\n      mstore\n        /* \"#utility.yul\":2744:2748   */\n      0x20\n        /* \"#utility.yul\":2737:2742   */\n      dup2\n        /* \"#utility.yul\":2733:2749   */\n      add\n        /* \"#utility.yul\":2782:2785   */\n      dup5\n        /* \"#utility.yul\":2773:2779   */\n      dup5\n        /* \"#utility.yul\":2768:2771   */\n      dup5\n        /* \"#utility.yul\":2764:2780   */\n      add\n        /* \"#utility.yul\":2761:2786   */\n      gt\n        /* \"#utility.yul\":2758:2870   */\n      iszero\n      tag_113\n      jumpi\n        /* \"#utility.yul\":2789:2868   */\n      tag_114\n      tag_60\n      jump\t// in\n    tag_114:\n        /* \"#utility.yul\":2758:2870   */\n    tag_113:\n        /* \"#utility.yul\":2879:2920   */\n      tag_115\n        /* \"#utility.yul\":2913:2919   */\n      dup5\n        /* \"#utility.yul\":2908:2911   */\n      dup3\n        /* \"#utility.yul\":2903:2906   */\n      dup6\n        /* \"#utility.yul\":2879:2920   */\n      tag_66\n      jump\t// in\n    tag_115:\n        /* \"#utility.yul\":2598:2926   */\n      pop\n        /* \"#utility.yul\":2514:2926   */\n      swap4\n      swap3\n      pop\n      pop\n      pop\n      jump\t// out\n        /* \"#utility.yul\":2946:3286   */\n    tag_68:\n        /* \"#utility.yul\":3002:3007   */\n      0x00\n        /* \"#utility.yul\":3051:3054   */\n      dup3\n        /* \"#utility.yul\":3044:3048   */\n      0x1f\n        /* \"#utility.yul\":3036:3042   */\n      dup4\n        /* \"#utility.yul\":3032:3049   */\n      add\n        /* \"#utility.yul\":3028:3055   */\n      slt\n        /* \"#utility.yul\":3018:3140   */\n      tag_117\n      jumpi\n        /* \"#utility.yul\":3059:3138   */\n      tag_118\n      tag_59\n      jump\t// in\n    tag_118:\n        /* \"#utility.yul\":3018:3140   */\n    tag_117:\n        /* \"#utility.yul\":3176:3182   */\n      dup2\n        /* \"#utility.yul\":3163:3183   */\n      calldataload\n        /* \"#utility.yul\":3201:3280   */\n      tag_119\n        /* \"#utility.yul\":3276:3279   */\n      dup5\n        /* \"#utility.yul\":3268:3274   */\n      dup3\n        /* \"#utility.yul\":3261:3265   */\n      0x20\n        /* \"#utility.yul\":3253:3259   */\n      dup7\n        /* \"#utility.yul\":3249:3266   */\n      add\n        /* \"#utility.yul\":3201:3280   */\n      tag_67\n      jump\t// in\n    tag_119:\n        /* \"#utility.yul\":3192:3280   */\n      swap2\n      pop\n        /* \"#utility.yul\":3008:3286   */\n      pop\n        /* \"#utility.yul\":2946:3286   */\n      swap3\n      swap2\n      pop\n      pop\n      jump\t// out\n        /* \"#utility.yul\":3292:4126   */\n    tag_24:\n        /* \"#utility.yul\":3380:3386   */\n      0x00\n        /* \"#utility.yul\":3388:3394   */\n      dup1\n        /* \"#utility.yul\":3437:3439   */\n      0x40\n        /* \"#utility.yul\":3425:3434   */\n      dup4\n        /* \"#utility.yul\":3416:3423   */\n      dup6\n        /* \"#utility.yul\":3412:3435   */\n      sub\n        /* \"#utility.yul\":3408:3440   */\n      slt\n        /* \"#utility.yul\":3405:3524   */\n      iszero\n      tag_121\n      jumpi\n        /* \"#utility.yul\":3443:3522   */\n      tag_122\n      tag_57\n      jump\t// in\n    tag_122:\n        /* \"#utility.yul\":3405:3524   */\n    tag_121:\n        /* \"#utility.yul\":3591:3592   */\n      0x00\n        /* \"#utility.yul\":3580:3589   */\n      dup4\n        /* \"#utility.yul\":3576:3593   */\n      add\n        /* \"#utility.yul\":3563:3594   */\n      calldataload\n        /* \"#utility.yul\":3621:3639   */\n      0xffffffffffffffff\n        /* \"#utility.yul\":3613:3619   */\n      dup2\n        /* \"#utility.yul\":3610:3640   */\n      gt\n        /* \"#utility.yul\":3607:3724   */\n      iszero\n      tag_123\n      jumpi\n        /* \"#utility.yul\":3643:3722   */\n      tag_124\n      tag_58\n      jump\t// in\n    tag_124:\n        /* \"#utility.yul\":3607:3724   */\n    tag_123:\n        /* \"#utility.yul\":3748:3811   */\n      tag_125\n        /* \"#utility.yul\":3803:3810   */\n      dup6\n        /* \"#utility.yul\":3794:3800   */\n      dup3\n        /* \"#utility.yul\":3783:3792   */\n      dup7\n        /* \"#utility.yul\":3779:3801   */\n      add\n        /* \"#utility.yul\":3748:3811   */\n      tag_68\n      jump\t// in\n    tag_125:\n        /* \"#utility.yul\":3738:3811   */\n      swap3\n      pop\n        /* \"#utility.yul\":3534:3821   */\n      pop\n        /* \"#utility.yul\":3888:3890   */\n      0x20\n        /* \"#utility.yul\":3877:3886   */\n      dup4\n        /* \"#utility.yul\":3873:3891   */\n      add\n        /* \"#utility.yul\":3860:3892   */\n      calldataload\n        /* \"#utility.yul\":3919:3937   */\n      0xffffffffffffffff\n        /* \"#utility.yul\":3911:3917   */\n      dup2\n        /* \"#utility.yul\":3908:3938   */\n      gt\n        /* \"#utility.yul\":3905:4022   */\n      iszero\n      tag_126\n      jumpi\n        /* \"#utility.yul\":3941:4020   */\n      tag_127\n      tag_58\n      jump\t// in\n    tag_127:\n        /* \"#utility.yul\":3905:4022   */\n    tag_126:\n        /* \"#utility.yul\":4046:4109   */\n      tag_128\n        /* \"#utility.yul\":4101:4108   */\n      dup6\n        /* \"#utility.yul\":4092:4098   */\n      dup3\n        /* \"#utility.yul\":4081:4090   */\n      dup7\n        /* \"#utility.yul\":4077:4099   */\n      add\n        /* \"#utility.yul\":4046:4109   */\n      tag_68\n      jump\t// in\n    tag_128:\n        /* \"#utility.yul\":4036:4109   */\n      swap2\n      pop\n        /* \"#utility.yul\":3831:4119   */\n      pop\n        /* \"#utility.yul\":3292:4126   */\n      swap3\n      pop\n      swap3\n      swap1\n      pop\n      jump\t// out\n        /* \"#utility.yul\":4132:4231   */\n    tag_69:\n        /* \"#utility.yul\":4184:4190   */\n      0x00\n        /* \"#utility.yul\":4218:4223   */\n      dup2\n        /* \"#utility.yul\":4212:4224   */\n      mload\n        /* \"#utility.yul\":4202:4224   */\n      swap1\n      pop\n        /* \"#utility.yul\":4132:4231   */\n      swap2\n      swap1\n      pop\n      jump\t// out\n        /* \"#utility.yul\":4237:4406   */\n    tag_70:\n        /* \"#utility.yul\":4321:4332   */\n      0x00\n        /* \"#utility.yul\":4355:4361   */\n      dup3\n        /* \"#utility.yul\":4350:4353   */\n      dup3\n        /* \"#utility.yul\":4343:4362   */\n      mstore\n        /* \"#utility.yul\":4395:4399   */\n      0x20\n        /* \"#utility.yul\":4390:4393   */\n      dup3\n        /* \"#utility.yul\":4386:4400   */\n      add\n        /* \"#utility.yul\":4371:4400   */\n      swap1\n      pop\n        /* \"#utility.yul\":4237:4406   */\n      swap3\n      swap2\n      pop\n      pop\n      jump\t// out\n        /* \"#utility.yul\":4412:4719   */\n    tag_71:\n        /* \"#utility.yul\":4480:4481   */\n      0x00\n        /* \"#utility.yul\":4490:4603   */\n    tag_132:\n        /* \"#utility.yul\":4504:4510   */\n      dup4\n        /* \"#utility.yul\":4501:4502   */\n      dup2\n        /* \"#utility.yul\":4498:4511   */\n      lt\n        /* \"#utility.yul\":4490:4603   */\n      iszero\n      tag_134\n      jumpi\n        /* \"#utility.yul\":4589:4590   */\n      dup1\n        /* \"#utility.yul\":4584:4587   */\n      dup3\n        /* \"#utility.yul\":4580:4591   */\n      add\n        /* \"#utility.yul\":4574:4592   */\n      mload\n        /* \"#utility.yul\":4570:4571   */\n      dup2\n        /* \"#utility.yul\":4565:4568   */\n      dup5\n        /* \"#utility.yul\":4561:4572   */\n      add\n        /* \"#utility.yul\":4554:4593   */\n      mstore\n        /* \"#utility.yul\":4526:4528   */\n      0x20\n        /* \"#utility.yul\":4523:4524   */\n      dup2\n        /* \"#utility.yul\":4519:4529   */\n      add\n        /* \"#utility.yul\":4514:4529   */\n      swap1\n      pop\n        /* \"#utility.yul\":4490:4603   */\n      jump(tag_132)\n    tag_134:\n        /* \"#utility.yul\":4621:4627   */\n      dup4\n        /* \"#utility.yul\":4618:4619   */\n      dup2\n        /* \"#utility.yul\":4615:4628   */\n      gt\n        /* \"#utility.yul\":4612:4713   */\n      iszero\n      tag_135\n      jumpi\n        /* \"#utility.yul\":4701:4702   */\n      0x00\n        /* \"#utility.yul\":4692:4698   */\n      dup5\n        /* \"#utility.yul\":4687:4690   */\n      dup5\n        /* \"#utility.yul\":4683:4699   */\n      add\n        /* \"#utility.yul\":4676:4703   */\n      mstore\n        /* \"#utility.yul\":4612:4713   */\n    tag_135:\n        /* \"#utility.yul\":4461:4719   */\n      pop\n        /* \"#utility.yul\":4412:4719   */\n      pop\n      pop\n      pop\n      jump\t// out\n        /* \"#utility.yul\":4725:5089   */\n    tag_72:\n        /* \"#utility.yul\":4813:4816   */\n      0x00\n        /* \"#utility.yul\":4841:4880   */\n      tag_137\n        /* \"#utility.yul\":4874:4879   */\n      dup3\n        /* \"#utility.yul\":4841:4880   */\n      tag_69\n      jump\t// in\n    tag_137:\n        /* \"#utility.yul\":4896:4967   */\n      tag_138\n        /* \"#utility.yul\":4960:4966   */\n      dup2\n        /* \"#utility.yul\":4955:4958   */\n      dup6\n        /* \"#utility.yul\":4896:4967   */\n      tag_70\n      jump\t// in\n    tag_138:\n        /* \"#utility.yul\":4889:4967   */\n      swap4\n      pop\n        /* \"#utility.yul\":4976:5028   */\n      tag_139\n        /* \"#utility.yul\":5021:5027   */\n      dup2\n        /* \"#utility.yul\":5016:5019   */\n      dup6\n        /* \"#utility.yul\":5009:5013   */\n      0x20\n        /* \"#utility.yul\":5002:5007   */\n      dup7\n        /* \"#utility.yul\":4998:5014   */\n      add\n        /* \"#utility.yul\":4976:5028   */\n      tag_71\n      jump\t// in\n    tag_139:\n        /* \"#utility.yul\":5053:5082   */\n      tag_140\n        /* \"#utility.yul\":5075:5081   */\n      dup2\n        /* \"#utility.yul\":5053:5082   */\n      tag_61\n      jump\t// in\n    tag_140:\n        /* \"#utility.yul\":5048:5051   */\n      dup5\n        /* \"#utility.yul\":5044:5083   */\n      add\n        /* \"#utility.yul\":5037:5083   */\n      swap2\n      pop\n        /* \"#utility.yul\":4817:5089   */\n      pop\n        /* \"#utility.yul\":4725:5089   */\n      swap3\n      swap2\n      pop\n      pop\n      jump\t// out\n        /* \"#utility.yul\":5095:5408   */\n    tag_27:\n        /* \"#utility.yul\":5208:5212   */\n      0x00\n        /* \"#utility.yul\":5246:5248   */\n      0x20\n        /* \"#utility.yul\":5235:5244   */\n      dup3\n        /* \"#utility.yul\":5231:5249   */\n      add\n        /* \"#utility.yul\":5223:5249   */\n      swap1\n      pop\n        /* \"#utility.yul\":5295:5304   */\n      dup2\n        /* \"#utility.yul\":5289:5293   */\n      dup2\n        /* \"#utility.yul\":5285:5305   */\n      sub\n        /* \"#utility.yul\":5281:5282   */\n      0x00\n        /* \"#utility.yul\":5270:5279   */\n      dup4\n        /* \"#utility.yul\":5266:5283   */\n      add\n        /* \"#utility.yul\":5259:5306   */\n      mstore\n        /* \"#utility.yul\":5323:5401   */\n      tag_142\n        /* \"#utility.yul\":5396:5400   */\n      dup2\n        /* \"#utility.yul\":5387:5393   */\n      dup5\n        /* \"#utility.yul\":5323:5401   */\n      tag_72\n      jump\t// in\n    tag_142:\n        /* \"#utility.yul\":5315:5401   */\n      swap1\n      pop\n        /* \"#utility.yul\":5095:5408   */\n      swap3\n      swap2\n      pop\n      pop\n      jump\t// out\n        /* \"#utility.yul\":5414:5536   */\n    tag_73:\n        /* \"#utility.yul\":5487:5511   */\n      tag_144\n        /* \"#utility.yul\":5505:5510   */\n      dup2\n        /* \"#utility.yul\":5487:5511   */\n      tag_54\n      jump\t// in\n    tag_144:\n        /* \"#utility.yul\":5480:5485   */\n      dup2\n        /* \"#utility.yul\":5477:5512   */\n      eq\n        /* \"#utility.yul\":5467:5530   */\n      tag_145\n      jumpi\n        /* \"#utility.yul\":5526:5527   */\n      0x00\n        /* \"#utility.yul\":5523:5524   */\n      dup1\n        /* \"#utility.yul\":5516:5528   */\n      revert\n        /* \"#utility.yul\":5467:5530   */\n    tag_145:\n        /* \"#utility.yul\":5414:5536   */\n      pop\n      jump\t// out\n        /* \"#utility.yul\":5542:5681   */\n    tag_74:\n        /* \"#utility.yul\":5588:5593   */\n      0x00\n        /* \"#utility.yul\":5626:5632   */\n      dup2\n        /* \"#utility.yul\":5613:5633   */\n      calldataload\n        /* \"#utility.yul\":5604:5633   */\n      swap1\n      pop\n        /* \"#utility.yul\":5642:5675   */\n      tag_147\n        /* \"#utility.yul\":5669:5674   */\n      dup2\n        /* \"#utility.yul\":5642:5675   */\n      tag_73\n      jump\t// in\n    tag_147:\n        /* \"#utility.yul\":5542:5681   */\n      swap3\n      swap2\n      pop\n      pop\n      jump\t// out\n        /* \"#utility.yul\":5687:6016   */\n    tag_36:\n        /* \"#utility.yul\":5746:5752   */\n      0x00\n        /* \"#utility.yul\":5795:5797   */\n      0x20\n        /* \"#utility.yul\":5783:5792   */\n      dup3\n        /* \"#utility.yul\":5774:5781   */\n      dup5\n        /* \"#utility.yul\":5770:5793   */\n      sub\n        /* \"#utility.yul\":5766:5798   */\n      slt\n        /* \"#utility.yul\":5763:5882   */\n      iszero\n      tag_149\n      jumpi\n        /* \"#utility.yul\":5801:5880   */\n      tag_150\n      tag_57\n      jump\t// in\n    tag_150:\n        /* \"#utility.yul\":5763:5882   */\n    tag_149:\n        /* \"#utility.yul\":5921:5922   */\n      0x00\n        /* \"#utility.yul\":5946:5999   */\n      tag_151\n        /* \"#utility.yul\":5991:5998   */\n      dup5\n        /* \"#utility.yul\":5982:5988   */\n      dup3\n        /* \"#utility.yul\":5971:5980   */\n      dup6\n        /* \"#utility.yul\":5967:5989   */\n      add\n        /* \"#utility.yul\":5946:5999   */\n      tag_74\n      jump\t// in\n    tag_151:\n        /* \"#utility.yul\":5936:5999   */\n      swap2\n      pop\n        /* \"#utility.yul\":5892:6009   */\n      pop\n        /* \"#utility.yul\":5687:6016   */\n      swap3\n      swap2\n      pop\n      pop\n      jump\t// out\n        /* \"#utility.yul\":6022:6170   */\n    tag_75:\n        /* \"#utility.yul\":6124:6135   */\n      0x00\n        /* \"#utility.yul\":6161:6164   */\n      dup2\n        /* \"#utility.yul\":6146:6164   */\n      swap1\n      pop\n        /* \"#utility.yul\":6022:6170   */\n      swap3\n      swap2\n      pop\n      pop\n      jump\t// out\n        /* \"#utility.yul\":6176:6553   */\n    tag_76:\n        /* \"#utility.yul\":6282:6285   */\n      0x00\n        /* \"#utility.yul\":6310:6349   */\n      tag_154\n        /* \"#utility.yul\":6343:6348   */\n      dup3\n        /* \"#utility.yul\":6310:6349   */\n      tag_69\n      jump\t// in\n    tag_154:\n        /* \"#utility.yul\":6365:6454   */\n      tag_155\n        /* \"#utility.yul\":6447:6453   */\n      dup2\n        /* \"#utility.yul\":6442:6445   */\n      dup6\n        /* \"#utility.yul\":6365:6454   */\n      tag_75\n      jump\t// in\n    tag_155:\n        /* \"#utility.yul\":6358:6454   */\n      swap4\n      pop\n        /* \"#utility.yul\":6463:6515   */\n      tag_156\n        /* \"#utility.yul\":6508:6514   */\n      dup2\n        /* \"#utility.yul\":6503:6506   */\n      dup6\n        /* \"#utility.yul\":6496:6500   */\n      0x20\n        /* \"#utility.yul\":6489:6494   */\n      dup7\n        /* \"#utility.yul\":6485:6501   */\n      add\n        /* \"#utility.yul\":6463:6515   */\n      tag_71\n      jump\t// in\n    tag_156:\n        /* \"#utility.yul\":6540:6546   */\n      dup1\n        /* \"#utility.yul\":6535:6538   */\n      dup5\n        /* \"#utility.yul\":6531:6547   */\n      add\n        /* \"#utility.yul\":6524:6547   */\n      swap2\n      pop\n        /* \"#utility.yul\":6286:6553   */\n      pop\n        /* \"#utility.yul\":6176:6553   */\n      swap3\n      swap2\n      pop\n      pop\n      jump\t// out\n        /* \"#utility.yul\":6559:6994   */\n    tag_42:\n        /* \"#utility.yul\":6739:6742   */\n      0x00\n        /* \"#utility.yul\":6761:6856   */\n      tag_158\n        /* \"#utility.yul\":6852:6855   */\n      dup3\n        /* \"#utility.yul\":6843:6849   */\n      dup6\n        /* \"#utility.yul\":6761:6856   */\n      tag_76\n      jump\t// in\n    tag_158:\n        /* \"#utility.yul\":6754:6856   */\n      swap2\n      pop\n        /* \"#utility.yul\":6873:6968   */\n      tag_159\n        /* \"#utility.yul\":6964:6967   */\n      dup3\n        /* \"#utility.yul\":6955:6961   */\n      dup5\n        /* \"#utility.yul\":6873:6968   */\n      tag_76\n      jump\t// in\n    tag_159:\n        /* \"#utility.yul\":6866:6968   */\n      swap2\n      pop\n        /* \"#utility.yul\":6985:6988   */\n      dup2\n        /* \"#utility.yul\":6978:6988   */\n      swap1\n      pop\n        /* \"#utility.yul\":6559:6994   */\n      swap4\n      swap3\n      pop\n      pop\n      pop\n      jump\t// out\n        /* \"#utility.yul\":7000:7222   */\n    tag_77:\n        /* \"#utility.yul\":7140:7174   */\n      0x46756e6420726169736572206973206e6f742063757272656e746c7920616374\n        /* \"#utility.yul\":7136:7137   */\n      0x00\n        /* \"#utility.yul\":7128:7134   */\n      dup3\n        /* \"#utility.yul\":7124:7138   */\n      add\n        /* \"#utility.yul\":7117:7175   */\n      mstore\n        /* \"#utility.yul\":7209:7214   */\n      0x6976650000000000000000000000000000000000000000000000000000000000\n        /* \"#utility.yul\":7204:7206   */\n      0x20\n        /* \"#utility.yul\":7196:7202   */\n      dup3\n        /* \"#utility.yul\":7192:7207   */\n      add\n        /* \"#utility.yul\":7185:7215   */\n      mstore\n        /* \"#utility.yul\":7000:7222   */\n      pop\n      jump\t// out\n        /* \"#utility.yul\":7228:7594   */\n    tag_78:\n        /* \"#utility.yul\":7370:7373   */\n      0x00\n        /* \"#utility.yul\":7391:7458   */\n      tag_162\n        /* \"#utility.yul\":7455:7457   */\n      0x23\n        /* \"#utility.yul\":7450:7453   */\n      dup4\n        /* \"#utility.yul\":7391:7458   */\n      tag_70\n      jump\t// in\n    tag_162:\n        /* \"#utility.yul\":7384:7458   */\n      swap2\n      pop\n        /* \"#utility.yul\":7467:7560   */\n      tag_163\n        /* \"#utility.yul\":7556:7559   */\n      dup3\n        /* \"#utility.yul\":7467:7560   */\n      tag_77\n      jump\t// in\n    tag_163:\n        /* \"#utility.yul\":7585:7587   */\n      0x40\n        /* \"#utility.yul\":7580:7583   */\n      dup3\n        /* \"#utility.yul\":7576:7588   */\n      add\n        /* \"#utility.yul\":7569:7588   */\n      swap1\n      pop\n        /* \"#utility.yul\":7228:7594   */\n      swap2\n      swap1\n      pop\n      jump\t// out\n        /* \"#utility.yul\":7600:8019   */\n    tag_47:\n        /* \"#utility.yul\":7766:7770   */\n      0x00\n        /* \"#utility.yul\":7804:7806   */\n      0x20\n        /* \"#utility.yul\":7793:7802   */\n      dup3\n        /* \"#utility.yul\":7789:7807   */\n      add\n        /* \"#utility.yul\":7781:7807   */\n      swap1\n      pop\n        /* \"#utility.yul\":7853:7862   */\n      dup2\n        /* \"#utility.yul\":7847:7851   */\n      dup2\n        /* \"#utility.yul\":7843:7863   */\n      sub\n        /* \"#utility.yul\":7839:7840   */\n      0x00\n        /* \"#utility.yul\":7828:7837   */\n      dup4\n        /* \"#utility.yul\":7824:7841   */\n      add\n        /* \"#utility.yul\":7817:7864   */\n      mstore\n        /* \"#utility.yul\":7881:8012   */\n      tag_165\n        /* \"#utility.yul\":8007:8011   */\n      dup2\n        /* \"#utility.yul\":7881:8012   */\n      tag_78\n      jump\t// in\n    tag_165:\n        /* \"#utility.yul\":7873:8012   */\n      swap1\n      pop\n        /* \"#utility.yul\":7600:8019   */\n      swap2\n      swap1\n      pop\n      jump\t// out\n        /* \"#utility.yul\":8025:8194   */\n    tag_79:\n        /* \"#utility.yul\":8165:8186   */\n      0x446964206e6f742073656e6420656e6f75676800000000000000000000000000\n        /* \"#utility.yul\":8161:8162   */\n      0x00\n        /* \"#utility.yul\":8153:8159   */\n      dup3\n        /* \"#utility.yul\":8149:8163   */\n      add\n        /* \"#utility.yul\":8142:8187   */\n      mstore\n        /* \"#utility.yul\":8025:8194   */\n      pop\n      jump\t// out\n        /* \"#utility.yul\":8200:8566   */\n    tag_80:\n        /* \"#utility.yul\":8342:8345   */\n      0x00\n        /* \"#utility.yul\":8363:8430   */\n      tag_168\n        /* \"#utility.yul\":8427:8429   */\n      0x13\n        /* \"#utility.yul\":8422:8425   */\n      dup4\n        /* \"#utility.yul\":8363:8430   */\n      tag_70\n      jump\t// in\n    tag_168:\n        /* \"#utility.yul\":8356:8430   */\n      swap2\n      pop\n        /* \"#utility.yul\":8439:8532   */\n      tag_169\n        /* \"#utility.yul\":8528:8531   */\n      dup3\n        /* \"#utility.yul\":8439:8532   */\n      tag_79\n      jump\t// in\n    tag_169:\n        /* \"#utility.yul\":8557:8559   */\n      0x20\n        /* \"#utility.yul\":8552:8555   */\n      dup3\n        /* \"#utility.yul\":8548:8560   */\n      add\n        /* \"#utility.yul\":8541:8560   */\n      swap1\n      pop\n        /* \"#utility.yul\":8200:8566   */\n      swap2\n      swap1\n      pop\n      jump\t// out\n        /* \"#utility.yul\":8572:8991   */\n    tag_50:\n        /* \"#utility.yul\":8738:8742   */\n      0x00\n        /* \"#utility.yul\":8776:8778   */\n      0x20\n        /* \"#utility.yul\":8765:8774   */\n      dup3\n        /* \"#utility.yul\":8761:8779   */\n      add\n        /* \"#utility.yul\":8753:8779   */\n      swap1\n      pop\n        /* \"#utility.yul\":8825:8834   */\n      dup2\n        /* \"#utility.yul\":8819:8823   */\n      dup2\n        /* \"#utility.yul\":8815:8835   */\n      sub\n        /* \"#utility.yul\":8811:8812   */\n      0x00\n        /* \"#utility.yul\":8800:8809   */\n      dup4\n        /* \"#utility.yul\":8796:8813   */\n      add\n        /* \"#utility.yul\":8789:8836   */\n      mstore\n        /* \"#utility.yul\":8853:8984   */\n      tag_171\n        /* \"#utility.yul\":8979:8983   */\n      dup2\n        /* \"#utility.yul\":8853:8984   */\n      tag_80\n      jump\t// in\n    tag_171:\n        /* \"#utility.yul\":8845:8984   */\n      swap1\n      pop\n        /* \"#utility.yul\":8572:8991   */\n      swap2\n      swap1\n      pop\n      jump\t// out\n\n    auxdata: 0xa2646970667358221220e68a42072000c2bc4cd345ece501a9fd40700eee1672994ca553b0f06a34c8f864736f6c63430008080033\n}\n",
				"bytecode": {
					"linkReferences": {},
					"object": "6080604052604051806040016040528060001515815260200160008152506000808201518160000160006101000a81548160ff02191690831515021790555060208201518160010155505034801561005657600080fd5b5061070d806100666000396000f3fe6080604052600436106100705760003560e01c80637a36b3ee1161004e5780637a36b3ee146100cf57806382c9e8361461010c578063b60d428814610123578063e7bbc3161461012d57610070565b80631dc19190146100755780633ccfd60b146100a157806374143a6c146100b8575b600080fd5b34801561008157600080fd5b5061008a610156565b60405161009892919061027b565b60405180910390f35b3480156100ad57600080fd5b506100b6610175565b005b3480156100c457600080fd5b506100cd610177565b005b3480156100db57600080fd5b506100f660048036038101906100f191906103fe565b610179565b60405161010391906104fe565b60405180910390f35b34801561011857600080fd5b506101216101a5565b005b61012b6101a7565b005b34801561013957600080fd5b50610154600480360381019061014f919061054c565b610244565b005b60008060000160009054906101000a900460ff16908060010154905082565b565b565b6060828260405160200161018e9291906105b5565b604051602081830303815290604052905092915050565b565b6000800160009054906101000a900460ff166101f8576040517f08c379a00000000000000000000000000000000000000000000000000000000081526004016101ef9061064b565b60405180910390fd5b670de0b6b3a76400003411610242576040517f08c379a0000000000000000000000000000000000000000000000000000000008152600401610239906106b7565b60405180910390fd5b565b50565b60008115159050919050565b61025c81610247565b82525050565b6000819050919050565b61027581610262565b82525050565b60006040820190506102906000830185610253565b61029d602083018461026c565b9392505050565b6000604051905090565b600080fd5b600080fd5b600080fd5b600080fd5b6000601f19601f8301169050919050565b7f4e487b7100000000000000000000000000000000000000000000000000000000600052604160045260246000fd5b61030b826102c2565b810181811067ffffffffffffffff8211171561032a576103296102d3565b5b80604052505050565b600061033d6102a4565b90506103498282610302565b919050565b600067ffffffffffffffff821115610369576103686102d3565b5b610372826102c2565b9050602081019050919050565b82818337600083830152505050565b60006103a161039c8461034e565b610333565b9050828152602081018484840111156103bd576103bc6102bd565b5b6103c884828561037f565b509392505050565b600082601f8301126103e5576103e46102b8565b5b81356103f584826020860161038e565b91505092915050565b60008060408385031215610415576104146102ae565b5b600083013567ffffffffffffffff811115610433576104326102b3565b5b61043f858286016103d0565b925050602083013567ffffffffffffffff8111156104605761045f6102b3565b5b61046c858286016103d0565b9150509250929050565b600081519050919050565b600082825260208201905092915050565b60005b838110156104b0578082015181840152602081019050610495565b838111156104bf576000848401525b50505050565b60006104d082610476565b6104da8185610481565b93506104ea818560208601610492565b6104f3816102c2565b840191505092915050565b6000602082019050818103600083015261051881846104c5565b905092915050565b61052981610262565b811461053457600080fd5b50565b60008135905061054681610520565b92915050565b600060208284031215610562576105616102ae565b5b600061057084828501610537565b91505092915050565b600081905092915050565b600061058f82610476565b6105998185610579565b93506105a9818560208601610492565b80840191505092915050565b60006105c18285610584565b91506105cd8284610584565b91508190509392505050565b7f46756e6420726169736572206973206e6f742063757272656e746c792061637460008201527f6976650000000000000000000000000000000000000000000000000000000000602082015250565b6000610635602383610481565b9150610640826105d9565b604082019050919050565b6000602082019050818103600083015261066481610628565b9050919050565b7f446964206e6f742073656e6420656e6f75676800000000000000000000000000600082015250565b60006106a1601383610481565b91506106ac8261066b565b602082019050919050565b600060208201905081810360008301526106d081610694565b905091905056fea2646970667358221220e68a42072000c2bc4cd345ece501a9fd40700eee1672994ca553b0f06a34c8f864736f6c63430008080033",
					"opcodes": "PUSH1 0x80 PUSH1 0x40 MSTORE PUSH1 0x40 MLOAD DUP1 PUSH1 0x40 ADD PUSH1 0x40 MSTORE DUP1 PUSH1 0x0 ISZERO ISZERO DUP2 MSTORE PUSH1 0x20 ADD PUSH1 0x0 DUP2 MSTORE POP PUSH1 0x0 DUP1 DUP3 ADD MLOAD DUP2 PUSH1 0x0 ADD PUSH1 0x0 PUSH2 0x100 EXP DUP2 SLOAD DUP2 PUSH1 0xFF MUL NOT AND SWAP1 DUP4 ISZERO ISZERO MUL OR SWAP1 SSTORE POP PUSH1 0x20 DUP3 ADD MLOAD DUP2 PUSH1 0x1 ADD SSTORE POP POP CALLVALUE DUP1 ISZERO PUSH2 0x56 JUMPI PUSH1 0x0 DUP1 REVERT JUMPDEST POP PUSH2 0x70D DUP1 PUSH2 0x66 PUSH1 0x0 CODECOPY PUSH1 0x0 RETURN INVALID PUSH1 0x80 PUSH1 0x40 MSTORE PUSH1 0x4 CALLDATASIZE LT PUSH2 0x70 JUMPI PUSH1 0x0 CALLDATALOAD PUSH1 0xE0 SHR DUP1 PUSH4 0x7A36B3EE GT PUSH2 0x4E JUMPI DUP1 PUSH4 0x7A36B3EE EQ PUSH2 0xCF JUMPI DUP1 PUSH4 0x82C9E836 EQ PUSH2 0x10C JUMPI DUP1 PUSH4 0xB60D4288 EQ PUSH2 0x123 JUMPI DUP1 PUSH4 0xE7BBC316 EQ PUSH2 0x12D JUMPI PUSH2 0x70 JUMP JUMPDEST DUP1 PUSH4 0x1DC19190 EQ PUSH2 0x75 JUMPI DUP1 PUSH4 0x3CCFD60B EQ PUSH2 0xA1 JUMPI DUP1 PUSH4 0x74143A6C EQ PUSH2 0xB8 JUMPI JUMPDEST PUSH1 0x0 DUP1 REVERT JUMPDEST CALLVALUE DUP1 ISZERO PUSH2 0x81 JUMPI PUSH1 0x0 DUP1 REVERT JUMPDEST POP PUSH2 0x8A PUSH2 0x156 JUMP JUMPDEST PUSH1 0x40 MLOAD PUSH2 0x98 SWAP3 SWAP2 SWAP1 PUSH2 0x27B JUMP JUMPDEST PUSH1 0x40 MLOAD DUP1 SWAP2 SUB SWAP1 RETURN JUMPDEST CALLVALUE DUP1 ISZERO PUSH2 0xAD JUMPI PUSH1 0x0 DUP1 REVERT JUMPDEST POP PUSH2 0xB6 PUSH2 0x175 JUMP JUMPDEST STOP JUMPDEST CALLVALUE DUP1 ISZERO PUSH2 0xC4 JUMPI PUSH1 0x0 DUP1 REVERT JUMPDEST POP PUSH2 0xCD PUSH2 0x177 JUMP JUMPDEST STOP JUMPDEST CALLVALUE DUP1 ISZERO PUSH2 0xDB JUMPI PUSH1 0x0 DUP1 REVERT JUMPDEST POP PUSH2 0xF6 PUSH1 0x4 DUP1 CALLDATASIZE SUB DUP2 ADD SWAP1 PUSH2 0xF1 SWAP2 SWAP1 PUSH2 0x3FE JUMP JUMPDEST PUSH2 0x179 JUMP JUMPDEST PUSH1 0x40 MLOAD PUSH2 0x103 SWAP2 SWAP1 PUSH2 0x4FE JUMP JUMPDEST PUSH1 0x40 MLOAD DUP1 SWAP2 SUB SWAP1 RETURN JUMPDEST CALLVALUE DUP1 ISZERO PUSH2 0x118 JUMPI PUSH1 0x0 DUP1 REVERT JUMPDEST POP PUSH2 0x121 PUSH2 0x1A5 JUMP JUMPDEST STOP JUMPDEST PUSH2 0x12B PUSH2 0x1A7 JUMP JUMPDEST STOP JUMPDEST CALLVALUE DUP1 ISZERO PUSH2 0x139 JUMPI PUSH1 0x0 DUP1 REVERT JUMPDEST POP PUSH2 0x154 PUSH1 0x4 DUP1 CALLDATASIZE SUB DUP2 ADD SWAP1 PUSH2 0x14F SWAP2 SWAP1 PUSH2 0x54C JUMP JUMPDEST PUSH2 0x244 JUMP JUMPDEST STOP JUMPDEST PUSH1 0x0 DUP1 PUSH1 0x0 ADD PUSH1 0x0 SWAP1 SLOAD SWAP1 PUSH2 0x100 EXP SWAP1 DIV PUSH1 0xFF AND SWAP1 DUP1 PUSH1 0x1 ADD SLOAD SWAP1 POP DUP3 JUMP JUMPDEST JUMP JUMPDEST JUMP JUMPDEST PUSH1 0x60 DUP3 DUP3 PUSH1 0x40 MLOAD PUSH1 0x20 ADD PUSH2 0x18E SWAP3 SWAP2 SWAP1 PUSH2 0x5B5 JUMP JUMPDEST PUSH1 0x40 MLOAD PUSH1 0x20 DUP2 DUP4 SUB SUB DUP2 MSTORE SWAP1 PUSH1 0x40 MSTORE SWAP1 POP SWAP3 SWAP2 POP POP JUMP JUMPDEST JUMP JUMPDEST PUSH1 0x0 DUP1 ADD PUSH1 0x0 SWAP1 SLOAD SWAP1 PUSH2 0x100 EXP SWAP1 DIV PUSH1 0xFF AND PUSH2 0x1F8 JUMPI PUSH1 0x40 MLOAD PUSH32 0x8C379A000000000000000000000000000000000000000000000000000000000 DUP2 MSTORE PUSH1 0x4 ADD PUSH2 0x1EF SWAP1 PUSH2 0x64B JUMP JUMPDEST PUSH1 0x40 MLOAD DUP1 SWAP2 SUB SWAP1 REVERT JUMPDEST PUSH8 0xDE0B6B3A7640000 CALLVALUE GT PUSH2 0x242 JUMPI PUSH1 0x40 MLOAD PUSH32 0x8C379A000000000000000000000000000000000000000000000000000000000 DUP2 MSTORE PUSH1 0x4 ADD PUSH2 0x239 SWAP1 PUSH2 0x6B7 JUMP JUMPDEST PUSH1 0x40 MLOAD DUP1 SWAP2 SUB SWAP1 REVERT JUMPDEST JUMP JUMPDEST POP JUMP JUMPDEST PUSH1 0x0 DUP2 ISZERO ISZERO SWAP1 POP SWAP2 SWAP1 POP JUMP JUMPDEST PUSH2 0x25C DUP2 PUSH2 0x247 JUMP JUMPDEST DUP3 MSTORE POP POP JUMP JUMPDEST PUSH1 0x0 DUP2 SWAP1 POP SWAP2 SWAP1 POP JUMP JUMPDEST PUSH2 0x275 DUP2 PUSH2 0x262 JUMP JUMPDEST DUP3 MSTORE POP POP JUMP JUMPDEST PUSH1 0x0 PUSH1 0x40 DUP3 ADD SWAP1 POP PUSH2 0x290 PUSH1 0x0 DUP4 ADD DUP6 PUSH2 0x253 JUMP JUMPDEST PUSH2 0x29D PUSH1 0x20 DUP4 ADD DUP5 PUSH2 0x26C JUMP JUMPDEST SWAP4 SWAP3 POP POP POP JUMP JUMPDEST PUSH1 0x0 PUSH1 0x40 MLOAD SWAP1 POP SWAP1 JUMP JUMPDEST PUSH1 0x0 DUP1 REVERT JUMPDEST PUSH1 0x0 DUP1 REVERT JUMPDEST PUSH1 0x0 DUP1 REVERT JUMPDEST PUSH1 0x0 DUP1 REVERT JUMPDEST PUSH1 0x0 PUSH1 0x1F NOT PUSH1 0x1F DUP4 ADD AND SWAP1 POP SWAP2 SWAP1 POP JUMP JUMPDEST PUSH32 0x4E487B7100000000000000000000000000000000000000000000000000000000 PUSH1 0x0 MSTORE PUSH1 0x41 PUSH1 0x4 MSTORE PUSH1 0x24 PUSH1 0x0 REVERT JUMPDEST PUSH2 0x30B DUP3 PUSH2 0x2C2 JUMP JUMPDEST DUP2 ADD DUP2 DUP2 LT PUSH8 0xFFFFFFFFFFFFFFFF DUP3 GT OR ISZERO PUSH2 0x32A JUMPI PUSH2 0x329 PUSH2 0x2D3 JUMP JUMPDEST JUMPDEST DUP1 PUSH1 0x40 MSTORE POP POP POP JUMP JUMPDEST PUSH1 0x0 PUSH2 0x33D PUSH2 0x2A4 JUMP JUMPDEST SWAP1 POP PUSH2 0x349 DUP3 DUP3 PUSH2 0x302 JUMP JUMPDEST SWAP2 SWAP1 POP JUMP JUMPDEST PUSH1 0x0 PUSH8 0xFFFFFFFFFFFFFFFF DUP3 GT ISZERO PUSH2 0x369 JUMPI PUSH2 0x368 PUSH2 0x2D3 JUMP JUMPDEST JUMPDEST PUSH2 0x372 DUP3 PUSH2 0x2C2 JUMP JUMPDEST SWAP1 POP PUSH1 0x20 DUP2 ADD SWAP1 POP SWAP2 SWAP1 POP JUMP JUMPDEST DUP3 DUP2 DUP4 CALLDATACOPY PUSH1 0x0 DUP4 DUP4 ADD MSTORE POP POP POP JUMP JUMPDEST PUSH1 0x0 PUSH2 0x3A1 PUSH2 0x39C DUP5 PUSH2 0x34E JUMP JUMPDEST PUSH2 0x333 JUMP JUMPDEST SWAP1 POP DUP3 DUP2 MSTORE PUSH1 0x20 DUP2 ADD DUP5 DUP5 DUP5 ADD GT ISZERO PUSH2 0x3BD JUMPI PUSH2 0x3BC PUSH2 0x2BD JUMP JUMPDEST JUMPDEST PUSH2 0x3C8 DUP5 DUP3 DUP6 PUSH2 0x37F JUMP JUMPDEST POP SWAP4 SWAP3 POP POP POP JUMP JUMPDEST PUSH1 0x0 DUP3 PUSH1 0x1F DUP4 ADD SLT PUSH2 0x3E5 JUMPI PUSH2 0x3E4 PUSH2 0x2B8 JUMP JUMPDEST JUMPDEST DUP2 CALLDATALOAD PUSH2 0x3F5 DUP5 DUP3 PUSH1 0x20 DUP7 ADD PUSH2 0x38E JUMP JUMPDEST SWAP2 POP POP SWAP3 SWAP2 POP POP JUMP JUMPDEST PUSH1 0x0 DUP1 PUSH1 0x40 DUP4 DUP6 SUB SLT ISZERO PUSH2 0x415 JUMPI PUSH2 0x414 PUSH2 0x2AE JUMP JUMPDEST JUMPDEST PUSH1 0x0 DUP4 ADD CALLDATALOAD PUSH8 0xFFFFFFFFFFFFFFFF DUP2 GT ISZERO PUSH2 0x433 JUMPI PUSH2 0x432 PUSH2 0x2B3 JUMP JUMPDEST JUMPDEST PUSH2 0x43F DUP6 DUP3 DUP7 ADD PUSH2 0x3D0 JUMP JUMPDEST SWAP3 POP POP PUSH1 0x20 DUP4 ADD CALLDATALOAD PUSH8 0xFFFFFFFFFFFFFFFF DUP2 GT ISZERO PUSH2 0x460 JUMPI PUSH2 0x45F PUSH2 0x2B3 JUMP JUMPDEST JUMPDEST PUSH2 0x46C DUP6 DUP3 DUP7 ADD PUSH2 0x3D0 JUMP JUMPDEST SWAP2 POP POP SWAP3 POP SWAP3 SWAP1 POP JUMP JUMPDEST PUSH1 0x0 DUP2 MLOAD SWAP1 POP SWAP2 SWAP1 POP JUMP JUMPDEST PUSH1 0x0 DUP3 DUP3 MSTORE PUSH1 0x20 DUP3 ADD SWAP1 POP SWAP3 SWAP2 POP POP JUMP JUMPDEST PUSH1 0x0 JUMPDEST DUP4 DUP2 LT ISZERO PUSH2 0x4B0 JUMPI DUP1 DUP3 ADD MLOAD DUP2 DUP5 ADD MSTORE PUSH1 0x20 DUP2 ADD SWAP1 POP PUSH2 0x495 JUMP JUMPDEST DUP4 DUP2 GT ISZERO PUSH2 0x4BF JUMPI PUSH1 0x0 DUP5 DUP5 ADD MSTORE JUMPDEST POP POP POP POP JUMP JUMPDEST PUSH1 0x0 PUSH2 0x4D0 DUP3 PUSH2 0x476 JUMP JUMPDEST PUSH2 0x4DA DUP2 DUP6 PUSH2 0x481 JUMP JUMPDEST SWAP4 POP PUSH2 0x4EA DUP2 DUP6 PUSH1 0x20 DUP7 ADD PUSH2 0x492 JUMP JUMPDEST PUSH2 0x4F3 DUP2 PUSH2 0x2C2 JUMP JUMPDEST DUP5 ADD SWAP2 POP POP SWAP3 SWAP2 POP POP JUMP JUMPDEST PUSH1 0x0 PUSH1 0x20 DUP3 ADD SWAP1 POP DUP2 DUP2 SUB PUSH1 0x0 DUP4 ADD MSTORE PUSH2 0x518 DUP2 DUP5 PUSH2 0x4C5 JUMP JUMPDEST SWAP1 POP SWAP3 SWAP2 POP POP JUMP JUMPDEST PUSH2 0x529 DUP2 PUSH2 0x262 JUMP JUMPDEST DUP2 EQ PUSH2 0x534 JUMPI PUSH1 0x0 DUP1 REVERT JUMPDEST POP JUMP JUMPDEST PUSH1 0x0 DUP2 CALLDATALOAD SWAP1 POP PUSH2 0x546 DUP2 PUSH2 0x520 JUMP JUMPDEST SWAP3 SWAP2 POP POP JUMP JUMPDEST PUSH1 0x0 PUSH1 0x20 DUP3 DUP5 SUB SLT ISZERO PUSH2 0x562 JUMPI PUSH2 0x561 PUSH2 0x2AE JUMP JUMPDEST JUMPDEST PUSH1 0x0 PUSH2 0x570 DUP5 DUP3 DUP6 ADD PUSH2 0x537 JUMP JUMPDEST SWAP2 POP POP SWAP3 SWAP2 POP POP JUMP JUMPDEST PUSH1 0x0 DUP2 SWAP1 POP SWAP3 SWAP2 POP POP JUMP JUMPDEST PUSH1 0x0 PUSH2 0x58F DUP3 PUSH2 0x476 JUMP JUMPDEST PUSH2 0x599 DUP2 DUP6 PUSH2 0x579 JUMP JUMPDEST SWAP4 POP PUSH2 0x5A9 DUP2 DUP6 PUSH1 0x20 DUP7 ADD PUSH2 0x492 JUMP JUMPDEST DUP1 DUP5 ADD SWAP2 POP POP SWAP3 SWAP2 POP POP JUMP JUMPDEST PUSH1 0x0 PUSH2 0x5C1 DUP3 DUP6 PUSH2 0x584 JUMP JUMPDEST SWAP2 POP PUSH2 0x5CD DUP3 DUP5 PUSH2 0x584 JUMP JUMPDEST SWAP2 POP DUP2 SWAP1 POP SWAP4 SWAP3 POP POP POP JUMP JUMPDEST PUSH32 0x46756E6420726169736572206973206E6F742063757272656E746C7920616374 PUSH1 0x0 DUP3 ADD MSTORE PUSH32 0x6976650000000000000000000000000000000000000000000000000000000000 PUSH1 0x20 DUP3 ADD MSTORE POP JUMP JUMPDEST PUSH1 0x0 PUSH2 0x635 PUSH1 0x23 DUP4 PUSH2 0x481 JUMP JUMPDEST SWAP2 POP PUSH2 0x640 DUP3 PUSH2 0x5D9 JUMP JUMPDEST PUSH1 0x40 DUP3 ADD SWAP1 POP SWAP2 SWAP1 POP JUMP JUMPDEST PUSH1 0x0 PUSH1 0x20 DUP3 ADD SWAP1 POP DUP2 DUP2 SUB PUSH1 0x0 DUP4 ADD MSTORE PUSH2 0x664 DUP2 PUSH2 0x628 JUMP JUMPDEST SWAP1 POP SWAP2 SWAP1 POP JUMP JUMPDEST PUSH32 0x446964206E6F742073656E6420656E6F75676800000000000000000000000000 PUSH1 0x0 DUP3 ADD MSTORE POP JUMP JUMPDEST PUSH1 0x0 PUSH2 0x6A1 PUSH1 0x13 DUP4 PUSH2 0x481 JUMP JUMPDEST SWAP2 POP PUSH2 0x6AC DUP3 PUSH2 0x66B JUMP JUMPDEST PUSH1 0x20 DUP3 ADD SWAP1 POP SWAP2 SWAP1 POP JUMP JUMPDEST PUSH1 0x0 PUSH1 0x20 DUP3 ADD SWAP1 POP DUP2 DUP2 SUB PUSH1 0x0 DUP4 ADD MSTORE PUSH2 0x6D0 DUP2 PUSH2 0x694 JUMP JUMPDEST SWAP1 POP SWAP2 SWAP1 POP JUMP INVALID LOG2 PUSH5 0x6970667358 0x22 SLT KECCAK256 0xE6 DUP11 TIMESTAMP SMOD KECCAK256 STOP 0xC2 0xBC 0x4C 0xD3 GASLIMIT 0xEC 0xE5 ADD 0xA9 REVERT BLOCKHASH PUSH17 0xEEE1672994CA553B0F06A34C8F864736F PUSH13 0x63430008080033000000000000 "
				},
				"gasEstimates": {
					"creation": {
						"codeDepositCost": "361000",
						"executionCost": "29765",
						"totalCost": "390765"
					},
					"external": {
						"concatenateStrings(string,string)": "infinite",
						"endFundRaiser()": "166",
						"fund()": "2634",
						"fundRaiserStatus()": "4698",
						"startFundRaiser(uint256)": "472",
						"viewListOfFundings()": "189",
						"withdraw()": "167"
					}
				},
				"methodIdentifiers": {
					"concatenateStrings(string,string)": "7a36b3ee",
					"endFundRaiser()": "82c9e836",
					"fund()": "b60d4288",
					"fundRaiserStatus()": "1dc19190",
					"startFundRaiser(uint256)": "e7bbc316",
					"viewListOfFundings()": "74143a6c",
					"withdraw()": "3ccfd60b"
				}
			},
			"storageLayout": {
				"storage": [
					{
						"astId": 13,
						"contract": "contracts/FundMe.sol:FundMe",
						"label": "fundRaiserStatus",
						"offset": 0,
						"slot": "0",
						"type": "t_struct(FundRaiserStatus)6_storage"
					}
				],
				"types": {
					"t_bool": {
						"encoding": "inplace",
						"label": "bool",
						"numberOfBytes": "1"
					},
					"t_struct(FundRaiserStatus)6_storage": {
						"encoding": "inplace",
						"label": "struct FundMe.FundRaiserStatus",
						"members": [
							{
								"astId": 3,
								"contract": "contracts/FundMe.sol:FundMe",
								"label": "active",
								"offset": 0,
								"slot": "0",
								"type": "t_bool"
							},
							{
								"astId": 5,
								"contract": "contracts/FundMe.sol:FundMe",
								"label": "minAmount",
								"offset": 0,
								"slot": "1",
								"type": "t_uint256"
							}
						],
						"numberOfBytes": "64"
					},
					"t_uint256": {
						"encoding": "inplace",
						"label": "uint256",
						"numberOfBytes": "32"
					}
				}
			},
			"userdoc": {
				"kind": "user",
				"methods": {},
				"version": 1
			}
		}
	}
}