{
	"contracts/SimpleStorage.sol": {
		"SimpleStorage": {
			"abi": [
				{
					"inputs": [
						{
							"internalType": "string",
							"name": "_name",
							"type": "string"
						},
						{
							"internalType": "string",
							"name": "_favoriteColor",
							"type": "string"
						}
					],
					"name": "addFriend",
					"outputs": [],
					"stateMutability": "nonpayable",
					"type": "function"
				},
				{
					"inputs": [
						{
							"internalType": "uint256",
							"name": "",
							"type": "uint256"
						}
					],
					"name": "friends",
					"outputs": [
						{
							"internalType": "string",
							"name": "favoriteColor",
							"type": "string"
						},
						{
							"internalType": "string",
							"name": "name",
							"type": "string"
						}
					],
					"stateMutability": "view",
					"type": "function"
				},
				{
					"inputs": [
						{
							"internalType": "string",
							"name": "",
							"type": "string"
						}
					],
					"name": "nameTofavoriteColor",
					"outputs": [
						{
							"internalType": "string",
							"name": "",
							"type": "string"
						}
					],
					"stateMutability": "view",
					"type": "function"
				},
				{
					"inputs": [],
					"name": "retrieve",
					"outputs": [
						{
							"internalType": "uint256",
							"name": "",
							"type": "uint256"
						}
					],
					"stateMutability": "view",
					"type": "function"
				},
				{
					"inputs": [
						{
							"internalType": "uint256",
							"name": "_favoriteColor",
							"type": "uint256"
						}
					],
					"name": "store",
					"outputs": [],
					"stateMutability": "nonpayable",
					"type": "function"
				}
			],
			"devdoc": {
				"kind": "dev",
				"methods": {},
				"version": 1
			},
			"evm": {
				"assembly": "    /* \"contracts/SimpleStorage.sol\":94:780  contract SimpleStorage {... */\n  mstore(0x40, 0x80)\n  callvalue\n  dup1\n  iszero\n  tag_1\n  jumpi\n  0x00\n  dup1\n  revert\ntag_1:\n  pop\n  dataSize(sub_0)\n  dup1\n  dataOffset(sub_0)\n  0x00\n  codecopy\n  0x00\n  return\nstop\n\nsub_0: assembly {\n        /* \"contracts/SimpleStorage.sol\":94:780  contract SimpleStorage {... */\n      mstore(0x40, 0x80)\n      callvalue\n      dup1\n      iszero\n      tag_1\n      jumpi\n      0x00\n      dup1\n      revert\n    tag_1:\n      pop\n      jumpi(tag_2, lt(calldatasize, 0x04))\n      shr(0xe0, calldataload(0x00))\n      dup1\n      0x2e64cec1\n      eq\n      tag_3\n      jumpi\n      dup1\n      0x6057361d\n      eq\n      tag_4\n      jumpi\n      dup1\n      0x723ce4d9\n      eq\n      tag_5\n      jumpi\n      dup1\n      0xb50aee80\n      eq\n      tag_6\n      jumpi\n      dup1\n      0xce146828\n      eq\n      tag_7\n      jumpi\n    tag_2:\n      0x00\n      dup1\n      revert\n        /* \"contracts/SimpleStorage.sol\":486:574  function retrieve() public view returns(uint256) {... */\n    tag_3:\n      tag_8\n      tag_9\n      jump\t// in\n    tag_8:\n      mload(0x40)\n      tag_10\n      swap2\n      swap1\n      tag_11\n      jump\t// in\n    tag_10:\n      mload(0x40)\n      dup1\n      swap2\n      sub\n      swap1\n      return\n        /* \"contracts/SimpleStorage.sol\":379:474  function store(uint256 _favoriteColor) public {... */\n    tag_4:\n      tag_12\n      0x04\n      dup1\n      calldatasize\n      sub\n      dup2\n      add\n      swap1\n      tag_13\n      swap2\n      swap1\n      tag_14\n      jump\t// in\n    tag_13:\n      tag_15\n      jump\t// in\n    tag_12:\n      stop\n        /* \"contracts/SimpleStorage.sol\":582:777  function addFriend(string memory _name, string memory _favoriteColor) public {... */\n    tag_5:\n      tag_16\n      0x04\n      dup1\n      calldatasize\n      sub\n      dup2\n      add\n      swap1\n      tag_17\n      swap2\n      swap1\n      tag_18\n      jump\t// in\n    tag_17:\n      tag_19\n      jump\t// in\n    tag_16:\n      stop\n        /* \"contracts/SimpleStorage.sol\":294:347  mapping (string => string) public nameTofavoriteColor */\n    tag_6:\n      tag_20\n      0x04\n      dup1\n      calldatasize\n      sub\n      dup2\n      add\n      swap1\n      tag_21\n      swap2\n      swap1\n      tag_22\n      jump\t// in\n    tag_21:\n      tag_23\n      jump\t// in\n    tag_20:\n      mload(0x40)\n      tag_24\n      swap2\n      swap1\n      tag_25\n      jump\t// in\n    tag_24:\n      mload(0x40)\n      dup1\n      swap2\n      sub\n      swap1\n      return\n        /* \"contracts/SimpleStorage.sol\":152:175  Friend[] public friends */\n    tag_7:\n      tag_26\n      0x04\n      dup1\n      calldatasize\n      sub\n      dup2\n      add\n      swap1\n      tag_27\n      swap2\n      swap1\n      tag_14\n      jump\t// in\n    tag_27:\n      tag_28\n      jump\t// in\n    tag_26:\n      mload(0x40)\n      tag_29\n      swap3\n      swap2\n      swap1\n      tag_30\n      jump\t// in\n    tag_29:\n      mload(0x40)\n      dup1\n      swap2\n      sub\n      swap1\n      return\n        /* \"contracts/SimpleStorage.sol\":486:574  function retrieve() public view returns(uint256) {... */\n    tag_9:\n        /* \"contracts/SimpleStorage.sol\":526:533  uint256 */\n      0x00\n        /* \"contracts/SimpleStorage.sol\":553:566  favoriteColor */\n      dup1\n      sload\n        /* \"contracts/SimpleStorage.sol\":546:566  return favoriteColor */\n      swap1\n      pop\n        /* \"contracts/SimpleStorage.sol\":486:574  function retrieve() public view returns(uint256) {... */\n      swap1\n      jump\t// out\n        /* \"contracts/SimpleStorage.sol\":379:474  function store(uint256 _favoriteColor) public {... */\n    tag_15:\n        /* \"contracts/SimpleStorage.sol\":452:466  _favoriteColor */\n      dup1\n        /* \"contracts/SimpleStorage.sol\":436:449  favoriteColor */\n      0x00\n        /* \"contracts/SimpleStorage.sol\":436:466  favoriteColor = _favoriteColor */\n      dup2\n      swap1\n      sstore\n      pop\n        /* \"contracts/SimpleStorage.sol\":379:474  function store(uint256 _favoriteColor) public {... */\n      pop\n      jump\t// out\n        /* \"contracts/SimpleStorage.sol\":582:777  function addFriend(string memory _name, string memory _favoriteColor) public {... */\n    tag_19:\n        /* \"contracts/SimpleStorage.sol\":670:677  friends */\n      0x01\n        /* \"contracts/SimpleStorage.sol\":683:712  Friend(_favoriteColor, _name) */\n      mload(0x40)\n      dup1\n      0x40\n      add\n      0x40\n      mstore\n      dup1\n        /* \"contracts/SimpleStorage.sol\":690:704  _favoriteColor */\n      dup4\n        /* \"contracts/SimpleStorage.sol\":683:712  Friend(_favoriteColor, _name) */\n      dup2\n      mstore\n      0x20\n      add\n        /* \"contracts/SimpleStorage.sol\":706:711  _name */\n      dup5\n        /* \"contracts/SimpleStorage.sol\":683:712  Friend(_favoriteColor, _name) */\n      dup2\n      mstore\n      pop\n        /* \"contracts/SimpleStorage.sol\":670:713  friends.push(Friend(_favoriteColor, _name)) */\n      swap1\n      dup1\n      0x01\n      dup2\n      sload\n      add\n      dup1\n      dup3\n      sstore\n      dup1\n      swap2\n      pop\n      pop\n      0x01\n      swap1\n      sub\n      swap1\n      0x00\n      mstore\n      keccak256(0x00, 0x20)\n      swap1\n      0x02\n      mul\n      add\n      0x00\n      swap1\n      swap2\n      swap1\n      swap2\n      swap1\n      swap2\n      pop\n      0x00\n      dup3\n      add\n      mload\n      dup2\n      0x00\n      add\n      swap1\n      dup1\n      mload\n      swap1\n      0x20\n      add\n      swap1\n      tag_35\n      swap3\n      swap2\n      swap1\n      tag_36\n      jump\t// in\n    tag_35:\n      pop\n      0x20\n      dup3\n      add\n      mload\n      dup2\n      0x01\n      add\n      swap1\n      dup1\n      mload\n      swap1\n      0x20\n      add\n      swap1\n      tag_37\n      swap3\n      swap2\n      swap1\n      tag_36\n      jump\t// in\n    tag_37:\n      pop\n      pop\n      pop\n        /* \"contracts/SimpleStorage.sol\":755:769  _favoriteColor */\n      dup1\n        /* \"contracts/SimpleStorage.sol\":726:745  nameTofavoriteColor */\n      0x02\n        /* \"contracts/SimpleStorage.sol\":746:751  _name */\n      dup4\n        /* \"contracts/SimpleStorage.sol\":726:752  nameTofavoriteColor[_name] */\n      mload(0x40)\n      tag_38\n      swap2\n      swap1\n      tag_39\n      jump\t// in\n    tag_38:\n      swap1\n      dup2\n      mstore\n      0x20\n      add\n      mload(0x40)\n      dup1\n      swap2\n      sub\n      swap1\n      keccak256\n        /* \"contracts/SimpleStorage.sol\":726:769  nameTofavoriteColor[_name] = _favoriteColor */\n      swap1\n      dup1\n      mload\n      swap1\n      0x20\n      add\n      swap1\n      tag_40\n      swap3\n      swap2\n      swap1\n      tag_36\n      jump\t// in\n    tag_40:\n      pop\n        /* \"contracts/SimpleStorage.sol\":582:777  function addFriend(string memory _name, string memory _favoriteColor) public {... */\n      pop\n      pop\n      jump\t// out\n        /* \"contracts/SimpleStorage.sol\":294:347  mapping (string => string) public nameTofavoriteColor */\n    tag_23:\n      0x02\n      dup2\n      dup1\n      mload\n      0x20\n      dup2\n      add\n      dup3\n      add\n      dup1\n      mload\n      dup5\n      dup3\n      mstore\n      0x20\n      dup4\n      add\n      0x20\n      dup6\n      add\n      keccak256\n      dup2\n      dup4\n      mstore\n      dup1\n      swap6\n      pop\n      pop\n      pop\n      pop\n      pop\n      pop\n      0x00\n      swap2\n      pop\n      swap1\n      pop\n      dup1\n      sload\n      tag_41\n      swap1\n      tag_42\n      jump\t// in\n    tag_41:\n      dup1\n      0x1f\n      add\n      0x20\n      dup1\n      swap2\n      div\n      mul\n      0x20\n      add\n      mload(0x40)\n      swap1\n      dup2\n      add\n      0x40\n      mstore\n      dup1\n      swap3\n      swap2\n      swap1\n      dup2\n      dup2\n      mstore\n      0x20\n      add\n      dup3\n      dup1\n      sload\n      tag_43\n      swap1\n      tag_42\n      jump\t// in\n    tag_43:\n      dup1\n      iszero\n      tag_44\n      jumpi\n      dup1\n      0x1f\n      lt\n      tag_45\n      jumpi\n      0x0100\n      dup1\n      dup4\n      sload\n      div\n      mul\n      dup4\n      mstore\n      swap2\n      0x20\n      add\n      swap2\n      jump(tag_44)\n    tag_45:\n      dup3\n      add\n      swap2\n      swap1\n      0x00\n      mstore\n      keccak256(0x00, 0x20)\n      swap1\n    tag_46:\n      dup2\n      sload\n      dup2\n      mstore\n      swap1\n      0x01\n      add\n      swap1\n      0x20\n      add\n      dup1\n      dup4\n      gt\n      tag_46\n      jumpi\n      dup3\n      swap1\n      sub\n      0x1f\n      and\n      dup3\n      add\n      swap2\n    tag_44:\n      pop\n      pop\n      pop\n      pop\n      pop\n      dup2\n      jump\t// out\n        /* \"contracts/SimpleStorage.sol\":152:175  Friend[] public friends */\n    tag_28:\n      0x01\n      dup2\n      dup2\n      sload\n      dup2\n      lt\n      tag_47\n      jumpi\n      0x00\n      dup1\n      revert\n    tag_47:\n      swap1\n      0x00\n      mstore\n      keccak256(0x00, 0x20)\n      swap1\n      0x02\n      mul\n      add\n      0x00\n      swap2\n      pop\n      swap1\n      pop\n      dup1\n      0x00\n      add\n      dup1\n      sload\n      tag_49\n      swap1\n      tag_42\n      jump\t// in\n    tag_49:\n      dup1\n      0x1f\n      add\n      0x20\n      dup1\n      swap2\n      div\n      mul\n      0x20\n      add\n      mload(0x40)\n      swap1\n      dup2\n      add\n      0x40\n      mstore\n      dup1\n      swap3\n      swap2\n      swap1\n      dup2\n      dup2\n      mstore\n      0x20\n      add\n      dup3\n      dup1\n      sload\n      tag_50\n      swap1\n      tag_42\n      jump\t// in\n    tag_50:\n      dup1\n      iszero\n      tag_51\n      jumpi\n      dup1\n      0x1f\n      lt\n      tag_52\n      jumpi\n      0x0100\n      dup1\n      dup4\n      sload\n      div\n      mul\n      dup4\n      mstore\n      swap2\n      0x20\n      add\n      swap2\n      jump(tag_51)\n    tag_52:\n      dup3\n      add\n      swap2\n      swap1\n      0x00\n      mstore\n      keccak256(0x00, 0x20)\n      swap1\n    tag_53:\n      dup2\n      sload\n      dup2\n      mstore\n      swap1\n      0x01\n      add\n      swap1\n      0x20\n      add\n      dup1\n      dup4\n      gt\n      tag_53\n      jumpi\n      dup3\n      swap1\n      sub\n      0x1f\n      and\n      dup3\n      add\n      swap2\n    tag_51:\n      pop\n      pop\n      pop\n      pop\n      pop\n      swap1\n      dup1\n      0x01\n      add\n      dup1\n      sload\n      tag_54\n      swap1\n      tag_42\n      jump\t// in\n    tag_54:\n      dup1\n      0x1f\n      add\n      0x20\n      dup1\n      swap2\n      div\n      mul\n      0x20\n      add\n      mload(0x40)\n      swap1\n      dup2\n      add\n      0x40\n      mstore\n      dup1\n      swap3\n      swap2\n      swap1\n      dup2\n      dup2\n      mstore\n      0x20\n      add\n      dup3\n      dup1\n      sload\n      tag_55\n      swap1\n      tag_42\n      jump\t// in\n    tag_55:\n      dup1\n      iszero\n      tag_56\n      jumpi\n      dup1\n      0x1f\n      lt\n      tag_57\n      jumpi\n      0x0100\n      dup1\n      dup4\n      sload\n      div\n      mul\n      dup4\n      mstore\n      swap2\n      0x20\n      add\n      swap2\n      jump(tag_56)\n    tag_57:\n      dup3\n      add\n      swap2\n      swap1\n      0x00\n      mstore\n      keccak256(0x00, 0x20)\n      swap1\n    tag_58:\n      dup2\n      sload\n      dup2\n      mstore\n      swap1\n      0x01\n      add\n      swap1\n      0x20\n      add\n      dup1\n      dup4\n      gt\n      tag_58\n      jumpi\n      dup3\n      swap1\n      sub\n      0x1f\n      and\n      dup3\n      add\n      swap2\n    tag_56:\n      pop\n      pop\n      pop\n      pop\n      pop\n      swap1\n      pop\n      dup3\n      jump\t// out\n    tag_36:\n      dup3\n      dup1\n      sload\n      tag_59\n      swap1\n      tag_42\n      jump\t// in\n    tag_59:\n      swap1\n      0x00\n      mstore\n      keccak256(0x00, 0x20)\n      swap1\n      0x1f\n      add\n      0x20\n      swap1\n      div\n      dup2\n      add\n      swap3\n      dup3\n      tag_61\n      jumpi\n      0x00\n      dup6\n      sstore\n      jump(tag_60)\n    tag_61:\n      dup3\n      0x1f\n      lt\n      tag_62\n      jumpi\n      dup1\n      mload\n      not(0xff)\n      and\n      dup4\n      dup1\n      add\n      or\n      dup6\n      sstore\n      jump(tag_60)\n    tag_62:\n      dup3\n      dup1\n      add\n      0x01\n      add\n      dup6\n      sstore\n      dup3\n      iszero\n      tag_60\n      jumpi\n      swap2\n      dup3\n      add\n    tag_63:\n      dup3\n      dup2\n      gt\n      iszero\n      tag_64\n      jumpi\n      dup3\n      mload\n      dup3\n      sstore\n      swap2\n      0x20\n      add\n      swap2\n      swap1\n      0x01\n      add\n      swap1\n      jump(tag_63)\n    tag_64:\n    tag_60:\n      pop\n      swap1\n      pop\n      tag_65\n      swap2\n      swap1\n      tag_66\n      jump\t// in\n    tag_65:\n      pop\n      swap1\n      jump\t// out\n    tag_66:\n    tag_67:\n      dup1\n      dup3\n      gt\n      iszero\n      tag_68\n      jumpi\n      0x00\n      dup2\n      0x00\n      swap1\n      sstore\n      pop\n      0x01\n      add\n      jump(tag_67)\n    tag_68:\n      pop\n      swap1\n      jump\t// out\n        /* \"#utility.yul\":7:84   */\n    tag_69:\n        /* \"#utility.yul\":44:51   */\n      0x00\n        /* \"#utility.yul\":73:78   */\n      dup2\n        /* \"#utility.yul\":62:78   */\n      swap1\n      pop\n        /* \"#utility.yul\":7:84   */\n      swap2\n      swap1\n      pop\n      jump\t// out\n        /* \"#utility.yul\":90:208   */\n    tag_70:\n        /* \"#utility.yul\":177:201   */\n      tag_96\n        /* \"#utility.yul\":195:200   */\n      dup2\n        /* \"#utility.yul\":177:201   */\n      tag_69\n      jump\t// in\n    tag_96:\n        /* \"#utility.yul\":172:175   */\n      dup3\n        /* \"#utility.yul\":165:202   */\n      mstore\n        /* \"#utility.yul\":90:208   */\n      pop\n      pop\n      jump\t// out\n        /* \"#utility.yul\":214:436   */\n    tag_11:\n        /* \"#utility.yul\":307:311   */\n      0x00\n        /* \"#utility.yul\":345:347   */\n      0x20\n        /* \"#utility.yul\":334:343   */\n      dup3\n        /* \"#utility.yul\":330:348   */\n      add\n        /* \"#utility.yul\":322:348   */\n      swap1\n      pop\n        /* \"#utility.yul\":358:429   */\n      tag_98\n        /* \"#utility.yul\":426:427   */\n      0x00\n        /* \"#utility.yul\":415:424   */\n      dup4\n        /* \"#utility.yul\":411:428   */\n      add\n        /* \"#utility.yul\":402:408   */\n      dup5\n        /* \"#utility.yul\":358:429   */\n      tag_70\n      jump\t// in\n    tag_98:\n        /* \"#utility.yul\":214:436   */\n      swap3\n      swap2\n      pop\n      pop\n      jump\t// out\n        /* \"#utility.yul\":442:517   */\n    tag_71:\n        /* \"#utility.yul\":475:481   */\n      0x00\n        /* \"#utility.yul\":508:510   */\n      0x40\n        /* \"#utility.yul\":502:511   */\n      mload\n        /* \"#utility.yul\":492:511   */\n      swap1\n      pop\n        /* \"#utility.yul\":442:517   */\n      swap1\n      jump\t// out\n        /* \"#utility.yul\":523:640   */\n    tag_72:\n        /* \"#utility.yul\":632:633   */\n      0x00\n        /* \"#utility.yul\":629:630   */\n      dup1\n        /* \"#utility.yul\":622:634   */\n      revert\n        /* \"#utility.yul\":646:763   */\n    tag_73:\n        /* \"#utility.yul\":755:756   */\n      0x00\n        /* \"#utility.yul\":752:753   */\n      dup1\n        /* \"#utility.yul\":745:757   */\n      revert\n        /* \"#utility.yul\":769:891   */\n    tag_74:\n        /* \"#utility.yul\":842:866   */\n      tag_103\n        /* \"#utility.yul\":860:865   */\n      dup2\n        /* \"#utility.yul\":842:866   */\n      tag_69\n      jump\t// in\n    tag_103:\n        /* \"#utility.yul\":835:840   */\n      dup2\n        /* \"#utility.yul\":832:867   */\n      eq\n        /* \"#utility.yul\":822:885   */\n      tag_104\n      jumpi\n        /* \"#utility.yul\":881:882   */\n      0x00\n        /* \"#utility.yul\":878:879   */\n      dup1\n        /* \"#utility.yul\":871:883   */\n      revert\n        /* \"#utility.yul\":822:885   */\n    tag_104:\n        /* \"#utility.yul\":769:891   */\n      pop\n      jump\t// out\n        /* \"#utility.yul\":897:1036   */\n    tag_75:\n        /* \"#utility.yul\":943:948   */\n      0x00\n        /* \"#utility.yul\":981:987   */\n      dup2\n        /* \"#utility.yul\":968:988   */\n      calldataload\n        /* \"#utility.yul\":959:988   */\n      swap1\n      pop\n        /* \"#utility.yul\":997:1030   */\n      tag_106\n        /* \"#utility.yul\":1024:1029   */\n      dup2\n        /* \"#utility.yul\":997:1030   */\n      tag_74\n      jump\t// in\n    tag_106:\n        /* \"#utility.yul\":897:1036   */\n      swap3\n      swap2\n      pop\n      pop\n      jump\t// out\n        /* \"#utility.yul\":1042:1371   */\n    tag_14:\n        /* \"#utility.yul\":1101:1107   */\n      0x00\n        /* \"#utility.yul\":1150:1152   */\n      0x20\n        /* \"#utility.yul\":1138:1147   */\n      dup3\n        /* \"#utility.yul\":1129:1136   */\n      dup5\n        /* \"#utility.yul\":1125:1148   */\n      sub\n        /* \"#utility.yul\":1121:1153   */\n      slt\n        /* \"#utility.yul\":1118:1237   */\n      iszero\n      tag_108\n      jumpi\n        /* \"#utility.yul\":1156:1235   */\n      tag_109\n      tag_72\n      jump\t// in\n    tag_109:\n        /* \"#utility.yul\":1118:1237   */\n    tag_108:\n        /* \"#utility.yul\":1276:1277   */\n      0x00\n        /* \"#utility.yul\":1301:1354   */\n      tag_110\n        /* \"#utility.yul\":1346:1353   */\n      dup5\n        /* \"#utility.yul\":1337:1343   */\n      dup3\n        /* \"#utility.yul\":1326:1335   */\n      dup6\n        /* \"#utility.yul\":1322:1344   */\n      add\n        /* \"#utility.yul\":1301:1354   */\n      tag_75\n      jump\t// in\n    tag_110:\n        /* \"#utility.yul\":1291:1354   */\n      swap2\n      pop\n        /* \"#utility.yul\":1247:1364   */\n      pop\n        /* \"#utility.yul\":1042:1371   */\n      swap3\n      swap2\n      pop\n      pop\n      jump\t// out\n        /* \"#utility.yul\":1377:1494   */\n    tag_76:\n        /* \"#utility.yul\":1486:1487   */\n      0x00\n        /* \"#utility.yul\":1483:1484   */\n      dup1\n        /* \"#utility.yul\":1476:1488   */\n      revert\n        /* \"#utility.yul\":1500:1617   */\n    tag_77:\n        /* \"#utility.yul\":1609:1610   */\n      0x00\n        /* \"#utility.yul\":1606:1607   */\n      dup1\n        /* \"#utility.yul\":1599:1611   */\n      revert\n        /* \"#utility.yul\":1623:1725   */\n    tag_78:\n        /* \"#utility.yul\":1664:1670   */\n      0x00\n        /* \"#utility.yul\":1715:1717   */\n      0x1f\n        /* \"#utility.yul\":1711:1718   */\n      not\n        /* \"#utility.yul\":1706:1708   */\n      0x1f\n        /* \"#utility.yul\":1699:1704   */\n      dup4\n        /* \"#utility.yul\":1695:1709   */\n      add\n        /* \"#utility.yul\":1691:1719   */\n      and\n        /* \"#utility.yul\":1681:1719   */\n      swap1\n      pop\n        /* \"#utility.yul\":1623:1725   */\n      swap2\n      swap1\n      pop\n      jump\t// out\n        /* \"#utility.yul\":1731:1911   */\n    tag_79:\n        /* \"#utility.yul\":1779:1856   */\n      0x4e487b7100000000000000000000000000000000000000000000000000000000\n        /* \"#utility.yul\":1776:1777   */\n      0x00\n        /* \"#utility.yul\":1769:1857   */\n      mstore\n        /* \"#utility.yul\":1876:1880   */\n      0x41\n        /* \"#utility.yul\":1873:1874   */\n      0x04\n        /* \"#utility.yul\":1866:1881   */\n      mstore\n        /* \"#utility.yul\":1900:1904   */\n      0x24\n        /* \"#utility.yul\":1897:1898   */\n      0x00\n        /* \"#utility.yul\":1890:1905   */\n      revert\n        /* \"#utility.yul\":1917:2198   */\n    tag_80:\n        /* \"#utility.yul\":2000:2027   */\n      tag_116\n        /* \"#utility.yul\":2022:2026   */\n      dup3\n        /* \"#utility.yul\":2000:2027   */\n      tag_78\n      jump\t// in\n    tag_116:\n        /* \"#utility.yul\":1992:1998   */\n      dup2\n        /* \"#utility.yul\":1988:2028   */\n      add\n        /* \"#utility.yul\":2130:2136   */\n      dup2\n        /* \"#utility.yul\":2118:2128   */\n      dup2\n        /* \"#utility.yul\":2115:2137   */\n      lt\n        /* \"#utility.yul\":2094:2112   */\n      0xffffffffffffffff\n        /* \"#utility.yul\":2082:2092   */\n      dup3\n        /* \"#utility.yul\":2079:2113   */\n      gt\n        /* \"#utility.yul\":2076:2138   */\n      or\n        /* \"#utility.yul\":2073:2161   */\n      iszero\n      tag_117\n      jumpi\n        /* \"#utility.yul\":2141:2159   */\n      tag_118\n      tag_79\n      jump\t// in\n    tag_118:\n        /* \"#utility.yul\":2073:2161   */\n    tag_117:\n        /* \"#utility.yul\":2181:2191   */\n      dup1\n        /* \"#utility.yul\":2177:2179   */\n      0x40\n        /* \"#utility.yul\":2170:2192   */\n      mstore\n        /* \"#utility.yul\":1960:2198   */\n      pop\n        /* \"#utility.yul\":1917:2198   */\n      pop\n      pop\n      jump\t// out\n        /* \"#utility.yul\":2204:2333   */\n    tag_81:\n        /* \"#utility.yul\":2238:2244   */\n      0x00\n        /* \"#utility.yul\":2265:2285   */\n      tag_120\n      tag_71\n      jump\t// in\n    tag_120:\n        /* \"#utility.yul\":2255:2285   */\n      swap1\n      pop\n        /* \"#utility.yul\":2294:2327   */\n      tag_121\n        /* \"#utility.yul\":2322:2326   */\n      dup3\n        /* \"#utility.yul\":2314:2320   */\n      dup3\n        /* \"#utility.yul\":2294:2327   */\n      tag_80\n      jump\t// in\n    tag_121:\n        /* \"#utility.yul\":2204:2333   */\n      swap2\n      swap1\n      pop\n      jump\t// out\n        /* \"#utility.yul\":2339:2647   */\n    tag_82:\n        /* \"#utility.yul\":2401:2405   */\n      0x00\n        /* \"#utility.yul\":2491:2509   */\n      0xffffffffffffffff\n        /* \"#utility.yul\":2483:2489   */\n      dup3\n        /* \"#utility.yul\":2480:2510   */\n      gt\n        /* \"#utility.yul\":2477:2533   */\n      iszero\n      tag_123\n      jumpi\n        /* \"#utility.yul\":2513:2531   */\n      tag_124\n      tag_79\n      jump\t// in\n    tag_124:\n        /* \"#utility.yul\":2477:2533   */\n    tag_123:\n        /* \"#utility.yul\":2551:2580   */\n      tag_125\n        /* \"#utility.yul\":2573:2579   */\n      dup3\n        /* \"#utility.yul\":2551:2580   */\n      tag_78\n      jump\t// in\n    tag_125:\n        /* \"#utility.yul\":2543:2580   */\n      swap1\n      pop\n        /* \"#utility.yul\":2635:2639   */\n      0x20\n        /* \"#utility.yul\":2629:2633   */\n      dup2\n        /* \"#utility.yul\":2625:2640   */\n      add\n        /* \"#utility.yul\":2617:2640   */\n      swap1\n      pop\n        /* \"#utility.yul\":2339:2647   */\n      swap2\n      swap1\n      pop\n      jump\t// out\n        /* \"#utility.yul\":2653:2807   */\n    tag_83:\n        /* \"#utility.yul\":2737:2743   */\n      dup3\n        /* \"#utility.yul\":2732:2735   */\n      dup2\n        /* \"#utility.yul\":2727:2730   */\n      dup4\n        /* \"#utility.yul\":2714:2744   */\n      calldatacopy\n        /* \"#utility.yul\":2799:2800   */\n      0x00\n        /* \"#utility.yul\":2790:2796   */\n      dup4\n        /* \"#utility.yul\":2785:2788   */\n      dup4\n        /* \"#utility.yul\":2781:2797   */\n      add\n        /* \"#utility.yul\":2774:2801   */\n      mstore\n        /* \"#utility.yul\":2653:2807   */\n      pop\n      pop\n      pop\n      jump\t// out\n        /* \"#utility.yul\":2813:3225   */\n    tag_84:\n        /* \"#utility.yul\":2891:2896   */\n      0x00\n        /* \"#utility.yul\":2916:2982   */\n      tag_128\n        /* \"#utility.yul\":2932:2981   */\n      tag_129\n        /* \"#utility.yul\":2974:2980   */\n      dup5\n        /* \"#utility.yul\":2932:2981   */\n      tag_82\n      jump\t// in\n    tag_129:\n        /* \"#utility.yul\":2916:2982   */\n      tag_81\n      jump\t// in\n    tag_128:\n        /* \"#utility.yul\":2907:2982   */\n      swap1\n      pop\n        /* \"#utility.yul\":3005:3011   */\n      dup3\n        /* \"#utility.yul\":2998:3003   */\n      dup2\n        /* \"#utility.yul\":2991:3012   */\n      mstore\n        /* \"#utility.yul\":3043:3047   */\n      0x20\n        /* \"#utility.yul\":3036:3041   */\n      dup2\n        /* \"#utility.yul\":3032:3048   */\n      add\n        /* \"#utility.yul\":3081:3084   */\n      dup5\n        /* \"#utility.yul\":3072:3078   */\n      dup5\n        /* \"#utility.yul\":3067:3070   */\n      dup5\n        /* \"#utility.yul\":3063:3079   */\n      add\n        /* \"#utility.yul\":3060:3085   */\n      gt\n        /* \"#utility.yul\":3057:3169   */\n      iszero\n      tag_130\n      jumpi\n        /* \"#utility.yul\":3088:3167   */\n      tag_131\n      tag_77\n      jump\t// in\n    tag_131:\n        /* \"#utility.yul\":3057:3169   */\n    tag_130:\n        /* \"#utility.yul\":3178:3219   */\n      tag_132\n        /* \"#utility.yul\":3212:3218   */\n      dup5\n        /* \"#utility.yul\":3207:3210   */\n      dup3\n        /* \"#utility.yul\":3202:3205   */\n      dup6\n        /* \"#utility.yul\":3178:3219   */\n      tag_83\n      jump\t// in\n    tag_132:\n        /* \"#utility.yul\":2897:3225   */\n      pop\n        /* \"#utility.yul\":2813:3225   */\n      swap4\n      swap3\n      pop\n      pop\n      pop\n      jump\t// out\n        /* \"#utility.yul\":3245:3585   */\n    tag_85:\n        /* \"#utility.yul\":3301:3306   */\n      0x00\n        /* \"#utility.yul\":3350:3353   */\n      dup3\n        /* \"#utility.yul\":3343:3347   */\n      0x1f\n        /* \"#utility.yul\":3335:3341   */\n      dup4\n        /* \"#utility.yul\":3331:3348   */\n      add\n        /* \"#utility.yul\":3327:3354   */\n      slt\n        /* \"#utility.yul\":3317:3439   */\n      tag_134\n      jumpi\n        /* \"#utility.yul\":3358:3437   */\n      tag_135\n      tag_76\n      jump\t// in\n    tag_135:\n        /* \"#utility.yul\":3317:3439   */\n    tag_134:\n        /* \"#utility.yul\":3475:3481   */\n      dup2\n        /* \"#utility.yul\":3462:3482   */\n      calldataload\n        /* \"#utility.yul\":3500:3579   */\n      tag_136\n        /* \"#utility.yul\":3575:3578   */\n      dup5\n        /* \"#utility.yul\":3567:3573   */\n      dup3\n        /* \"#utility.yul\":3560:3564   */\n      0x20\n        /* \"#utility.yul\":3552:3558   */\n      dup7\n        /* \"#utility.yul\":3548:3565   */\n      add\n        /* \"#utility.yul\":3500:3579   */\n      tag_84\n      jump\t// in\n    tag_136:\n        /* \"#utility.yul\":3491:3579   */\n      swap2\n      pop\n        /* \"#utility.yul\":3307:3585   */\n      pop\n        /* \"#utility.yul\":3245:3585   */\n      swap3\n      swap2\n      pop\n      pop\n      jump\t// out\n        /* \"#utility.yul\":3591:4425   */\n    tag_18:\n        /* \"#utility.yul\":3679:3685   */\n      0x00\n        /* \"#utility.yul\":3687:3693   */\n      dup1\n        /* \"#utility.yul\":3736:3738   */\n      0x40\n        /* \"#utility.yul\":3724:3733   */\n      dup4\n        /* \"#utility.yul\":3715:3722   */\n      dup6\n        /* \"#utility.yul\":3711:3734   */\n      sub\n        /* \"#utility.yul\":3707:3739   */\n      slt\n        /* \"#utility.yul\":3704:3823   */\n      iszero\n      tag_138\n      jumpi\n        /* \"#utility.yul\":3742:3821   */\n      tag_139\n      tag_72\n      jump\t// in\n    tag_139:\n        /* \"#utility.yul\":3704:3823   */\n    tag_138:\n        /* \"#utility.yul\":3890:3891   */\n      0x00\n        /* \"#utility.yul\":3879:3888   */\n      dup4\n        /* \"#utility.yul\":3875:3892   */\n      add\n        /* \"#utility.yul\":3862:3893   */\n      calldataload\n        /* \"#utility.yul\":3920:3938   */\n      0xffffffffffffffff\n        /* \"#utility.yul\":3912:3918   */\n      dup2\n        /* \"#utility.yul\":3909:3939   */\n      gt\n        /* \"#utility.yul\":3906:4023   */\n      iszero\n      tag_140\n      jumpi\n        /* \"#utility.yul\":3942:4021   */\n      tag_141\n      tag_73\n      jump\t// in\n    tag_141:\n        /* \"#utility.yul\":3906:4023   */\n    tag_140:\n        /* \"#utility.yul\":4047:4110   */\n      tag_142\n        /* \"#utility.yul\":4102:4109   */\n      dup6\n        /* \"#utility.yul\":4093:4099   */\n      dup3\n        /* \"#utility.yul\":4082:4091   */\n      dup7\n        /* \"#utility.yul\":4078:4100   */\n      add\n        /* \"#utility.yul\":4047:4110   */\n      tag_85\n      jump\t// in\n    tag_142:\n        /* \"#utility.yul\":4037:4110   */\n      swap3\n      pop\n        /* \"#utility.yul\":3833:4120   */\n      pop\n        /* \"#utility.yul\":4187:4189   */\n      0x20\n        /* \"#utility.yul\":4176:4185   */\n      dup4\n        /* \"#utility.yul\":4172:4190   */\n      add\n        /* \"#utility.yul\":4159:4191   */\n      calldataload\n        /* \"#utility.yul\":4218:4236   */\n      0xffffffffffffffff\n        /* \"#utility.yul\":4210:4216   */\n      dup2\n        /* \"#utility.yul\":4207:4237   */\n      gt\n        /* \"#utility.yul\":4204:4321   */\n      iszero\n      tag_143\n      jumpi\n        /* \"#utility.yul\":4240:4319   */\n      tag_144\n      tag_73\n      jump\t// in\n    tag_144:\n        /* \"#utility.yul\":4204:4321   */\n    tag_143:\n        /* \"#utility.yul\":4345:4408   */\n      tag_145\n        /* \"#utility.yul\":4400:4407   */\n      dup6\n        /* \"#utility.yul\":4391:4397   */\n      dup3\n        /* \"#utility.yul\":4380:4389   */\n      dup7\n        /* \"#utility.yul\":4376:4398   */\n      add\n        /* \"#utility.yul\":4345:4408   */\n      tag_85\n      jump\t// in\n    tag_145:\n        /* \"#utility.yul\":4335:4408   */\n      swap2\n      pop\n        /* \"#utility.yul\":4130:4418   */\n      pop\n        /* \"#utility.yul\":3591:4425   */\n      swap3\n      pop\n      swap3\n      swap1\n      pop\n      jump\t// out\n        /* \"#utility.yul\":4431:4940   */\n    tag_22:\n        /* \"#utility.yul\":4500:4506   */\n      0x00\n        /* \"#utility.yul\":4549:4551   */\n      0x20\n        /* \"#utility.yul\":4537:4546   */\n      dup3\n        /* \"#utility.yul\":4528:4535   */\n      dup5\n        /* \"#utility.yul\":4524:4547   */\n      sub\n        /* \"#utility.yul\":4520:4552   */\n      slt\n        /* \"#utility.yul\":4517:4636   */\n      iszero\n      tag_147\n      jumpi\n        /* \"#utility.yul\":4555:4634   */\n      tag_148\n      tag_72\n      jump\t// in\n    tag_148:\n        /* \"#utility.yul\":4517:4636   */\n    tag_147:\n        /* \"#utility.yul\":4703:4704   */\n      0x00\n        /* \"#utility.yul\":4692:4701   */\n      dup3\n        /* \"#utility.yul\":4688:4705   */\n      add\n        /* \"#utility.yul\":4675:4706   */\n      calldataload\n        /* \"#utility.yul\":4733:4751   */\n      0xffffffffffffffff\n        /* \"#utility.yul\":4725:4731   */\n      dup2\n        /* \"#utility.yul\":4722:4752   */\n      gt\n        /* \"#utility.yul\":4719:4836   */\n      iszero\n      tag_149\n      jumpi\n        /* \"#utility.yul\":4755:4834   */\n      tag_150\n      tag_73\n      jump\t// in\n    tag_150:\n        /* \"#utility.yul\":4719:4836   */\n    tag_149:\n        /* \"#utility.yul\":4860:4923   */\n      tag_151\n        /* \"#utility.yul\":4915:4922   */\n      dup5\n        /* \"#utility.yul\":4906:4912   */\n      dup3\n        /* \"#utility.yul\":4895:4904   */\n      dup6\n        /* \"#utility.yul\":4891:4913   */\n      add\n        /* \"#utility.yul\":4860:4923   */\n      tag_85\n      jump\t// in\n    tag_151:\n        /* \"#utility.yul\":4850:4923   */\n      swap2\n      pop\n        /* \"#utility.yul\":4646:4933   */\n      pop\n        /* \"#utility.yul\":4431:4940   */\n      swap3\n      swap2\n      pop\n      pop\n      jump\t// out\n        /* \"#utility.yul\":4946:5045   */\n    tag_86:\n        /* \"#utility.yul\":4998:5004   */\n      0x00\n        /* \"#utility.yul\":5032:5037   */\n      dup2\n        /* \"#utility.yul\":5026:5038   */\n      mload\n        /* \"#utility.yul\":5016:5038   */\n      swap1\n      pop\n        /* \"#utility.yul\":4946:5045   */\n      swap2\n      swap1\n      pop\n      jump\t// out\n        /* \"#utility.yul\":5051:5220   */\n    tag_87:\n        /* \"#utility.yul\":5135:5146   */\n      0x00\n        /* \"#utility.yul\":5169:5175   */\n      dup3\n        /* \"#utility.yul\":5164:5167   */\n      dup3\n        /* \"#utility.yul\":5157:5176   */\n      mstore\n        /* \"#utility.yul\":5209:5213   */\n      0x20\n        /* \"#utility.yul\":5204:5207   */\n      dup3\n        /* \"#utility.yul\":5200:5214   */\n      add\n        /* \"#utility.yul\":5185:5214   */\n      swap1\n      pop\n        /* \"#utility.yul\":5051:5220   */\n      swap3\n      swap2\n      pop\n      pop\n      jump\t// out\n        /* \"#utility.yul\":5226:5533   */\n    tag_88:\n        /* \"#utility.yul\":5294:5295   */\n      0x00\n        /* \"#utility.yul\":5304:5417   */\n    tag_155:\n        /* \"#utility.yul\":5318:5324   */\n      dup4\n        /* \"#utility.yul\":5315:5316   */\n      dup2\n        /* \"#utility.yul\":5312:5325   */\n      lt\n        /* \"#utility.yul\":5304:5417   */\n      iszero\n      tag_157\n      jumpi\n        /* \"#utility.yul\":5403:5404   */\n      dup1\n        /* \"#utility.yul\":5398:5401   */\n      dup3\n        /* \"#utility.yul\":5394:5405   */\n      add\n        /* \"#utility.yul\":5388:5406   */\n      mload\n        /* \"#utility.yul\":5384:5385   */\n      dup2\n        /* \"#utility.yul\":5379:5382   */\n      dup5\n        /* \"#utility.yul\":5375:5386   */\n      add\n        /* \"#utility.yul\":5368:5407   */\n      mstore\n        /* \"#utility.yul\":5340:5342   */\n      0x20\n        /* \"#utility.yul\":5337:5338   */\n      dup2\n        /* \"#utility.yul\":5333:5343   */\n      add\n        /* \"#utility.yul\":5328:5343   */\n      swap1\n      pop\n        /* \"#utility.yul\":5304:5417   */\n      jump(tag_155)\n    tag_157:\n        /* \"#utility.yul\":5435:5441   */\n      dup4\n        /* \"#utility.yul\":5432:5433   */\n      dup2\n        /* \"#utility.yul\":5429:5442   */\n      gt\n        /* \"#utility.yul\":5426:5527   */\n      iszero\n      tag_158\n      jumpi\n        /* \"#utility.yul\":5515:5516   */\n      0x00\n        /* \"#utility.yul\":5506:5512   */\n      dup5\n        /* \"#utility.yul\":5501:5504   */\n      dup5\n        /* \"#utility.yul\":5497:5513   */\n      add\n        /* \"#utility.yul\":5490:5517   */\n      mstore\n        /* \"#utility.yul\":5426:5527   */\n    tag_158:\n        /* \"#utility.yul\":5275:5533   */\n      pop\n        /* \"#utility.yul\":5226:5533   */\n      pop\n      pop\n      pop\n      jump\t// out\n        /* \"#utility.yul\":5539:5903   */\n    tag_89:\n        /* \"#utility.yul\":5627:5630   */\n      0x00\n        /* \"#utility.yul\":5655:5694   */\n      tag_160\n        /* \"#utility.yul\":5688:5693   */\n      dup3\n        /* \"#utility.yul\":5655:5694   */\n      tag_86\n      jump\t// in\n    tag_160:\n        /* \"#utility.yul\":5710:5781   */\n      tag_161\n        /* \"#utility.yul\":5774:5780   */\n      dup2\n        /* \"#utility.yul\":5769:5772   */\n      dup6\n        /* \"#utility.yul\":5710:5781   */\n      tag_87\n      jump\t// in\n    tag_161:\n        /* \"#utility.yul\":5703:5781   */\n      swap4\n      pop\n        /* \"#utility.yul\":5790:5842   */\n      tag_162\n        /* \"#utility.yul\":5835:5841   */\n      dup2\n        /* \"#utility.yul\":5830:5833   */\n      dup6\n        /* \"#utility.yul\":5823:5827   */\n      0x20\n        /* \"#utility.yul\":5816:5821   */\n      dup7\n        /* \"#utility.yul\":5812:5828   */\n      add\n        /* \"#utility.yul\":5790:5842   */\n      tag_88\n      jump\t// in\n    tag_162:\n        /* \"#utility.yul\":5867:5896   */\n      tag_163\n        /* \"#utility.yul\":5889:5895   */\n      dup2\n        /* \"#utility.yul\":5867:5896   */\n      tag_78\n      jump\t// in\n    tag_163:\n        /* \"#utility.yul\":5862:5865   */\n      dup5\n        /* \"#utility.yul\":5858:5897   */\n      add\n        /* \"#utility.yul\":5851:5897   */\n      swap2\n      pop\n        /* \"#utility.yul\":5631:5903   */\n      pop\n        /* \"#utility.yul\":5539:5903   */\n      swap3\n      swap2\n      pop\n      pop\n      jump\t// out\n        /* \"#utility.yul\":5909:6222   */\n    tag_25:\n        /* \"#utility.yul\":6022:6026   */\n      0x00\n        /* \"#utility.yul\":6060:6062   */\n      0x20\n        /* \"#utility.yul\":6049:6058   */\n      dup3\n        /* \"#utility.yul\":6045:6063   */\n      add\n        /* \"#utility.yul\":6037:6063   */\n      swap1\n      pop\n        /* \"#utility.yul\":6109:6118   */\n      dup2\n        /* \"#utility.yul\":6103:6107   */\n      dup2\n        /* \"#utility.yul\":6099:6119   */\n      sub\n        /* \"#utility.yul\":6095:6096   */\n      0x00\n        /* \"#utility.yul\":6084:6093   */\n      dup4\n        /* \"#utility.yul\":6080:6097   */\n      add\n        /* \"#utility.yul\":6073:6120   */\n      mstore\n        /* \"#utility.yul\":6137:6215   */\n      tag_165\n        /* \"#utility.yul\":6210:6214   */\n      dup2\n        /* \"#utility.yul\":6201:6207   */\n      dup5\n        /* \"#utility.yul\":6137:6215   */\n      tag_89\n      jump\t// in\n    tag_165:\n        /* \"#utility.yul\":6129:6215   */\n      swap1\n      pop\n        /* \"#utility.yul\":5909:6222   */\n      swap3\n      swap2\n      pop\n      pop\n      jump\t// out\n        /* \"#utility.yul\":6228:6742   */\n    tag_30:\n        /* \"#utility.yul\":6389:6393   */\n      0x00\n        /* \"#utility.yul\":6427:6429   */\n      0x40\n        /* \"#utility.yul\":6416:6425   */\n      dup3\n        /* \"#utility.yul\":6412:6430   */\n      add\n        /* \"#utility.yul\":6404:6430   */\n      swap1\n      pop\n        /* \"#utility.yul\":6476:6485   */\n      dup2\n        /* \"#utility.yul\":6470:6474   */\n      dup2\n        /* \"#utility.yul\":6466:6486   */\n      sub\n        /* \"#utility.yul\":6462:6463   */\n      0x00\n        /* \"#utility.yul\":6451:6460   */\n      dup4\n        /* \"#utility.yul\":6447:6464   */\n      add\n        /* \"#utility.yul\":6440:6487   */\n      mstore\n        /* \"#utility.yul\":6504:6582   */\n      tag_167\n        /* \"#utility.yul\":6577:6581   */\n      dup2\n        /* \"#utility.yul\":6568:6574   */\n      dup6\n        /* \"#utility.yul\":6504:6582   */\n      tag_89\n      jump\t// in\n    tag_167:\n        /* \"#utility.yul\":6496:6582   */\n      swap1\n      pop\n        /* \"#utility.yul\":6629:6638   */\n      dup2\n        /* \"#utility.yul\":6623:6627   */\n      dup2\n        /* \"#utility.yul\":6619:6639   */\n      sub\n        /* \"#utility.yul\":6614:6616   */\n      0x20\n        /* \"#utility.yul\":6603:6612   */\n      dup4\n        /* \"#utility.yul\":6599:6617   */\n      add\n        /* \"#utility.yul\":6592:6640   */\n      mstore\n        /* \"#utility.yul\":6657:6735   */\n      tag_168\n        /* \"#utility.yul\":6730:6734   */\n      dup2\n        /* \"#utility.yul\":6721:6727   */\n      dup5\n        /* \"#utility.yul\":6657:6735   */\n      tag_89\n      jump\t// in\n    tag_168:\n        /* \"#utility.yul\":6649:6735   */\n      swap1\n      pop\n        /* \"#utility.yul\":6228:6742   */\n      swap4\n      swap3\n      pop\n      pop\n      pop\n      jump\t// out\n        /* \"#utility.yul\":6748:6896   */\n    tag_90:\n        /* \"#utility.yul\":6850:6861   */\n      0x00\n        /* \"#utility.yul\":6887:6890   */\n      dup2\n        /* \"#utility.yul\":6872:6890   */\n      swap1\n      pop\n        /* \"#utility.yul\":6748:6896   */\n      swap3\n      swap2\n      pop\n      pop\n      jump\t// out\n        /* \"#utility.yul\":6902:7279   */\n    tag_91:\n        /* \"#utility.yul\":7008:7011   */\n      0x00\n        /* \"#utility.yul\":7036:7075   */\n      tag_171\n        /* \"#utility.yul\":7069:7074   */\n      dup3\n        /* \"#utility.yul\":7036:7075   */\n      tag_86\n      jump\t// in\n    tag_171:\n        /* \"#utility.yul\":7091:7180   */\n      tag_172\n        /* \"#utility.yul\":7173:7179   */\n      dup2\n        /* \"#utility.yul\":7168:7171   */\n      dup6\n        /* \"#utility.yul\":7091:7180   */\n      tag_90\n      jump\t// in\n    tag_172:\n        /* \"#utility.yul\":7084:7180   */\n      swap4\n      pop\n        /* \"#utility.yul\":7189:7241   */\n      tag_173\n        /* \"#utility.yul\":7234:7240   */\n      dup2\n        /* \"#utility.yul\":7229:7232   */\n      dup6\n        /* \"#utility.yul\":7222:7226   */\n      0x20\n        /* \"#utility.yul\":7215:7220   */\n      dup7\n        /* \"#utility.yul\":7211:7227   */\n      add\n        /* \"#utility.yul\":7189:7241   */\n      tag_88\n      jump\t// in\n    tag_173:\n        /* \"#utility.yul\":7266:7272   */\n      dup1\n        /* \"#utility.yul\":7261:7264   */\n      dup5\n        /* \"#utility.yul\":7257:7273   */\n      add\n        /* \"#utility.yul\":7250:7273   */\n      swap2\n      pop\n        /* \"#utility.yul\":7012:7279   */\n      pop\n        /* \"#utility.yul\":6902:7279   */\n      swap3\n      swap2\n      pop\n      pop\n      jump\t// out\n        /* \"#utility.yul\":7285:7560   */\n    tag_39:\n        /* \"#utility.yul\":7417:7420   */\n      0x00\n        /* \"#utility.yul\":7439:7534   */\n      tag_175\n        /* \"#utility.yul\":7530:7533   */\n      dup3\n        /* \"#utility.yul\":7521:7527   */\n      dup5\n        /* \"#utility.yul\":7439:7534   */\n      tag_91\n      jump\t// in\n    tag_175:\n        /* \"#utility.yul\":7432:7534   */\n      swap2\n      pop\n        /* \"#utility.yul\":7551:7554   */\n      dup2\n        /* \"#utility.yul\":7544:7554   */\n      swap1\n      pop\n        /* \"#utility.yul\":7285:7560   */\n      swap3\n      swap2\n      pop\n      pop\n      jump\t// out\n        /* \"#utility.yul\":7566:7746   */\n    tag_92:\n        /* \"#utility.yul\":7614:7691   */\n      0x4e487b7100000000000000000000000000000000000000000000000000000000\n        /* \"#utility.yul\":7611:7612   */\n      0x00\n        /* \"#utility.yul\":7604:7692   */\n      mstore\n        /* \"#utility.yul\":7711:7715   */\n      0x22\n        /* \"#utility.yul\":7708:7709   */\n      0x04\n        /* \"#utility.yul\":7701:7716   */\n      mstore\n        /* \"#utility.yul\":7735:7739   */\n      0x24\n        /* \"#utility.yul\":7732:7733   */\n      0x00\n        /* \"#utility.yul\":7725:7740   */\n      revert\n        /* \"#utility.yul\":7752:8072   */\n    tag_42:\n        /* \"#utility.yul\":7796:7802   */\n      0x00\n        /* \"#utility.yul\":7833:7834   */\n      0x02\n        /* \"#utility.yul\":7827:7831   */\n      dup3\n        /* \"#utility.yul\":7823:7835   */\n      div\n        /* \"#utility.yul\":7813:7835   */\n      swap1\n      pop\n        /* \"#utility.yul\":7880:7881   */\n      0x01\n        /* \"#utility.yul\":7874:7878   */\n      dup3\n        /* \"#utility.yul\":7870:7882   */\n      and\n        /* \"#utility.yul\":7901:7919   */\n      dup1\n        /* \"#utility.yul\":7891:7972   */\n      tag_178\n      jumpi\n        /* \"#utility.yul\":7957:7961   */\n      0x7f\n        /* \"#utility.yul\":7949:7955   */\n      dup3\n        /* \"#utility.yul\":7945:7962   */\n      and\n        /* \"#utility.yul\":7935:7962   */\n      swap2\n      pop\n        /* \"#utility.yul\":7891:7972   */\n    tag_178:\n        /* \"#utility.yul\":8019:8021   */\n      0x20\n        /* \"#utility.yul\":8011:8017   */\n      dup3\n        /* \"#utility.yul\":8008:8022   */\n      lt\n        /* \"#utility.yul\":7988:8006   */\n      dup2\n        /* \"#utility.yul\":7985:8023   */\n      eq\n        /* \"#utility.yul\":7982:8066   */\n      iszero\n      tag_179\n      jumpi\n        /* \"#utility.yul\":8038:8056   */\n      tag_180\n      tag_92\n      jump\t// in\n    tag_180:\n        /* \"#utility.yul\":7982:8066   */\n    tag_179:\n        /* \"#utility.yul\":7803:8072   */\n      pop\n        /* \"#utility.yul\":7752:8072   */\n      swap2\n      swap1\n      pop\n      jump\t// out\n\n    auxdata: 0xa26469706673582212209eb4a432d750c21160e1f7d76931131862ef016c395af11dad7971dd1e25458864736f6c63430008080033\n}\n",
				"bytecode": {
					"linkReferences": {},
					"object": "608060405234801561001057600080fd5b506108e9806100206000396000f3fe608060405234801561001057600080fd5b50600436106100575760003560e01c80632e64cec11461005c5780636057361d1461007a578063723ce4d914610096578063b50aee80146100b2578063ce146828146100e2575b600080fd5b610064610113565b604051610071919061048f565b60405180910390f35b610094600480360381019061008f91906104ea565b61011c565b005b6100b060048036038101906100ab919061065d565b610126565b005b6100cc60048036038101906100c791906106d5565b6101d9565b6040516100d991906107a6565b60405180910390f35b6100fc60048036038101906100f791906104ea565b61028f565b60405161010a9291906107c8565b60405180910390f35b60008054905090565b8060008190555050565b6001604051806040016040528083815260200184815250908060018154018082558091505060019003906000526020600020906002020160009091909190915060008201518160000190805190602001906101829291906103d3565b50602082015181600101908051906020019061019f9291906103d3565b505050806002836040516101b3919061083b565b908152602001604051809103902090805190602001906101d49291906103d3565b505050565b600281805160208101820180518482526020830160208501208183528095505050505050600091509050805461020e90610881565b80601f016020809104026020016040519081016040528092919081815260200182805461023a90610881565b80156102875780601f1061025c57610100808354040283529160200191610287565b820191906000526020600020905b81548152906001019060200180831161026a57829003601f168201915b505050505081565b6001818154811061029f57600080fd5b90600052602060002090600202016000915090508060000180546102c290610881565b80601f01602080910402602001604051908101604052809291908181526020018280546102ee90610881565b801561033b5780601f106103105761010080835404028352916020019161033b565b820191906000526020600020905b81548152906001019060200180831161031e57829003601f168201915b50505050509080600101805461035090610881565b80601f016020809104026020016040519081016040528092919081815260200182805461037c90610881565b80156103c95780601f1061039e576101008083540402835291602001916103c9565b820191906000526020600020905b8154815290600101906020018083116103ac57829003601f168201915b5050505050905082565b8280546103df90610881565b90600052602060002090601f0160209004810192826104015760008555610448565b82601f1061041a57805160ff1916838001178555610448565b82800160010185558215610448579182015b8281111561044757825182559160200191906001019061042c565b5b5090506104559190610459565b5090565b5b8082111561047257600081600090555060010161045a565b5090565b6000819050919050565b61048981610476565b82525050565b60006020820190506104a46000830184610480565b92915050565b6000604051905090565b600080fd5b600080fd5b6104c781610476565b81146104d257600080fd5b50565b6000813590506104e4816104be565b92915050565b600060208284031215610500576104ff6104b4565b5b600061050e848285016104d5565b91505092915050565b600080fd5b600080fd5b6000601f19601f8301169050919050565b7f4e487b7100000000000000000000000000000000000000000000000000000000600052604160045260246000fd5b61056a82610521565b810181811067ffffffffffffffff8211171561058957610588610532565b5b80604052505050565b600061059c6104aa565b90506105a88282610561565b919050565b600067ffffffffffffffff8211156105c8576105c7610532565b5b6105d182610521565b9050602081019050919050565b82818337600083830152505050565b60006106006105fb846105ad565b610592565b90508281526020810184848401111561061c5761061b61051c565b5b6106278482856105de565b509392505050565b600082601f83011261064457610643610517565b5b81356106548482602086016105ed565b91505092915050565b60008060408385031215610674576106736104b4565b5b600083013567ffffffffffffffff811115610692576106916104b9565b5b61069e8582860161062f565b925050602083013567ffffffffffffffff8111156106bf576106be6104b9565b5b6106cb8582860161062f565b9150509250929050565b6000602082840312156106eb576106ea6104b4565b5b600082013567ffffffffffffffff811115610709576107086104b9565b5b6107158482850161062f565b91505092915050565b600081519050919050565b600082825260208201905092915050565b60005b8381101561075857808201518184015260208101905061073d565b83811115610767576000848401525b50505050565b60006107788261071e565b6107828185610729565b935061079281856020860161073a565b61079b81610521565b840191505092915050565b600060208201905081810360008301526107c0818461076d565b905092915050565b600060408201905081810360008301526107e2818561076d565b905081810360208301526107f6818461076d565b90509392505050565b600081905092915050565b60006108158261071e565b61081f81856107ff565b935061082f81856020860161073a565b80840191505092915050565b6000610847828461080a565b915081905092915050565b7f4e487b7100000000000000000000000000000000000000000000000000000000600052602260045260246000fd5b6000600282049050600182168061089957607f821691505b602082108114156108ad576108ac610852565b5b5091905056fea26469706673582212209eb4a432d750c21160e1f7d76931131862ef016c395af11dad7971dd1e25458864736f6c63430008080033",
					"opcodes": "PUSH1 0x80 PUSH1 0x40 MSTORE CALLVALUE DUP1 ISZERO PUSH2 0x10 JUMPI PUSH1 0x0 DUP1 REVERT JUMPDEST POP PUSH2 0x8E9 DUP1 PUSH2 0x20 PUSH1 0x0 CODECOPY PUSH1 0x0 RETURN INVALID PUSH1 0x80 PUSH1 0x40 MSTORE CALLVALUE DUP1 ISZERO PUSH2 0x10 JUMPI PUSH1 0x0 DUP1 REVERT JUMPDEST POP PUSH1 0x4 CALLDATASIZE LT PUSH2 0x57 JUMPI PUSH1 0x0 CALLDATALOAD PUSH1 0xE0 SHR DUP1 PUSH4 0x2E64CEC1 EQ PUSH2 0x5C JUMPI DUP1 PUSH4 0x6057361D EQ PUSH2 0x7A JUMPI DUP1 PUSH4 0x723CE4D9 EQ PUSH2 0x96 JUMPI DUP1 PUSH4 0xB50AEE80 EQ PUSH2 0xB2 JUMPI DUP1 PUSH4 0xCE146828 EQ PUSH2 0xE2 JUMPI JUMPDEST PUSH1 0x0 DUP1 REVERT JUMPDEST PUSH2 0x64 PUSH2 0x113 JUMP JUMPDEST PUSH1 0x40 MLOAD PUSH2 0x71 SWAP2 SWAP1 PUSH2 0x48F JUMP JUMPDEST PUSH1 0x40 MLOAD DUP1 SWAP2 SUB SWAP1 RETURN JUMPDEST PUSH2 0x94 PUSH1 0x4 DUP1 CALLDATASIZE SUB DUP2 ADD SWAP1 PUSH2 0x8F SWAP2 SWAP1 PUSH2 0x4EA JUMP JUMPDEST PUSH2 0x11C JUMP JUMPDEST STOP JUMPDEST PUSH2 0xB0 PUSH1 0x4 DUP1 CALLDATASIZE SUB DUP2 ADD SWAP1 PUSH2 0xAB SWAP2 SWAP1 PUSH2 0x65D JUMP JUMPDEST PUSH2 0x126 JUMP JUMPDEST STOP JUMPDEST PUSH2 0xCC PUSH1 0x4 DUP1 CALLDATASIZE SUB DUP2 ADD SWAP1 PUSH2 0xC7 SWAP2 SWAP1 PUSH2 0x6D5 JUMP JUMPDEST PUSH2 0x1D9 JUMP JUMPDEST PUSH1 0x40 MLOAD PUSH2 0xD9 SWAP2 SWAP1 PUSH2 0x7A6 JUMP JUMPDEST PUSH1 0x40 MLOAD DUP1 SWAP2 SUB SWAP1 RETURN JUMPDEST PUSH2 0xFC PUSH1 0x4 DUP1 CALLDATASIZE SUB DUP2 ADD SWAP1 PUSH2 0xF7 SWAP2 SWAP1 PUSH2 0x4EA JUMP JUMPDEST PUSH2 0x28F JUMP JUMPDEST PUSH1 0x40 MLOAD PUSH2 0x10A SWAP3 SWAP2 SWAP1 PUSH2 0x7C8 JUMP JUMPDEST PUSH1 0x40 MLOAD DUP1 SWAP2 SUB SWAP1 RETURN JUMPDEST PUSH1 0x0 DUP1 SLOAD SWAP1 POP SWAP1 JUMP JUMPDEST DUP1 PUSH1 0x0 DUP2 SWAP1 SSTORE POP POP JUMP JUMPDEST PUSH1 0x1 PUSH1 0x40 MLOAD DUP1 PUSH1 0x40 ADD PUSH1 0x40 MSTORE DUP1 DUP4 DUP2 MSTORE PUSH1 0x20 ADD DUP5 DUP2 MSTORE POP SWAP1 DUP1 PUSH1 0x1 DUP2 SLOAD ADD DUP1 DUP3 SSTORE DUP1 SWAP2 POP POP PUSH1 0x1 SWAP1 SUB SWAP1 PUSH1 0x0 MSTORE PUSH1 0x20 PUSH1 0x0 KECCAK256 SWAP1 PUSH1 0x2 MUL ADD PUSH1 0x0 SWAP1 SWAP2 SWAP1 SWAP2 SWAP1 SWAP2 POP PUSH1 0x0 DUP3 ADD MLOAD DUP2 PUSH1 0x0 ADD SWAP1 DUP1 MLOAD SWAP1 PUSH1 0x20 ADD SWAP1 PUSH2 0x182 SWAP3 SWAP2 SWAP1 PUSH2 0x3D3 JUMP JUMPDEST POP PUSH1 0x20 DUP3 ADD MLOAD DUP2 PUSH1 0x1 ADD SWAP1 DUP1 MLOAD SWAP1 PUSH1 0x20 ADD SWAP1 PUSH2 0x19F SWAP3 SWAP2 SWAP1 PUSH2 0x3D3 JUMP JUMPDEST POP POP POP DUP1 PUSH1 0x2 DUP4 PUSH1 0x40 MLOAD PUSH2 0x1B3 SWAP2 SWAP1 PUSH2 0x83B JUMP JUMPDEST SWAP1 DUP2 MSTORE PUSH1 0x20 ADD PUSH1 0x40 MLOAD DUP1 SWAP2 SUB SWAP1 KECCAK256 SWAP1 DUP1 MLOAD SWAP1 PUSH1 0x20 ADD SWAP1 PUSH2 0x1D4 SWAP3 SWAP2 SWAP1 PUSH2 0x3D3 JUMP JUMPDEST POP POP POP JUMP JUMPDEST PUSH1 0x2 DUP2 DUP1 MLOAD PUSH1 0x20 DUP2 ADD DUP3 ADD DUP1 MLOAD DUP5 DUP3 MSTORE PUSH1 0x20 DUP4 ADD PUSH1 0x20 DUP6 ADD KECCAK256 DUP2 DUP4 MSTORE DUP1 SWAP6 POP POP POP POP POP POP PUSH1 0x0 SWAP2 POP SWAP1 POP DUP1 SLOAD PUSH2 0x20E SWAP1 PUSH2 0x881 JUMP JUMPDEST DUP1 PUSH1 0x1F ADD PUSH1 0x20 DUP1 SWAP2 DIV MUL PUSH1 0x20 ADD PUSH1 0x40 MLOAD SWAP1 DUP2 ADD PUSH1 0x40 MSTORE DUP1 SWAP3 SWAP2 SWAP1 DUP2 DUP2 MSTORE PUSH1 0x20 ADD DUP3 DUP1 SLOAD PUSH2 0x23A SWAP1 PUSH2 0x881 JUMP JUMPDEST DUP1 ISZERO PUSH2 0x287 JUMPI DUP1 PUSH1 0x1F LT PUSH2 0x25C JUMPI PUSH2 0x100 DUP1 DUP4 SLOAD DIV MUL DUP4 MSTORE SWAP2 PUSH1 0x20 ADD SWAP2 PUSH2 0x287 JUMP JUMPDEST DUP3 ADD SWAP2 SWAP1 PUSH1 0x0 MSTORE PUSH1 0x20 PUSH1 0x0 KECCAK256 SWAP1 JUMPDEST DUP2 SLOAD DUP2 MSTORE SWAP1 PUSH1 0x1 ADD SWAP1 PUSH1 0x20 ADD DUP1 DUP4 GT PUSH2 0x26A JUMPI DUP3 SWAP1 SUB PUSH1 0x1F AND DUP3 ADD SWAP2 JUMPDEST POP POP POP POP POP DUP2 JUMP JUMPDEST PUSH1 0x1 DUP2 DUP2 SLOAD DUP2 LT PUSH2 0x29F JUMPI PUSH1 0x0 DUP1 REVERT JUMPDEST SWAP1 PUSH1 0x0 MSTORE PUSH1 0x20 PUSH1 0x0 KECCAK256 SWAP1 PUSH1 0x2 MUL ADD PUSH1 0x0 SWAP2 POP SWAP1 POP DUP1 PUSH1 0x0 ADD DUP1 SLOAD PUSH2 0x2C2 SWAP1 PUSH2 0x881 JUMP JUMPDEST DUP1 PUSH1 0x1F ADD PUSH1 0x20 DUP1 SWAP2 DIV MUL PUSH1 0x20 ADD PUSH1 0x40 MLOAD SWAP1 DUP2 ADD PUSH1 0x40 MSTORE DUP1 SWAP3 SWAP2 SWAP1 DUP2 DUP2 MSTORE PUSH1 0x20 ADD DUP3 DUP1 SLOAD PUSH2 0x2EE SWAP1 PUSH2 0x881 JUMP JUMPDEST DUP1 ISZERO PUSH2 0x33B JUMPI DUP1 PUSH1 0x1F LT PUSH2 0x310 JUMPI PUSH2 0x100 DUP1 DUP4 SLOAD DIV MUL DUP4 MSTORE SWAP2 PUSH1 0x20 ADD SWAP2 PUSH2 0x33B JUMP JUMPDEST DUP3 ADD SWAP2 SWAP1 PUSH1 0x0 MSTORE PUSH1 0x20 PUSH1 0x0 KECCAK256 SWAP1 JUMPDEST DUP2 SLOAD DUP2 MSTORE SWAP1 PUSH1 0x1 ADD SWAP1 PUSH1 0x20 ADD DUP1 DUP4 GT PUSH2 0x31E JUMPI DUP3 SWAP1 SUB PUSH1 0x1F AND DUP3 ADD SWAP2 JUMPDEST POP POP POP POP POP SWAP1 DUP1 PUSH1 0x1 ADD DUP1 SLOAD PUSH2 0x350 SWAP1 PUSH2 0x881 JUMP JUMPDEST DUP1 PUSH1 0x1F ADD PUSH1 0x20 DUP1 SWAP2 DIV MUL PUSH1 0x20 ADD PUSH1 0x40 MLOAD SWAP1 DUP2 ADD PUSH1 0x40 MSTORE DUP1 SWAP3 SWAP2 SWAP1 DUP2 DUP2 MSTORE PUSH1 0x20 ADD DUP3 DUP1 SLOAD PUSH2 0x37C SWAP1 PUSH2 0x881 JUMP JUMPDEST DUP1 ISZERO PUSH2 0x3C9 JUMPI DUP1 PUSH1 0x1F LT PUSH2 0x39E JUMPI PUSH2 0x100 DUP1 DUP4 SLOAD DIV MUL DUP4 MSTORE SWAP2 PUSH1 0x20 ADD SWAP2 PUSH2 0x3C9 JUMP JUMPDEST DUP3 ADD SWAP2 SWAP1 PUSH1 0x0 MSTORE PUSH1 0x20 PUSH1 0x0 KECCAK256 SWAP1 JUMPDEST DUP2 SLOAD DUP2 MSTORE SWAP1 PUSH1 0x1 ADD SWAP1 PUSH1 0x20 ADD DUP1 DUP4 GT PUSH2 0x3AC JUMPI DUP3 SWAP1 SUB PUSH1 0x1F AND DUP3 ADD SWAP2 JUMPDEST POP POP POP POP POP SWAP1 POP DUP3 JUMP JUMPDEST DUP3 DUP1 SLOAD PUSH2 0x3DF SWAP1 PUSH2 0x881 JUMP JUMPDEST SWAP1 PUSH1 0x0 MSTORE PUSH1 0x20 PUSH1 0x0 KECCAK256 SWAP1 PUSH1 0x1F ADD PUSH1 0x20 SWAP1 DIV DUP2 ADD SWAP3 DUP3 PUSH2 0x401 JUMPI PUSH1 0x0 DUP6 SSTORE PUSH2 0x448 JUMP JUMPDEST DUP3 PUSH1 0x1F LT PUSH2 0x41A JUMPI DUP1 MLOAD PUSH1 0xFF NOT AND DUP4 DUP1 ADD OR DUP6 SSTORE PUSH2 0x448 JUMP JUMPDEST DUP3 DUP1 ADD PUSH1 0x1 ADD DUP6 SSTORE DUP3 ISZERO PUSH2 0x448 JUMPI SWAP2 DUP3 ADD JUMPDEST DUP3 DUP2 GT ISZERO PUSH2 0x447 JUMPI DUP3 MLOAD DUP3 SSTORE SWAP2 PUSH1 0x20 ADD SWAP2 SWAP1 PUSH1 0x1 ADD SWAP1 PUSH2 0x42C JUMP JUMPDEST JUMPDEST POP SWAP1 POP PUSH2 0x455 SWAP2 SWAP1 PUSH2 0x459 JUMP JUMPDEST POP SWAP1 JUMP JUMPDEST JUMPDEST DUP1 DUP3 GT ISZERO PUSH2 0x472 JUMPI PUSH1 0x0 DUP2 PUSH1 0x0 SWAP1 SSTORE POP PUSH1 0x1 ADD PUSH2 0x45A JUMP JUMPDEST POP SWAP1 JUMP JUMPDEST PUSH1 0x0 DUP2 SWAP1 POP SWAP2 SWAP1 POP JUMP JUMPDEST PUSH2 0x489 DUP2 PUSH2 0x476 JUMP JUMPDEST DUP3 MSTORE POP POP JUMP JUMPDEST PUSH1 0x0 PUSH1 0x20 DUP3 ADD SWAP1 POP PUSH2 0x4A4 PUSH1 0x0 DUP4 ADD DUP5 PUSH2 0x480 JUMP JUMPDEST SWAP3 SWAP2 POP POP JUMP JUMPDEST PUSH1 0x0 PUSH1 0x40 MLOAD SWAP1 POP SWAP1 JUMP JUMPDEST PUSH1 0x0 DUP1 REVERT JUMPDEST PUSH1 0x0 DUP1 REVERT JUMPDEST PUSH2 0x4C7 DUP2 PUSH2 0x476 JUMP JUMPDEST DUP2 EQ PUSH2 0x4D2 JUMPI PUSH1 0x0 DUP1 REVERT JUMPDEST POP JUMP JUMPDEST PUSH1 0x0 DUP2 CALLDATALOAD SWAP1 POP PUSH2 0x4E4 DUP2 PUSH2 0x4BE JUMP JUMPDEST SWAP3 SWAP2 POP POP JUMP JUMPDEST PUSH1 0x0 PUSH1 0x20 DUP3 DUP5 SUB SLT ISZERO PUSH2 0x500 JUMPI PUSH2 0x4FF PUSH2 0x4B4 JUMP JUMPDEST JUMPDEST PUSH1 0x0 PUSH2 0x50E DUP5 DUP3 DUP6 ADD PUSH2 0x4D5 JUMP JUMPDEST SWAP2 POP POP SWAP3 SWAP2 POP POP JUMP JUMPDEST PUSH1 0x0 DUP1 REVERT JUMPDEST PUSH1 0x0 DUP1 REVERT JUMPDEST PUSH1 0x0 PUSH1 0x1F NOT PUSH1 0x1F DUP4 ADD AND SWAP1 POP SWAP2 SWAP1 POP JUMP JUMPDEST PUSH32 0x4E487B7100000000000000000000000000000000000000000000000000000000 PUSH1 0x0 MSTORE PUSH1 0x41 PUSH1 0x4 MSTORE PUSH1 0x24 PUSH1 0x0 REVERT JUMPDEST PUSH2 0x56A DUP3 PUSH2 0x521 JUMP JUMPDEST DUP2 ADD DUP2 DUP2 LT PUSH8 0xFFFFFFFFFFFFFFFF DUP3 GT OR ISZERO PUSH2 0x589 JUMPI PUSH2 0x588 PUSH2 0x532 JUMP JUMPDEST JUMPDEST DUP1 PUSH1 0x40 MSTORE POP POP POP JUMP JUMPDEST PUSH1 0x0 PUSH2 0x59C PUSH2 0x4AA JUMP JUMPDEST SWAP1 POP PUSH2 0x5A8 DUP3 DUP3 PUSH2 0x561 JUMP JUMPDEST SWAP2 SWAP1 POP JUMP JUMPDEST PUSH1 0x0 PUSH8 0xFFFFFFFFFFFFFFFF DUP3 GT ISZERO PUSH2 0x5C8 JUMPI PUSH2 0x5C7 PUSH2 0x532 JUMP JUMPDEST JUMPDEST PUSH2 0x5D1 DUP3 PUSH2 0x521 JUMP JUMPDEST SWAP1 POP PUSH1 0x20 DUP2 ADD SWAP1 POP SWAP2 SWAP1 POP JUMP JUMPDEST DUP3 DUP2 DUP4 CALLDATACOPY PUSH1 0x0 DUP4 DUP4 ADD MSTORE POP POP POP JUMP JUMPDEST PUSH1 0x0 PUSH2 0x600 PUSH2 0x5FB DUP5 PUSH2 0x5AD JUMP JUMPDEST PUSH2 0x592 JUMP JUMPDEST SWAP1 POP DUP3 DUP2 MSTORE PUSH1 0x20 DUP2 ADD DUP5 DUP5 DUP5 ADD GT ISZERO PUSH2 0x61C JUMPI PUSH2 0x61B PUSH2 0x51C JUMP JUMPDEST JUMPDEST PUSH2 0x627 DUP5 DUP3 DUP6 PUSH2 0x5DE JUMP JUMPDEST POP SWAP4 SWAP3 POP POP POP JUMP JUMPDEST PUSH1 0x0 DUP3 PUSH1 0x1F DUP4 ADD SLT PUSH2 0x644 JUMPI PUSH2 0x643 PUSH2 0x517 JUMP JUMPDEST JUMPDEST DUP2 CALLDATALOAD PUSH2 0x654 DUP5 DUP3 PUSH1 0x20 DUP7 ADD PUSH2 0x5ED JUMP JUMPDEST SWAP2 POP POP SWAP3 SWAP2 POP POP JUMP JUMPDEST PUSH1 0x0 DUP1 PUSH1 0x40 DUP4 DUP6 SUB SLT ISZERO PUSH2 0x674 JUMPI PUSH2 0x673 PUSH2 0x4B4 JUMP JUMPDEST JUMPDEST PUSH1 0x0 DUP4 ADD CALLDATALOAD PUSH8 0xFFFFFFFFFFFFFFFF DUP2 GT ISZERO PUSH2 0x692 JUMPI PUSH2 0x691 PUSH2 0x4B9 JUMP JUMPDEST JUMPDEST PUSH2 0x69E DUP6 DUP3 DUP7 ADD PUSH2 0x62F JUMP JUMPDEST SWAP3 POP POP PUSH1 0x20 DUP4 ADD CALLDATALOAD PUSH8 0xFFFFFFFFFFFFFFFF DUP2 GT ISZERO PUSH2 0x6BF JUMPI PUSH2 0x6BE PUSH2 0x4B9 JUMP JUMPDEST JUMPDEST PUSH2 0x6CB DUP6 DUP3 DUP7 ADD PUSH2 0x62F JUMP JUMPDEST SWAP2 POP POP SWAP3 POP SWAP3 SWAP1 POP JUMP JUMPDEST PUSH1 0x0 PUSH1 0x20 DUP3 DUP5 SUB SLT ISZERO PUSH2 0x6EB JUMPI PUSH2 0x6EA PUSH2 0x4B4 JUMP JUMPDEST JUMPDEST PUSH1 0x0 DUP3 ADD CALLDATALOAD PUSH8 0xFFFFFFFFFFFFFFFF DUP2 GT ISZERO PUSH2 0x709 JUMPI PUSH2 0x708 PUSH2 0x4B9 JUMP JUMPDEST JUMPDEST PUSH2 0x715 DUP5 DUP3 DUP6 ADD PUSH2 0x62F JUMP JUMPDEST SWAP2 POP POP SWAP3 SWAP2 POP POP JUMP JUMPDEST PUSH1 0x0 DUP2 MLOAD SWAP1 POP SWAP2 SWAP1 POP JUMP JUMPDEST PUSH1 0x0 DUP3 DUP3 MSTORE PUSH1 0x20 DUP3 ADD SWAP1 POP SWAP3 SWAP2 POP POP JUMP JUMPDEST PUSH1 0x0 JUMPDEST DUP4 DUP2 LT ISZERO PUSH2 0x758 JUMPI DUP1 DUP3 ADD MLOAD DUP2 DUP5 ADD MSTORE PUSH1 0x20 DUP2 ADD SWAP1 POP PUSH2 0x73D JUMP JUMPDEST DUP4 DUP2 GT ISZERO PUSH2 0x767 JUMPI PUSH1 0x0 DUP5 DUP5 ADD MSTORE JUMPDEST POP POP POP POP JUMP JUMPDEST PUSH1 0x0 PUSH2 0x778 DUP3 PUSH2 0x71E JUMP JUMPDEST PUSH2 0x782 DUP2 DUP6 PUSH2 0x729 JUMP JUMPDEST SWAP4 POP PUSH2 0x792 DUP2 DUP6 PUSH1 0x20 DUP7 ADD PUSH2 0x73A JUMP JUMPDEST PUSH2 0x79B DUP2 PUSH2 0x521 JUMP JUMPDEST DUP5 ADD SWAP2 POP POP SWAP3 SWAP2 POP POP JUMP JUMPDEST PUSH1 0x0 PUSH1 0x20 DUP3 ADD SWAP1 POP DUP2 DUP2 SUB PUSH1 0x0 DUP4 ADD MSTORE PUSH2 0x7C0 DUP2 DUP5 PUSH2 0x76D JUMP JUMPDEST SWAP1 POP SWAP3 SWAP2 POP POP JUMP JUMPDEST PUSH1 0x0 PUSH1 0x40 DUP3 ADD SWAP1 POP DUP2 DUP2 SUB PUSH1 0x0 DUP4 ADD MSTORE PUSH2 0x7E2 DUP2 DUP6 PUSH2 0x76D JUMP JUMPDEST SWAP1 POP DUP2 DUP2 SUB PUSH1 0x20 DUP4 ADD MSTORE PUSH2 0x7F6 DUP2 DUP5 PUSH2 0x76D JUMP JUMPDEST SWAP1 POP SWAP4 SWAP3 POP POP POP JUMP JUMPDEST PUSH1 0x0 DUP2 SWAP1 POP SWAP3 SWAP2 POP POP JUMP JUMPDEST PUSH1 0x0 PUSH2 0x815 DUP3 PUSH2 0x71E JUMP JUMPDEST PUSH2 0x81F DUP2 DUP6 PUSH2 0x7FF JUMP JUMPDEST SWAP4 POP PUSH2 0x82F DUP2 DUP6 PUSH1 0x20 DUP7 ADD PUSH2 0x73A JUMP JUMPDEST DUP1 DUP5 ADD SWAP2 POP POP SWAP3 SWAP2 POP POP JUMP JUMPDEST PUSH1 0x0 PUSH2 0x847 DUP3 DUP5 PUSH2 0x80A JUMP JUMPDEST SWAP2 POP DUP2 SWAP1 POP SWAP3 SWAP2 POP POP JUMP JUMPDEST PUSH32 0x4E487B7100000000000000000000000000000000000000000000000000000000 PUSH1 0x0 MSTORE PUSH1 0x22 PUSH1 0x4 MSTORE PUSH1 0x24 PUSH1 0x0 REVERT JUMPDEST PUSH1 0x0 PUSH1 0x2 DUP3 DIV SWAP1 POP PUSH1 0x1 DUP3 AND DUP1 PUSH2 0x899 JUMPI PUSH1 0x7F DUP3 AND SWAP2 POP JUMPDEST PUSH1 0x20 DUP3 LT DUP2 EQ ISZERO PUSH2 0x8AD JUMPI PUSH2 0x8AC PUSH2 0x852 JUMP JUMPDEST JUMPDEST POP SWAP2 SWAP1 POP JUMP INVALID LOG2 PUSH5 0x6970667358 0x22 SLT KECCAK256 SWAP15 0xB4 LOG4 ORIGIN 0xD7 POP 0xC2 GT PUSH1 0xE1 0xF7 0xD7 PUSH10 0x31131862EF016C395AF1 SAR 0xAD PUSH26 0x71DD1E25458864736F6C63430008080033000000000000000000 "
				},
				"gasEstimates": {
					"creation": {
						"codeDepositCost": "456200",
						"executionCost": "493",
						"totalCost": "456693"
					},
					"external": {
						"addFriend(string,string)": "infinite",
						"friends(uint256)": "infinite",
						"nameTofavoriteColor(string)": "infinite",
						"retrieve()": "2415",
						"store(uint256)": "22520"
					}
				},
				"methodIdentifiers": {
					"addFriend(string,string)": "723ce4d9",
					"friends(uint256)": "ce146828",
					"nameTofavoriteColor(string)": "b50aee80",
					"retrieve()": "2e64cec1",
					"store(uint256)": "6057361d"
				}
			},
			"storageLayout": {
				"storage": [
					{
						"astId": 3,
						"contract": "contracts/SimpleStorage.sol:SimpleStorage",
						"label": "favoriteColor",
						"offset": 0,
						"slot": "0",
						"type": "t_uint256"
					},
					{
						"astId": 7,
						"contract": "contracts/SimpleStorage.sol:SimpleStorage",
						"label": "friends",
						"offset": 0,
						"slot": "1",
						"type": "t_array(t_struct(Friend)12_storage)dyn_storage"
					},
					{
						"astId": 16,
						"contract": "contracts/SimpleStorage.sol:SimpleStorage",
						"label": "nameTofavoriteColor",
						"offset": 0,
						"slot": "2",
						"type": "t_mapping(t_string_memory_ptr,t_string_storage)"
					}
				],
				"types": {
					"t_array(t_struct(Friend)12_storage)dyn_storage": {
						"base": "t_struct(Friend)12_storage",
						"encoding": "dynamic_array",
						"label": "struct SimpleStorage.Friend[]",
						"numberOfBytes": "32"
					},
					"t_mapping(t_string_memory_ptr,t_string_storage)": {
						"encoding": "mapping",
						"key": "t_string_memory_ptr",
						"label": "mapping(string => string)",
						"numberOfBytes": "32",
						"value": "t_string_storage"
					},
					"t_string_memory_ptr": {
						"encoding": "bytes",
						"label": "string",
						"numberOfBytes": "32"
					},
					"t_string_storage": {
						"encoding": "bytes",
						"label": "string",
						"numberOfBytes": "32"
					},
					"t_struct(Friend)12_storage": {
						"encoding": "inplace",
						"label": "struct SimpleStorage.Friend",
						"members": [
							{
								"astId": 9,
								"contract": "contracts/SimpleStorage.sol:SimpleStorage",
								"label": "favoriteColor",
								"offset": 0,
								"slot": "0",
								"type": "t_string_storage"
							},
							{
								"astId": 11,
								"contract": "contracts/SimpleStorage.sol:SimpleStorage",
								"label": "name",
								"offset": 0,
								"slot": "1",
								"type": "t_string_storage"
							}
						],
						"numberOfBytes": "64"
					},
					"t_uint256": {
						"encoding": "inplace",
						"label": "uint256",
						"numberOfBytes": "32"
					}
				}
			},
			"userdoc": {
				"kind": "user",
				"methods": {},
				"version": 1
			}
		}
	}
}