{
	"contracts/FundMe.sol": {
		"FundMe": {
			"abi": [
				{
					"inputs": [],
					"name": "endFundRaiser",
					"outputs": [],
					"stateMutability": "nonpayable",
					"type": "function"
				},
				{
					"inputs": [],
					"name": "fund",
					"outputs": [],
					"stateMutability": "nonpayable",
					"type": "function"
				},
				{
					"inputs": [],
					"name": "startFundRaiser",
					"outputs": [],
					"stateMutability": "nonpayable",
					"type": "function"
				},
				{
					"inputs": [],
					"name": "viewListOfFundings",
					"outputs": [],
					"stateMutability": "nonpayable",
					"type": "function"
				},
				{
					"inputs": [],
					"name": "withdraw",
					"outputs": [],
					"stateMutability": "nonpayable",
					"type": "function"
				}
			],
			"devdoc": {
				"kind": "dev",
				"methods": {},
				"version": 1
			},
			"evm": {
				"assembly": "    /* \"contracts/FundMe.sol\":323:768  contract FundMe {... */\n  mstore(0x40, 0x80)\n  callvalue\n  dup1\n  iszero\n  tag_1\n  jumpi\n  0x00\n  dup1\n  revert\ntag_1:\n  pop\n  dataSize(sub_0)\n  dup1\n  dataOffset(sub_0)\n  0x00\n  codecopy\n  0x00\n  return\nstop\n\nsub_0: assembly {\n        /* \"contracts/FundMe.sol\":323:768  contract FundMe {... */\n      mstore(0x40, 0x80)\n      callvalue\n      dup1\n      iszero\n      tag_1\n      jumpi\n      0x00\n      dup1\n      revert\n    tag_1:\n      pop\n      jumpi(tag_2, lt(calldatasize, 0x04))\n      shr(0xe0, calldataload(0x00))\n      dup1\n      0x3ccfd60b\n      eq\n      tag_3\n      jumpi\n      dup1\n      0x74143a6c\n      eq\n      tag_4\n      jumpi\n      dup1\n      0x82c9e836\n      eq\n      tag_5\n      jumpi\n      dup1\n      0xb60d4288\n      eq\n      tag_6\n      jumpi\n      dup1\n      0xc89d0deb\n      eq\n      tag_7\n      jumpi\n    tag_2:\n      0x00\n      dup1\n      revert\n        /* \"contracts/FundMe.sol\":519:548  function withdraw() public {} */\n    tag_3:\n      tag_8\n      tag_9\n      jump\t// in\n    tag_8:\n      stop\n        /* \"contracts/FundMe.sol\":726:765  function viewListOfFundings() public {} */\n    tag_4:\n      tag_10\n      tag_11\n      jump\t// in\n    tag_10:\n      stop\n        /* \"contracts/FundMe.sol\":654:688  function endFundRaiser() public {} */\n    tag_5:\n      tag_12\n      tag_13\n      jump\t// in\n    tag_12:\n      stop\n        /* \"contracts/FundMe.sol\":458:483  function fund() public {} */\n    tag_6:\n      tag_14\n      tag_15\n      jump\t// in\n    tag_14:\n      stop\n        /* \"contracts/FundMe.sol\":586:622  function startFundRaiser() public {} */\n    tag_7:\n      tag_16\n      tag_17\n      jump\t// in\n    tag_16:\n      stop\n        /* \"contracts/FundMe.sol\":519:548  function withdraw() public {} */\n    tag_9:\n      jump\t// out\n        /* \"contracts/FundMe.sol\":726:765  function viewListOfFundings() public {} */\n    tag_11:\n      jump\t// out\n        /* \"contracts/FundMe.sol\":654:688  function endFundRaiser() public {} */\n    tag_13:\n      jump\t// out\n        /* \"contracts/FundMe.sol\":458:483  function fund() public {} */\n    tag_15:\n      jump\t// out\n        /* \"contracts/FundMe.sol\":586:622  function startFundRaiser() public {} */\n    tag_17:\n      jump\t// out\n\n    auxdata: 0xa2646970667358221220d296cdf5098fb7ea247ab3ec473bff78972640029ad12820bb8a35d78f64543964736f6c63430008080033\n}\n",
				"bytecode": {
					"linkReferences": {},
					"object": "608060405234801561001057600080fd5b5060bd8061001f6000396000f3fe6080604052348015600f57600080fd5b506004361060505760003560e01c80633ccfd60b14605557806374143a6c14605d57806382c9e836146065578063b60d428814606d578063c89d0deb146075575b600080fd5b605b607d565b005b6063607f565b005b606b6081565b005b60736083565b005b607b6085565b005b565b565b565b565b56fea2646970667358221220d296cdf5098fb7ea247ab3ec473bff78972640029ad12820bb8a35d78f64543964736f6c63430008080033",
					"opcodes": "PUSH1 0x80 PUSH1 0x40 MSTORE CALLVALUE DUP1 ISZERO PUSH2 0x10 JUMPI PUSH1 0x0 DUP1 REVERT JUMPDEST POP PUSH1 0xBD DUP1 PUSH2 0x1F PUSH1 0x0 CODECOPY PUSH1 0x0 RETURN INVALID PUSH1 0x80 PUSH1 0x40 MSTORE CALLVALUE DUP1 ISZERO PUSH1 0xF JUMPI PUSH1 0x0 DUP1 REVERT JUMPDEST POP PUSH1 0x4 CALLDATASIZE LT PUSH1 0x50 JUMPI PUSH1 0x0 CALLDATALOAD PUSH1 0xE0 SHR DUP1 PUSH4 0x3CCFD60B EQ PUSH1 0x55 JUMPI DUP1 PUSH4 0x74143A6C EQ PUSH1 0x5D JUMPI DUP1 PUSH4 0x82C9E836 EQ PUSH1 0x65 JUMPI DUP1 PUSH4 0xB60D4288 EQ PUSH1 0x6D JUMPI DUP1 PUSH4 0xC89D0DEB EQ PUSH1 0x75 JUMPI JUMPDEST PUSH1 0x0 DUP1 REVERT JUMPDEST PUSH1 0x5B PUSH1 0x7D JUMP JUMPDEST STOP JUMPDEST PUSH1 0x63 PUSH1 0x7F JUMP JUMPDEST STOP JUMPDEST PUSH1 0x6B PUSH1 0x81 JUMP JUMPDEST STOP JUMPDEST PUSH1 0x73 PUSH1 0x83 JUMP JUMPDEST STOP JUMPDEST PUSH1 0x7B PUSH1 0x85 JUMP JUMPDEST STOP JUMPDEST JUMP JUMPDEST JUMP JUMPDEST JUMP JUMPDEST JUMP JUMPDEST JUMP INVALID LOG2 PUSH5 0x6970667358 0x22 SLT KECCAK256 0xD2 SWAP7 0xCD CREATE2 MULMOD DUP16 0xB7 0xEA 0x24 PUSH27 0xB3EC473BFF78972640029AD12820BB8A35D78F64543964736F6C63 NUMBER STOP ADDMOD ADDMOD STOP CALLER "
				},
				"gasEstimates": {
					"creation": {
						"codeDepositCost": "37800",
						"executionCost": "87",
						"totalCost": "37887"
					},
					"external": {
						"endFundRaiser()": "166",
						"fund()": "188",
						"startFundRaiser()": "210",
						"viewListOfFundings()": "144",
						"withdraw()": "122"
					}
				},
				"methodIdentifiers": {
					"endFundRaiser()": "82c9e836",
					"fund()": "b60d4288",
					"startFundRaiser()": "c89d0deb",
					"viewListOfFundings()": "74143a6c",
					"withdraw()": "3ccfd60b"
				}
			},
			"storageLayout": {
				"storage": [],
				"types": null
			},
			"userdoc": {
				"kind": "user",
				"methods": {},
				"version": 1
			}
		}
	}
}